{
  "contractName": "GrootErc721",
  "abi": [
    {
      "inputs": [],
      "stateMutability": "nonpayable",
      "type": "constructor"
    },
    {
      "anonymous": false,
      "inputs": [
        {
          "indexed": true,
          "internalType": "address",
          "name": "owner",
          "type": "address"
        },
        {
          "indexed": true,
          "internalType": "address",
          "name": "approved",
          "type": "address"
        },
        {
          "indexed": true,
          "internalType": "uint256",
          "name": "tokenId",
          "type": "uint256"
        }
      ],
      "name": "Approval",
      "type": "event"
    },
    {
      "anonymous": false,
      "inputs": [
        {
          "indexed": true,
          "internalType": "address",
          "name": "owner",
          "type": "address"
        },
        {
          "indexed": true,
          "internalType": "address",
          "name": "operator",
          "type": "address"
        },
        {
          "indexed": false,
          "internalType": "bool",
          "name": "approved",
          "type": "bool"
        }
      ],
      "name": "ApprovalForAll",
      "type": "event"
    },
    {
      "anonymous": false,
      "inputs": [
        {
          "indexed": true,
          "internalType": "address",
          "name": "from",
          "type": "address"
        },
        {
          "indexed": true,
          "internalType": "address",
          "name": "to",
          "type": "address"
        },
        {
          "indexed": true,
          "internalType": "uint256",
          "name": "tokenId",
          "type": "uint256"
        }
      ],
      "name": "Transfer",
      "type": "event"
    },
    {
      "inputs": [
        {
          "internalType": "address",
          "name": "to",
          "type": "address"
        },
        {
          "internalType": "uint256",
          "name": "tokenId",
          "type": "uint256"
        }
      ],
      "name": "approve",
      "outputs": [],
      "stateMutability": "nonpayable",
      "type": "function"
    },
    {
      "inputs": [
        {
          "internalType": "address",
          "name": "owner",
          "type": "address"
        }
      ],
      "name": "balanceOf",
      "outputs": [
        {
          "internalType": "uint256",
          "name": "",
          "type": "uint256"
        }
      ],
      "stateMutability": "view",
      "type": "function",
      "constant": true
    },
    {
      "inputs": [
        {
          "internalType": "uint256",
          "name": "tokenId",
          "type": "uint256"
        }
      ],
      "name": "getApproved",
      "outputs": [
        {
          "internalType": "address",
          "name": "",
          "type": "address"
        }
      ],
      "stateMutability": "view",
      "type": "function",
      "constant": true
    },
    {
      "inputs": [
        {
          "internalType": "address",
          "name": "owner",
          "type": "address"
        },
        {
          "internalType": "address",
          "name": "operator",
          "type": "address"
        }
      ],
      "name": "isApprovedForAll",
      "outputs": [
        {
          "internalType": "bool",
          "name": "",
          "type": "bool"
        }
      ],
      "stateMutability": "view",
      "type": "function",
      "constant": true
    },
    {
      "inputs": [],
      "name": "name",
      "outputs": [
        {
          "internalType": "string",
          "name": "",
          "type": "string"
        }
      ],
      "stateMutability": "view",
      "type": "function",
      "constant": true
    },
    {
      "inputs": [
        {
          "internalType": "uint256",
          "name": "tokenId",
          "type": "uint256"
        }
      ],
      "name": "ownerOf",
      "outputs": [
        {
          "internalType": "address",
          "name": "",
          "type": "address"
        }
      ],
      "stateMutability": "view",
      "type": "function",
      "constant": true
    },
    {
      "inputs": [
        {
          "internalType": "address",
          "name": "from",
          "type": "address"
        },
        {
          "internalType": "address",
          "name": "to",
          "type": "address"
        },
        {
          "internalType": "uint256",
          "name": "tokenId",
          "type": "uint256"
        }
      ],
      "name": "safeTransferFrom",
      "outputs": [],
      "stateMutability": "nonpayable",
      "type": "function"
    },
    {
      "inputs": [
        {
          "internalType": "address",
          "name": "from",
          "type": "address"
        },
        {
          "internalType": "address",
          "name": "to",
          "type": "address"
        },
        {
          "internalType": "uint256",
          "name": "tokenId",
          "type": "uint256"
        },
        {
          "internalType": "bytes",
          "name": "_data",
          "type": "bytes"
        }
      ],
      "name": "safeTransferFrom",
      "outputs": [],
      "stateMutability": "nonpayable",
      "type": "function"
    },
    {
      "inputs": [
        {
          "internalType": "address",
          "name": "operator",
          "type": "address"
        },
        {
          "internalType": "bool",
          "name": "approved",
          "type": "bool"
        }
      ],
      "name": "setApprovalForAll",
      "outputs": [],
      "stateMutability": "nonpayable",
      "type": "function"
    },
    {
      "inputs": [
        {
          "internalType": "bytes4",
          "name": "interfaceId",
          "type": "bytes4"
        }
      ],
      "name": "supportsInterface",
      "outputs": [
        {
          "internalType": "bool",
          "name": "",
          "type": "bool"
        }
      ],
      "stateMutability": "view",
      "type": "function",
      "constant": true
    },
    {
      "inputs": [],
      "name": "symbol",
      "outputs": [
        {
          "internalType": "string",
          "name": "",
          "type": "string"
        }
      ],
      "stateMutability": "view",
      "type": "function",
      "constant": true
    },
    {
      "inputs": [
        {
          "internalType": "uint256",
          "name": "tokenId",
          "type": "uint256"
        }
      ],
      "name": "tokenURI",
      "outputs": [
        {
          "internalType": "string",
          "name": "",
          "type": "string"
        }
      ],
      "stateMutability": "view",
      "type": "function",
      "constant": true
    },
    {
      "inputs": [
        {
          "internalType": "address",
          "name": "from",
          "type": "address"
        },
        {
          "internalType": "address",
          "name": "to",
          "type": "address"
        },
        {
          "internalType": "uint256",
          "name": "tokenId",
          "type": "uint256"
        }
      ],
      "name": "transferFrom",
      "outputs": [],
      "stateMutability": "nonpayable",
      "type": "function"
    },
    {
      "inputs": [
        {
          "internalType": "address",
          "name": "recipient",
          "type": "address"
        },
        {
          "internalType": "string",
          "name": "metadata",
          "type": "string"
        }
      ],
      "name": "awardItem",
      "outputs": [
        {
          "internalType": "uint256",
          "name": "",
          "type": "uint256"
        }
      ],
      "stateMutability": "nonpayable",
      "type": "function"
    },
    {
      "inputs": [],
      "name": "getTokenId",
      "outputs": [
        {
          "internalType": "uint256",
          "name": "",
          "type": "uint256"
        }
      ],
      "stateMutability": "view",
      "type": "function",
      "constant": true
    }
  ],
  "bytecode": "0x60806040523480156200001157600080fd5b506040518060400160405280600581526020017f47726f6f740000000000000000000000000000000000000000000000000000008152506040518060400160405280600281526020017f474f000000000000000000000000000000000000000000000000000000000000815250816000908051906020019062000096929190620000b8565b508060019080519060200190620000af929190620000b8565b505050620001cd565b828054620000c69062000168565b90600052602060002090601f016020900481019282620000ea576000855562000136565b82601f106200010557805160ff191683800117855562000136565b8280016001018555821562000136579182015b828111156200013557825182559160200191906001019062000118565b5b50905062000145919062000149565b5090565b5b80821115620001645760008160009055506001016200014a565b5090565b600060028204905060018216806200018157607f821691505b602082108114156200019857620001976200019e565b5b50919050565b7f4e487b7100000000000000000000000000000000000000000000000000000000600052602260045260246000fd5b612ba680620001dd6000396000f3fe608060405234801561001057600080fd5b50600436106100f55760003560e01c80636352211e11610097578063b88d4fde11610066578063b88d4fde14610284578063c87b56dd146102a0578063cf378343146102d0578063e985e9c514610300576100f5565b80636352211e146101ea57806370a082311461021a57806395d89b411461024a578063a22cb46514610268576100f5565b8063081812fc116100d3578063081812fc14610166578063095ea7b31461019657806323b872dd146101b257806342842e0e146101ce576100f5565b8063010a38f5146100fa57806301ffc9a71461011857806306fdde0314610148575b600080fd5b610102610330565b60405161010f9190612296565b60405180910390f35b610132600480360381019061012d9190611c53565b61033a565b60405161013f9190612059565b60405180910390f35b61015061041c565b60405161015d9190612074565b60405180910390f35b610180600480360381019061017b9190611ca5565b6104ae565b60405161018d9190611ff2565b60405180910390f35b6101b060048036038101906101ab9190611c17565b610533565b005b6101cc60048036038101906101c79190611abd565b61064b565b005b6101e860048036038101906101e39190611abd565b6106ab565b005b61020460048036038101906101ff9190611ca5565b6106cb565b6040516102119190611ff2565b60405180910390f35b610234600480360381019061022f9190611a58565b61077d565b6040516102419190612296565b60405180910390f35b610252610835565b60405161025f9190612074565b60405180910390f35b610282600480360381019061027d9190611b87565b6108c7565b005b61029e60048036038101906102999190611b0c565b610a48565b005b6102ba60048036038101906102b59190611ca5565b610aaa565b6040516102c79190612074565b60405180910390f35b6102ea60048036038101906102e59190611bc3565b610bfc565b6040516102f79190612296565b60405180910390f35b61031a60048036038101906103159190611a81565b610c3b565b6040516103279190612059565b60405180910390f35b6000600854905090565b60007f80ac58cd000000000000000000000000000000000000000000000000000000007bffffffffffffffffffffffffffffffffffffffffffffffffffffffff1916827bffffffffffffffffffffffffffffffffffffffffffffffffffffffff1916148061040557507f5b5e139f000000000000000000000000000000000000000000000000000000007bffffffffffffffffffffffffffffffffffffffffffffffffffffffff1916827bffffffffffffffffffffffffffffffffffffffffffffffffffffffff1916145b80610415575061041482610ccf565b5b9050919050565b60606000805461042b906124ec565b80601f0160208091040260200160405190810160405280929190818152602001828054610457906124ec565b80156104a45780601f10610479576101008083540402835291602001916104a4565b820191906000526020600020905b81548152906001019060200180831161048757829003601f168201915b5050505050905090565b60006104b982610d39565b6104f8576040517f08c379a00000000000000000000000000000000000000000000000000000000081526004016104ef906121f6565b60405180910390fd5b6004600083815260200190815260200160002060009054906101000a900473ffffffffffffffffffffffffffffffffffffffff169050919050565b600061053e826106cb565b90508073ffffffffffffffffffffffffffffffffffffffff168373ffffffffffffffffffffffffffffffffffffffff1614156105af576040517f08c379a00000000000000000000000000000000000000000000000000000000081526004016105a690612256565b60405180910390fd5b8073ffffffffffffffffffffffffffffffffffffffff166105ce610da5565b73ffffffffffffffffffffffffffffffffffffffff1614806105fd57506105fc816105f7610da5565b610c3b565b5b61063c576040517f08c379a000000000000000000000000000000000000000000000000000000000815260040161063390612136565b60405180910390fd5b6106468383610dad565b505050565b61065c610656610da5565b82610e66565b61069b576040517f08c379a000000000000000000000000000000000000000000000000000000000815260040161069290612276565b60405180910390fd5b6106a6838383610f44565b505050565b6106c683838360405180602001604052806000815250610a48565b505050565b6000806002600084815260200190815260200160002060009054906101000a900473ffffffffffffffffffffffffffffffffffffffff169050600073ffffffffffffffffffffffffffffffffffffffff168173ffffffffffffffffffffffffffffffffffffffff161415610774576040517f08c379a000000000000000000000000000000000000000000000000000000000815260040161076b90612176565b60405180910390fd5b80915050919050565b60008073ffffffffffffffffffffffffffffffffffffffff168273ffffffffffffffffffffffffffffffffffffffff1614156107ee576040517f08c379a00000000000000000000000000000000000000000000000000000000081526004016107e590612156565b60405180910390fd5b600360008373ffffffffffffffffffffffffffffffffffffffff1673ffffffffffffffffffffffffffffffffffffffff168152602001908152602001600020549050919050565b606060018054610844906124ec565b80601f0160208091040260200160405190810160405280929190818152602001828054610870906124ec565b80156108bd5780601f10610892576101008083540402835291602001916108bd565b820191906000526020600020905b8154815290600101906020018083116108a057829003601f168201915b5050505050905090565b6108cf610da5565b73ffffffffffffffffffffffffffffffffffffffff168273ffffffffffffffffffffffffffffffffffffffff16141561093d576040517f08c379a0000000000000000000000000000000000000000000000000000000008152600401610934906120f6565b60405180910390fd5b806005600061094a610da5565b73ffffffffffffffffffffffffffffffffffffffff1673ffffffffffffffffffffffffffffffffffffffff16815260200190815260200160002060008473ffffffffffffffffffffffffffffffffffffffff1673ffffffffffffffffffffffffffffffffffffffff16815260200190815260200160002060006101000a81548160ff0219169083151502179055508173ffffffffffffffffffffffffffffffffffffffff166109f7610da5565b73ffffffffffffffffffffffffffffffffffffffff167f17307eab39ab6107e8899845ad3d59bd9653f200f220920489ca2b5937696c3183604051610a3c9190612059565b60405180910390a35050565b610a59610a53610da5565b83610e66565b610a98576040517f08c379a0000000000000000000000000000000000000000000000000000000008152600401610a8f90612276565b60405180910390fd5b610aa4848484846111a0565b50505050565b6060610ab582610d39565b610af4576040517f08c379a0000000000000000000000000000000000000000000000000000000008152600401610aeb906121d6565b60405180910390fd5b6000600660008481526020019081526020016000208054610b14906124ec565b80601f0160208091040260200160405190810160405280929190818152602001828054610b40906124ec565b8015610b8d5780601f10610b6257610100808354040283529160200191610b8d565b820191906000526020600020905b815481529060010190602001808311610b7057829003601f168201915b505050505090506000610b9e6111fc565b9050600081511415610bb4578192505050610bf7565b600082511115610be9578082604051602001610bd1929190611fce565b60405160208183030381529060405292505050610bf7565b610bf284611213565b925050505b919050565b6000610c0860076112ba565b610c1260076112d0565b600881905550610c24836008546112de565b610c30600854836114ac565b600854905092915050565b6000600560008473ffffffffffffffffffffffffffffffffffffffff1673ffffffffffffffffffffffffffffffffffffffff16815260200190815260200160002060008373ffffffffffffffffffffffffffffffffffffffff1673ffffffffffffffffffffffffffffffffffffffff16815260200190815260200160002060009054906101000a900460ff16905092915050565b60007f01ffc9a7000000000000000000000000000000000000000000000000000000007bffffffffffffffffffffffffffffffffffffffffffffffffffffffff1916827bffffffffffffffffffffffffffffffffffffffffffffffffffffffff1916149050919050565b60008073ffffffffffffffffffffffffffffffffffffffff166002600084815260200190815260200160002060009054906101000a900473ffffffffffffffffffffffffffffffffffffffff1673ffffffffffffffffffffffffffffffffffffffff1614159050919050565b600033905090565b816004600083815260200190815260200160002060006101000a81548173ffffffffffffffffffffffffffffffffffffffff021916908373ffffffffffffffffffffffffffffffffffffffff160217905550808273ffffffffffffffffffffffffffffffffffffffff16610e20836106cb565b73ffffffffffffffffffffffffffffffffffffffff167f8c5be1e5ebec7d5bd14f71427d1e84f3dd0314c0f7b2291e5b200ac8c7c3b92560405160405180910390a45050565b6000610e7182610d39565b610eb0576040517f08c379a0000000000000000000000000000000000000000000000000000000008152600401610ea790612116565b60405180910390fd5b6000610ebb836106cb565b90508073ffffffffffffffffffffffffffffffffffffffff168473ffffffffffffffffffffffffffffffffffffffff161480610f2a57508373ffffffffffffffffffffffffffffffffffffffff16610f12846104ae565b73ffffffffffffffffffffffffffffffffffffffff16145b80610f3b5750610f3a8185610c3b565b5b91505092915050565b8273ffffffffffffffffffffffffffffffffffffffff16610f64826106cb565b73ffffffffffffffffffffffffffffffffffffffff1614610fba576040517f08c379a0000000000000000000000000000000000000000000000000000000008152600401610fb190612216565b60405180910390fd5b600073ffffffffffffffffffffffffffffffffffffffff168273ffffffffffffffffffffffffffffffffffffffff16141561102a576040517f08c379a0000000000000000000000000000000000000000000000000000000008152600401611021906120d6565b60405180910390fd5b611035838383611520565b611040600082610dad565b6001600360008573ffffffffffffffffffffffffffffffffffffffff1673ffffffffffffffffffffffffffffffffffffffff16815260200190815260200160002060008282546110909190612402565b925050819055506001600360008473ffffffffffffffffffffffffffffffffffffffff1673ffffffffffffffffffffffffffffffffffffffff16815260200190815260200160002060008282546110e7919061237b565b92505081905550816002600083815260200190815260200160002060006101000a81548173ffffffffffffffffffffffffffffffffffffffff021916908373ffffffffffffffffffffffffffffffffffffffff160217905550808273ffffffffffffffffffffffffffffffffffffffff168473ffffffffffffffffffffffffffffffffffffffff167fddf252ad1be2c89b69c2b068fc378daa952ba7f163c4a11628f55a4df523b3ef60405160405180910390a4505050565b6111ab848484610f44565b6111b784848484611525565b6111f6576040517f08c379a00000000000000000000000000000000000000000000000000000000081526004016111ed90612096565b60405180910390fd5b50505050565b606060405180602001604052806000815250905090565b606061121e82610d39565b61125d576040517f08c379a000000000000000000000000000000000000000000000000000000000815260040161125490612236565b60405180910390fd5b60006112676111fc565b9050600081511161128757604051806020016040528060008152506112b2565b80611291846116bc565b6040516020016112a2929190611fce565b6040516020818303038152906040525b915050919050565b6001816000016000828254019250508190555050565b600081600001549050919050565b600073ffffffffffffffffffffffffffffffffffffffff168273ffffffffffffffffffffffffffffffffffffffff16141561134e576040517f08c379a0000000000000000000000000000000000000000000000000000000008152600401611345906121b6565b60405180910390fd5b61135781610d39565b15611397576040517f08c379a000000000000000000000000000000000000000000000000000000000815260040161138e906120b6565b60405180910390fd5b6113a360008383611520565b6001600360008473ffffffffffffffffffffffffffffffffffffffff1673ffffffffffffffffffffffffffffffffffffffff16815260200190815260200160002060008282546113f3919061237b565b92505081905550816002600083815260200190815260200160002060006101000a81548173ffffffffffffffffffffffffffffffffffffffff021916908373ffffffffffffffffffffffffffffffffffffffff160217905550808273ffffffffffffffffffffffffffffffffffffffff16600073ffffffffffffffffffffffffffffffffffffffff167fddf252ad1be2c89b69c2b068fc378daa952ba7f163c4a11628f55a4df523b3ef60405160405180910390a45050565b6114b582610d39565b6114f4576040517f08c379a00000000000000000000000000000000000000000000000000000000081526004016114eb90612196565b60405180910390fd5b8060066000848152602001908152602001600020908051906020019061151b92919061187c565b505050565b505050565b60006115468473ffffffffffffffffffffffffffffffffffffffff16611869565b156116af578373ffffffffffffffffffffffffffffffffffffffff1663150b7a0261156f610da5565b8786866040518563ffffffff1660e01b8152600401611591949392919061200d565b602060405180830381600087803b1580156115ab57600080fd5b505af19250505080156115dc57506040513d601f19601f820116820180604052508101906115d99190611c7c565b60015b61165f573d806000811461160c576040519150601f19603f3d011682016040523d82523d6000602084013e611611565b606091505b50600081511415611657576040517f08c379a000000000000000000000000000000000000000000000000000000000815260040161164e90612096565b60405180910390fd5b805181602001fd5b63150b7a0260e01b7bffffffffffffffffffffffffffffffffffffffffffffffffffffffff1916817bffffffffffffffffffffffffffffffffffffffffffffffffffffffff1916149150506116b4565b600190505b949350505050565b60606000821415611704576040518060400160405280600181526020017f30000000000000000000000000000000000000000000000000000000000000008152509050611864565b600082905060005b6000821461173657808061171f9061254f565b915050600a8261172f91906123d1565b915061170c565b60008167ffffffffffffffff811115611778577f4e487b7100000000000000000000000000000000000000000000000000000000600052604160045260246000fd5b6040519080825280601f01601f1916602001820160405280156117aa5781602001600182028036833780820191505090505b5090505b6000851461185d576001826117c39190612402565b9150600a856117d29190612598565b60306117de919061237b565b60f81b81838151811061181a577f4e487b7100000000000000000000000000000000000000000000000000000000600052603260045260246000fd5b60200101907effffffffffffffffffffffffffffffffffffffffffffffffffffffffffffff1916908160001a905350600a8561185691906123d1565b94506117ae565b8093505050505b919050565b600080823b905060008111915050919050565b828054611888906124ec565b90600052602060002090601f0160209004810192826118aa57600085556118f1565b82601f106118c357805160ff19168380011785556118f1565b828001600101855582156118f1579182015b828111156118f05782518255916020019190600101906118d5565b5b5090506118fe9190611902565b5090565b5b8082111561191b576000816000905550600101611903565b5090565b600061193261192d846122d6565b6122b1565b90508281526020810184848401111561194a57600080fd5b6119558482856124aa565b509392505050565b600061197061196b84612307565b6122b1565b90508281526020810184848401111561198857600080fd5b6119938482856124aa565b509392505050565b6000813590506119aa81612b14565b92915050565b6000813590506119bf81612b2b565b92915050565b6000813590506119d481612b42565b92915050565b6000815190506119e981612b42565b92915050565b600082601f830112611a0057600080fd5b8135611a1084826020860161191f565b91505092915050565b600082601f830112611a2a57600080fd5b8135611a3a84826020860161195d565b91505092915050565b600081359050611a5281612b59565b92915050565b600060208284031215611a6a57600080fd5b6000611a788482850161199b565b91505092915050565b60008060408385031215611a9457600080fd5b6000611aa28582860161199b565b9250506020611ab38582860161199b565b9150509250929050565b600080600060608486031215611ad257600080fd5b6000611ae08682870161199b565b9350506020611af18682870161199b565b9250506040611b0286828701611a43565b9150509250925092565b60008060008060808587031215611b2257600080fd5b6000611b308782880161199b565b9450506020611b418782880161199b565b9350506040611b5287828801611a43565b925050606085013567ffffffffffffffff811115611b6f57600080fd5b611b7b878288016119ef565b91505092959194509250565b60008060408385031215611b9a57600080fd5b6000611ba88582860161199b565b9250506020611bb9858286016119b0565b9150509250929050565b60008060408385031215611bd657600080fd5b6000611be48582860161199b565b925050602083013567ffffffffffffffff811115611c0157600080fd5b611c0d85828601611a19565b9150509250929050565b60008060408385031215611c2a57600080fd5b6000611c388582860161199b565b9250506020611c4985828601611a43565b9150509250929050565b600060208284031215611c6557600080fd5b6000611c73848285016119c5565b91505092915050565b600060208284031215611c8e57600080fd5b6000611c9c848285016119da565b91505092915050565b600060208284031215611cb757600080fd5b6000611cc584828501611a43565b91505092915050565b611cd781612436565b82525050565b611ce681612448565b82525050565b6000611cf782612338565b611d01818561234e565b9350611d118185602086016124b9565b611d1a81612685565b840191505092915050565b6000611d3082612343565b611d3a818561235f565b9350611d4a8185602086016124b9565b611d5381612685565b840191505092915050565b6000611d6982612343565b611d738185612370565b9350611d838185602086016124b9565b80840191505092915050565b6000611d9c60328361235f565b9150611da782612696565b604082019050919050565b6000611dbf601c8361235f565b9150611dca826126e5565b602082019050919050565b6000611de260248361235f565b9150611ded8261270e565b604082019050919050565b6000611e0560198361235f565b9150611e108261275d565b602082019050919050565b6000611e28602c8361235f565b9150611e3382612786565b604082019050919050565b6000611e4b60388361235f565b9150611e56826127d5565b604082019050919050565b6000611e6e602a8361235f565b9150611e7982612824565b604082019050919050565b6000611e9160298361235f565b9150611e9c82612873565b604082019050919050565b6000611eb4602e8361235f565b9150611ebf826128c2565b604082019050919050565b6000611ed760208361235f565b9150611ee282612911565b602082019050919050565b6000611efa60318361235f565b9150611f058261293a565b604082019050919050565b6000611f1d602c8361235f565b9150611f2882612989565b604082019050919050565b6000611f4060298361235f565b9150611f4b826129d8565b604082019050919050565b6000611f63602f8361235f565b9150611f6e82612a27565b604082019050919050565b6000611f8660218361235f565b9150611f9182612a76565b604082019050919050565b6000611fa960318361235f565b9150611fb482612ac5565b604082019050919050565b611fc8816124a0565b82525050565b6000611fda8285611d5e565b9150611fe68284611d5e565b91508190509392505050565b60006020820190506120076000830184611cce565b92915050565b60006080820190506120226000830187611cce565b61202f6020830186611cce565b61203c6040830185611fbf565b818103606083015261204e8184611cec565b905095945050505050565b600060208201905061206e6000830184611cdd565b92915050565b6000602082019050818103600083015261208e8184611d25565b905092915050565b600060208201905081810360008301526120af81611d8f565b9050919050565b600060208201905081810360008301526120cf81611db2565b9050919050565b600060208201905081810360008301526120ef81611dd5565b9050919050565b6000602082019050818103600083015261210f81611df8565b9050919050565b6000602082019050818103600083015261212f81611e1b565b9050919050565b6000602082019050818103600083015261214f81611e3e565b9050919050565b6000602082019050818103600083015261216f81611e61565b9050919050565b6000602082019050818103600083015261218f81611e84565b9050919050565b600060208201905081810360008301526121af81611ea7565b9050919050565b600060208201905081810360008301526121cf81611eca565b9050919050565b600060208201905081810360008301526121ef81611eed565b9050919050565b6000602082019050818103600083015261220f81611f10565b9050919050565b6000602082019050818103600083015261222f81611f33565b9050919050565b6000602082019050818103600083015261224f81611f56565b9050919050565b6000602082019050818103600083015261226f81611f79565b9050919050565b6000602082019050818103600083015261228f81611f9c565b9050919050565b60006020820190506122ab6000830184611fbf565b92915050565b60006122bb6122cc565b90506122c7828261251e565b919050565b6000604051905090565b600067ffffffffffffffff8211156122f1576122f0612656565b5b6122fa82612685565b9050602081019050919050565b600067ffffffffffffffff82111561232257612321612656565b5b61232b82612685565b9050602081019050919050565b600081519050919050565b600081519050919050565b600082825260208201905092915050565b600082825260208201905092915050565b600081905092915050565b6000612386826124a0565b9150612391836124a0565b9250827fffffffffffffffffffffffffffffffffffffffffffffffffffffffffffffffff038211156123c6576123c56125c9565b5b828201905092915050565b60006123dc826124a0565b91506123e7836124a0565b9250826123f7576123f66125f8565b5b828204905092915050565b600061240d826124a0565b9150612418836124a0565b92508282101561242b5761242a6125c9565b5b828203905092915050565b600061244182612480565b9050919050565b60008115159050919050565b60007fffffffff0000000000000000000000000000000000000000000000000000000082169050919050565b600073ffffffffffffffffffffffffffffffffffffffff82169050919050565b6000819050919050565b82818337600083830152505050565b60005b838110156124d75780820151818401526020810190506124bc565b838111156124e6576000848401525b50505050565b6000600282049050600182168061250457607f821691505b6020821081141561251857612517612627565b5b50919050565b61252782612685565b810181811067ffffffffffffffff8211171561254657612545612656565b5b80604052505050565b600061255a826124a0565b91507fffffffffffffffffffffffffffffffffffffffffffffffffffffffffffffffff82141561258d5761258c6125c9565b5b600182019050919050565b60006125a3826124a0565b91506125ae836124a0565b9250826125be576125bd6125f8565b5b828206905092915050565b7f4e487b7100000000000000000000000000000000000000000000000000000000600052601160045260246000fd5b7f4e487b7100000000000000000000000000000000000000000000000000000000600052601260045260246000fd5b7f4e487b7100000000000000000000000000000000000000000000000000000000600052602260045260246000fd5b7f4e487b7100000000000000000000000000000000000000000000000000000000600052604160045260246000fd5b6000601f19601f8301169050919050565b7f4552433732313a207472616e7366657220746f206e6f6e20455243373231526560008201527f63656976657220696d706c656d656e7465720000000000000000000000000000602082015250565b7f4552433732313a20746f6b656e20616c7265616479206d696e74656400000000600082015250565b7f4552433732313a207472616e7366657220746f20746865207a65726f2061646460008201527f7265737300000000000000000000000000000000000000000000000000000000602082015250565b7f4552433732313a20617070726f766520746f2063616c6c657200000000000000600082015250565b7f4552433732313a206f70657261746f7220717565727920666f72206e6f6e657860008201527f697374656e7420746f6b656e0000000000000000000000000000000000000000602082015250565b7f4552433732313a20617070726f76652063616c6c6572206973206e6f74206f7760008201527f6e6572206e6f7220617070726f76656420666f7220616c6c0000000000000000602082015250565b7f4552433732313a2062616c616e636520717565727920666f7220746865207a6560008201527f726f206164647265737300000000000000000000000000000000000000000000602082015250565b7f4552433732313a206f776e657220717565727920666f72206e6f6e657869737460008201527f656e7420746f6b656e0000000000000000000000000000000000000000000000602082015250565b7f45524337323155524953746f726167653a2055524920736574206f66206e6f6e60008201527f6578697374656e7420746f6b656e000000000000000000000000000000000000602082015250565b7f4552433732313a206d696e7420746f20746865207a65726f2061646472657373600082015250565b7f45524337323155524953746f726167653a2055524920717565727920666f722060008201527f6e6f6e6578697374656e7420746f6b656e000000000000000000000000000000602082015250565b7f4552433732313a20617070726f76656420717565727920666f72206e6f6e657860008201527f697374656e7420746f6b656e0000000000000000000000000000000000000000602082015250565b7f4552433732313a207472616e73666572206f6620746f6b656e2074686174206960008201527f73206e6f74206f776e0000000000000000000000000000000000000000000000602082015250565b7f4552433732314d657461646174613a2055524920717565727920666f72206e6f60008201527f6e6578697374656e7420746f6b656e0000000000000000000000000000000000602082015250565b7f4552433732313a20617070726f76616c20746f2063757272656e74206f776e6560008201527f7200000000000000000000000000000000000000000000000000000000000000602082015250565b7f4552433732313a207472616e736665722063616c6c6572206973206e6f74206f60008201527f776e6572206e6f7220617070726f766564000000000000000000000000000000602082015250565b612b1d81612436565b8114612b2857600080fd5b50565b612b3481612448565b8114612b3f57600080fd5b50565b612b4b81612454565b8114612b5657600080fd5b50565b612b62816124a0565b8114612b6d57600080fd5b5056fea26469706673582212209c893b439441456dda168e14150e15e1b3f606e8119e9b937b4aacc5948c7b9a64736f6c63430008010033",
  "immutableReferences": {},
  "source": "// SPDX-License-Identifier: MIT\npragma solidity ^0.8.0;\n\nimport \"@openzeppelin/contracts/token/ERC721/extensions/ERC721URIStorage.sol\";\nimport \"@openzeppelin/contracts/utils/Counters.sol\";\n\ncontract GrootErc721 is ERC721URIStorage {\n  using Counters for Counters.Counter;\n  Counters.Counter private _tokenIds;\n\n  uint256 newItemId;\n\n  constructor() ERC721(\"Groot\",\"GO\"){}\n\n  function awardItem(address recipient, string memory metadata)\n  public\n  returns (uint256)\n  {\n    _tokenIds.increment();\n    newItemId = _tokenIds.current();\n    _mint(recipient,newItemId);\n    _setTokenURI(newItemId,metadata);\n    return newItemId;\n  }\n\n  function getTokenId() public view returns(uint256){\n    return newItemId;\n  }\n}",
  "sourcePath": "/Users/mauriziocapone/Desktop/nftmarketplaceapp/contracts/NFT/GrootErc721.sol",
  "compiler": {
    "name": "solc",
    "version": "0.8.1+commit.df193b15.Emscripten.clang"
  },
  "schemaVersion": "3.4.1",
  "updatedAt": "2021-09-14T10:20:26.769Z",
  "networkType": "ethereum",
  "devdoc": {
    "kind": "dev",
    "methods": {
      "approve(address,uint256)": {
        "details": "See {IERC721-approve}."
      },
      "balanceOf(address)": {
        "details": "See {IERC721-balanceOf}."
      },
      "getApproved(uint256)": {
        "details": "See {IERC721-getApproved}."
      },
      "isApprovedForAll(address,address)": {
        "details": "See {IERC721-isApprovedForAll}."
      },
      "name()": {
        "details": "See {IERC721Metadata-name}."
      },
      "ownerOf(uint256)": {
        "details": "See {IERC721-ownerOf}."
      },
      "safeTransferFrom(address,address,uint256)": {
        "details": "See {IERC721-safeTransferFrom}."
      },
      "safeTransferFrom(address,address,uint256,bytes)": {
        "details": "See {IERC721-safeTransferFrom}."
      },
      "setApprovalForAll(address,bool)": {
        "details": "See {IERC721-setApprovalForAll}."
      },
      "supportsInterface(bytes4)": {
        "details": "See {IERC165-supportsInterface}."
      },
      "symbol()": {
        "details": "See {IERC721Metadata-symbol}."
      },
      "tokenURI(uint256)": {
        "details": "See {IERC721Metadata-tokenURI}."
      },
      "transferFrom(address,address,uint256)": {
        "details": "See {IERC721-transferFrom}."
      }
    },
    "version": 1
  },
  "userdoc": {
    "kind": "user",
    "methods": {},
    "version": 1
  }
}