{
  "contractName": "NftMarket",
  "abi": [
    {
      "inputs": [
        {
          "internalType": "contract IERC20",
          "name": "_auctionToken",
          "type": "address"
        },
        {
          "internalType": "contract ERC721",
          "name": "_superman",
          "type": "address"
        },
        {
          "internalType": "contract ERC721",
          "name": "_deadpool",
          "type": "address"
        },
        {
          "internalType": "contract ERC721",
          "name": "_hulk",
          "type": "address"
        }
      ],
      "stateMutability": "nonpayable",
      "type": "constructor"
    },
    {
      "anonymous": false,
      "inputs": [
        {
          "indexed": true,
          "internalType": "address",
          "name": "highestBidder",
          "type": "address"
        },
        {
          "indexed": false,
          "internalType": "uint256",
          "name": "highestBid",
          "type": "uint256"
        }
      ],
      "name": "BidEvent",
      "type": "event"
    },
    {
      "anonymous": false,
      "inputs": [
        {
          "indexed": false,
          "internalType": "string",
          "name": "message",
          "type": "string"
        },
        {
          "indexed": false,
          "internalType": "uint256",
          "name": "time",
          "type": "uint256"
        }
      ],
      "name": "CanceledEvent",
      "type": "event"
    },
    {
      "anonymous": false,
      "inputs": [
        {
          "indexed": false,
          "internalType": "address",
          "name": "from",
          "type": "address"
        },
        {
          "indexed": false,
          "internalType": "address",
          "name": "to",
          "type": "address"
        },
        {
          "indexed": false,
          "internalType": "uint256",
          "name": "amount",
          "type": "uint256"
        }
      ],
      "name": "Sent",
      "type": "event"
    },
    {
      "anonymous": false,
      "inputs": [
        {
          "indexed": false,
          "internalType": "address",
          "name": "withdrawer",
          "type": "address"
        },
        {
          "indexed": false,
          "internalType": "uint256",
          "name": "NftTokenURI",
          "type": "uint256"
        }
      ],
      "name": "WithdrawalEvent",
      "type": "event"
    },
    {
      "anonymous": false,
      "inputs": [
        {
          "indexed": false,
          "internalType": "uint256",
          "name": "amount",
          "type": "uint256"
        },
        {
          "indexed": false,
          "internalType": "uint256",
          "name": "time",
          "type": "uint256"
        }
      ],
      "name": "startEvent",
      "type": "event"
    },
    {
      "inputs": [],
      "name": "STATE",
      "outputs": [
        {
          "internalType": "enum NftMarket.auction_state",
          "name": "",
          "type": "uint8"
        }
      ],
      "stateMutability": "view",
      "type": "function",
      "constant": true
    },
    {
      "inputs": [],
      "name": "auction_end",
      "outputs": [
        {
          "internalType": "uint256",
          "name": "",
          "type": "uint256"
        }
      ],
      "stateMutability": "view",
      "type": "function",
      "constant": true
    },
    {
      "inputs": [],
      "name": "auction_owner",
      "outputs": [
        {
          "internalType": "address",
          "name": "",
          "type": "address"
        }
      ],
      "stateMutability": "view",
      "type": "function",
      "constant": true
    },
    {
      "inputs": [],
      "name": "auction_start",
      "outputs": [
        {
          "internalType": "uint256",
          "name": "",
          "type": "uint256"
        }
      ],
      "stateMutability": "view",
      "type": "function",
      "constant": true
    },
    {
      "inputs": [
        {
          "internalType": "address",
          "name": "",
          "type": "address"
        }
      ],
      "name": "bids",
      "outputs": [
        {
          "internalType": "uint256",
          "name": "",
          "type": "uint256"
        }
      ],
      "stateMutability": "view",
      "type": "function",
      "constant": true
    },
    {
      "inputs": [],
      "name": "deadpoolErc721",
      "outputs": [
        {
          "internalType": "contract ERC721",
          "name": "",
          "type": "address"
        }
      ],
      "stateMutability": "view",
      "type": "function",
      "constant": true
    },
    {
      "inputs": [],
      "name": "highestBid",
      "outputs": [
        {
          "internalType": "uint256",
          "name": "",
          "type": "uint256"
        }
      ],
      "stateMutability": "view",
      "type": "function",
      "constant": true
    },
    {
      "inputs": [],
      "name": "highestBidder",
      "outputs": [
        {
          "internalType": "address",
          "name": "",
          "type": "address"
        }
      ],
      "stateMutability": "view",
      "type": "function",
      "constant": true
    },
    {
      "inputs": [],
      "name": "hulkErc721",
      "outputs": [
        {
          "internalType": "contract ERC721",
          "name": "",
          "type": "address"
        }
      ],
      "stateMutability": "view",
      "type": "function",
      "constant": true
    },
    {
      "inputs": [],
      "name": "startingBid",
      "outputs": [
        {
          "internalType": "uint256",
          "name": "",
          "type": "uint256"
        }
      ],
      "stateMutability": "view",
      "type": "function",
      "constant": true
    },
    {
      "inputs": [],
      "name": "supermanErc721",
      "outputs": [
        {
          "internalType": "contract ERC721",
          "name": "",
          "type": "address"
        }
      ],
      "stateMutability": "view",
      "type": "function",
      "constant": true
    },
    {
      "inputs": [],
      "name": "token",
      "outputs": [
        {
          "internalType": "contract IERC20",
          "name": "",
          "type": "address"
        }
      ],
      "stateMutability": "view",
      "type": "function",
      "constant": true
    },
    {
      "inputs": [
        {
          "internalType": "uint256",
          "name": "amount",
          "type": "uint256"
        },
        {
          "internalType": "uint256",
          "name": "time",
          "type": "uint256"
        }
      ],
      "name": "startAuction",
      "outputs": [
        {
          "internalType": "bool",
          "name": "",
          "type": "bool"
        }
      ],
      "stateMutability": "nonpayable",
      "type": "function"
    },
    {
      "inputs": [
        {
          "internalType": "uint256",
          "name": "amount",
          "type": "uint256"
        }
      ],
      "name": "bid",
      "outputs": [],
      "stateMutability": "nonpayable",
      "type": "function"
    },
    {
      "inputs": [],
      "name": "cancel_auction",
      "outputs": [
        {
          "internalType": "bool",
          "name": "",
          "type": "bool"
        }
      ],
      "stateMutability": "nonpayable",
      "type": "function"
    },
    {
      "inputs": [],
      "name": "ownedERC721",
      "outputs": [
        {
          "internalType": "uint256[]",
          "name": "",
          "type": "uint256[]"
        }
      ],
      "stateMutability": "view",
      "type": "function",
      "constant": true
    }
  ],
  "bytecode": "0x60806040523480156200001157600080fd5b5060405162001355380380620013558339818101604052810190620000379190620001b3565b83600660006101000a81548173ffffffffffffffffffffffffffffffffffffffff021916908373ffffffffffffffffffffffffffffffffffffffff16021790555082600860006101000a81548173ffffffffffffffffffffffffffffffffffffffff021916908373ffffffffffffffffffffffffffffffffffffffff16021790555081600760006101000a81548173ffffffffffffffffffffffffffffffffffffffff021916908373ffffffffffffffffffffffffffffffffffffffff16021790555080600960006101000a81548173ffffffffffffffffffffffffffffffffffffffff021916908373ffffffffffffffffffffffffffffffffffffffff160217905550336000806101000a81548173ffffffffffffffffffffffffffffffffffffffff021916908373ffffffffffffffffffffffffffffffffffffffff16021790555050505050620002af565b60008151905062000196816200027b565b92915050565b600081519050620001ad8162000295565b92915050565b60008060008060808587031215620001ca57600080fd5b6000620001da878288016200019c565b9450506020620001ed8782880162000185565b9350506040620002008782880162000185565b9250506060620002138782880162000185565b91505092959194509250565b60006200022c826200025b565b9050919050565b600062000240826200021f565b9050919050565b600062000254826200021f565b9050919050565b600073ffffffffffffffffffffffffffffffffffffffff82169050919050565b620002868162000233565b81146200029257600080fd5b50565b620002a08162000247565b8114620002ac57600080fd5b50565b61109680620002bf6000396000f3fe608060405234801561001057600080fd5b50600436106101005760003560e01c806391f9015711610097578063c486456c11610066578063c486456c1461028f578063d57bde79146102ad578063e020bf1e146102cb578063fc0c546a146102e957610100565b806391f90157146102175780639fb2b22e14610235578063b9fdd56914610253578063c458b65a1461027157610100565b80634fee13fc116100d35780634fee13fc1461017b57806362ea82db146101ab57806378f45340146101db5780638a8e509f146101f957610100565b8063089cfc0214610105578063106e1add146101235780633ba88ca114610141578063454a2ab31461015f575b600080fd5b61010d610307565b60405161011a9190610cd6565b60405180910390f35b61012b61032d565b6040516101389190610cd6565b60405180910390f35b610149610353565b6040516101569190610cbb565b60405180910390f35b61017960048036038101906101749190610a9a565b61044c565b005b61019560048036038101906101909190610ac3565b610818565b6040516101a29190610cbb565b60405180910390f35b6101c560048036038101906101c09190610a48565b61092b565b6040516101d29190610d95565b60405180910390f35b6101e3610943565b6040516101f09190610d95565b60405180910390f35b610201610949565b60405161020e9190610cd6565b60405180910390f35b61021f61096f565b60405161022c9190610c47565b60405180910390f35b61023d610995565b60405161024a9190610c99565b60405180910390f35b61025b61099a565b6040516102689190610d95565b60405180910390f35b6102796109a0565b6040516102869190610d95565b60405180910390f35b6102976109a6565b6040516102a49190610d0c565b60405180910390f35b6102b56109b9565b6040516102c29190610d95565b60405180910390f35b6102d36109bf565b6040516102e09190610c47565b60405180910390f35b6102f16109e3565b6040516102fe9190610cf1565b60405180910390f35b600860009054906101000a900473ffffffffffffffffffffffffffffffffffffffff1681565b600760009054906101000a900473ffffffffffffffffffffffffffffffffffffffff1681565b60008060009054906101000a900473ffffffffffffffffffffffffffffffffffffffff1673ffffffffffffffffffffffffffffffffffffffff163373ffffffffffffffffffffffffffffffffffffffff16146103ae57600080fd5b6002544211156103bd57600080fd5b6000600d60006101000a81548160ff02191690836001811115610409577f4e487b7100000000000000000000000000000000000000000000000000000000600052602160045260246000fd5b02179055507f06b08932edfa95ecf10e18f8e389c58332551bbfe5faf843ed9afb329fd141184260405161043d9190610d67565b60405180910390a16001905090565b6003548111610490576040517f08c379a000000000000000000000000000000000000000000000000000000000815260040161048790610d47565b60405180910390fd5b60008054906101000a900473ffffffffffffffffffffffffffffffffffffffff1673ffffffffffffffffffffffffffffffffffffffff163373ffffffffffffffffffffffffffffffffffffffff16141561051f576040517f08c379a000000000000000000000000000000000000000000000000000000000815260040161051690610d27565b60405180910390fd5b600060035414610665576000600c6000600460009054906101000a900473ffffffffffffffffffffffffffffffffffffffff1673ffffffffffffffffffffffffffffffffffffffff1673ffffffffffffffffffffffffffffffffffffffff168152602001908152602001600020549050600660009054906101000a900473ffffffffffffffffffffffffffffffffffffffff1673ffffffffffffffffffffffffffffffffffffffff166323b872dd30600460009054906101000a900473ffffffffffffffffffffffffffffffffffffffff16846040518463ffffffff1660e01b815260040161061093929190610c62565b602060405180830381600087803b15801561062a57600080fd5b505af115801561063e573d6000803e3d6000fd5b505050506040513d601f19601f820116820180604052508101906106629190610a71565b50505b33600460006101000a81548173ffffffffffffffffffffffffffffffffffffffff021916908373ffffffffffffffffffffffffffffffffffffffff1602179055508060038190555080600c60003373ffffffffffffffffffffffffffffffffffffffff1673ffffffffffffffffffffffffffffffffffffffff16815260200190815260200160002081905550600660009054906101000a900473ffffffffffffffffffffffffffffffffffffffff1673ffffffffffffffffffffffffffffffffffffffff166323b872dd3330846040518463ffffffff1660e01b815260040161075093929190610c62565b602060405180830381600087803b15801561076a57600080fd5b505af115801561077e573d6000803e3d6000fd5b505050506040513d601f19601f820116820180604052508101906107a29190610a71565b50600460009054906101000a900473ffffffffffffffffffffffffffffffffffffffff1673ffffffffffffffffffffffffffffffffffffffff167f0d993d4f8a84158f5329713d6d13ef54e77b325040c887c8b3e565cfd0cd3e2160035460405161080d9190610d95565b60405180910390a250565b60008060009054906101000a900473ffffffffffffffffffffffffffffffffffffffff1673ffffffffffffffffffffffffffffffffffffffff163373ffffffffffffffffffffffffffffffffffffffff161461087357600080fd5b82600581905550426001819055508160015461088f9190610e23565b6002819055506001600d60006101000a81548160ff021916908360018111156108e1577f4e487b7100000000000000000000000000000000000000000000000000000000600052602160045260246000fd5b02179055507f856a55cfc8801cd05c4d93396793d5f98fb44cd62c10aa8ea525da43465cae1583600154604051610919929190610db0565b60405180910390a16001905092915050565b600c6020528060005260406000206000915090505481565b60015481565b600960009054906101000a900473ffffffffffffffffffffffffffffffffffffffff1681565b600460009054906101000a900473ffffffffffffffffffffffffffffffffffffffff1681565b606090565b60055481565b60025481565b600d60009054906101000a900460ff1681565b60035481565b60008054906101000a900473ffffffffffffffffffffffffffffffffffffffff1681565b600660009054906101000a900473ffffffffffffffffffffffffffffffffffffffff1681565b600081359050610a188161101b565b92915050565b600081519050610a2d81611032565b92915050565b600081359050610a4281611049565b92915050565b600060208284031215610a5a57600080fd5b6000610a6884828501610a09565b91505092915050565b600060208284031215610a8357600080fd5b6000610a9184828501610a1e565b91505092915050565b600060208284031215610aac57600080fd5b6000610aba84828501610a33565b91505092915050565b60008060408385031215610ad657600080fd5b6000610ae485828601610a33565b9250506020610af585828601610a33565b9150509250929050565b6000610b0b8383610c29565b60208301905092915050565b610b2081610e79565b82525050565b6000610b3182610de9565b610b3b8185610e01565b9350610b4683610dd9565b8060005b83811015610b77578151610b5e8882610aff565b9750610b6983610df4565b925050600181019050610b4a565b5085935050505092915050565b610b8d81610e8b565b82525050565b610b9c81610ed4565b82525050565b610bab81610ef8565b82525050565b610bba81610f1c565b82525050565b6000610bcd600f83610e12565b9150610bd882610f8c565b602082019050919050565b6000610bf0602083610e12565b9150610bfb82610fb5565b602082019050919050565b6000610c13601183610e12565b9150610c1e82610fde565b602082019050919050565b610c3281610eca565b82525050565b610c4181610eca565b82525050565b6000602082019050610c5c6000830184610b17565b92915050565b6000606082019050610c776000830186610b17565b610c846020830185610b17565b610c916040830184610c38565b949350505050565b60006020820190508181036000830152610cb38184610b26565b905092915050565b6000602082019050610cd06000830184610b84565b92915050565b6000602082019050610ceb6000830184610b93565b92915050565b6000602082019050610d066000830184610ba2565b92915050565b6000602082019050610d216000830184610bb1565b92915050565b60006020820190508181036000830152610d4081610bc0565b9050919050565b60006020820190508181036000830152610d6081610be3565b9050919050565b60006040820190508181036000830152610d8081610c06565b9050610d8f6020830184610c38565b92915050565b6000602082019050610daa6000830184610c38565b92915050565b6000604082019050610dc56000830185610c38565b610dd26020830184610c38565b9392505050565b6000819050602082019050919050565b600081519050919050565b6000602082019050919050565b600082825260208201905092915050565b600082825260208201905092915050565b6000610e2e82610eca565b9150610e3983610eca565b9250827fffffffffffffffffffffffffffffffffffffffffffffffffffffffffffffffff03821115610e6e57610e6d610f2e565b5b828201905092915050565b6000610e8482610eaa565b9050919050565b60008115159050919050565b6000819050610ea582611007565b919050565b600073ffffffffffffffffffffffffffffffffffffffff82169050919050565b6000819050919050565b6000610edf82610ee6565b9050919050565b6000610ef182610eaa565b9050919050565b6000610f0382610f0a565b9050919050565b6000610f1582610eaa565b9050919050565b6000610f2782610e97565b9050919050565b7f4e487b7100000000000000000000000000000000000000000000000000000000600052601160045260246000fd5b7f4e487b7100000000000000000000000000000000000000000000000000000000600052602160045260246000fd5b7f4f776e65722063616e2774206269640000000000000000000000000000000000600082015250565b7f596f752063616e2774206269642c204d616b6520612068696768657220426964600082015250565b7f41756374696f6e2043616e63656c6c6564000000000000000000000000000000600082015250565b6002811061101857611017610f5d565b5b50565b61102481610e79565b811461102f57600080fd5b50565b61103b81610e8b565b811461104657600080fd5b50565b61105281610eca565b811461105d57600080fd5b5056fea26469706673582212205fe1d2249120a3740338f0979a95e6b0f1cc9a13c605ecd975c80377ee0c8ac164736f6c63430008010033",
  "immutableReferences": {},
  "source": "// SPDX-License-Identifier: MIT\npragma solidity ^0.8.0;\n\nimport './AuctionToken.sol';\nimport './DeadpoolErc721.sol';\nimport './SupermanErc721.sol';\nimport './HulkErc721.sol';\n\n\ncontract NftMarket {\n    \n    address public auction_owner;\n    uint256 public auction_start;\n    uint256 public auction_end;\n    uint256 public highestBid;\n    address public highestBidder;\n    uint256 public startingBid;\n\n    IERC20 public token;\n    ERC721 public deadpoolErc721;\n    ERC721 public supermanErc721;\n    ERC721 public hulkErc721;\n\n    enum auction_state{\n        CANCELLED,STARTED\n    }\n\n    address[] bidders;\n    mapping(address => uint) private balances;\n    mapping(address => uint) public bids;\n\n    auction_state public STATE;\n\n\n    modifier an_ongoing_auction(){ // controlla se l'asta  ancora aperta\n        require(block.timestamp <= auction_end);\n        _;\n    }\n    \n    modifier only_owner(){ // solo owner\n        require(msg.sender==auction_owner);\n        _;\n    }\n    \n    event startEvent(uint256 amount, uint time);\n    event BidEvent(address indexed highestBidder, uint256 highestBid); //  \n    event WithdrawalEvent(address withdrawer, uint256 NftTokenURI); // termina l'asta\n    event CanceledEvent(string message, uint256 time);  // annulla l'asta\n    event Sent(address from, address to, uint amount);\n    \n  \n    constructor (\n            IERC20 _auctionToken,\n            ERC721 _superman,\n            ERC721 _deadpool,\n            ERC721 _hulk\n    )\n    {\n            token = _auctionToken;\n            supermanErc721 = _superman;\n            deadpoolErc721 = _deadpool;\n            hulkErc721 = _hulk;\n            auction_owner = msg.sender;\n    }\n\n    function startAuction(uint256 amount, uint time) external only_owner returns(bool){\n        startingBid = amount;\n        auction_start = block.timestamp;\n        auction_end = auction_start + time;\n        STATE=auction_state.STARTED;\n        emit startEvent(amount,auction_start);\n        return true;\n    }\n \n\n    function bid(uint256 amount) external {\n      \n        require(amount > highestBid,\"You can't bid, Make a higher Bid\");\n        require(msg.sender != auction_owner, \"Owner can't bid\");\n        if(highestBid != 0){\n            uint256 refund = bids[highestBidder];\n            token.transferFrom(address(this),highestBidder,refund);\n        }\n        highestBidder = msg.sender;\n        highestBid = amount;\n        bids[msg.sender] = amount;\n        token.transferFrom(msg.sender,address(this),amount);\n        emit BidEvent(highestBidder,highestBid);\n    }\n  \n    function cancel_auction() external only_owner  an_ongoing_auction returns (bool){\n    \n        STATE=auction_state.CANCELLED;\n        emit CanceledEvent(\"Auction Cancelled\", block.timestamp);\n        return true;\n    }\n    \n    /*\n    function withdraw() public only_owner {\n        require(block.timestamp > auction_end ,\"You can't withdraw, the auction is still open\");\n        //uint256 tokenId = nft.getTokenId();\n        //collectible.approve(highestBidder,tokenId);\n        //collectible.safeTransferFrom(auction_owner,highestBidder,tokenId);\n        \n        //emit WithdrawalEvent(msg.sender,tokenId); \n    }*/\n\n    function ownedERC721() external view returns(uint256[]memory){\n        \n\n    }\n}\n",
  "sourcePath": "/Users/mauriziocapone/Desktop/nftmarketplaceapp/contracts/NftMarket.sol",
  "compiler": {
    "name": "solc",
    "version": "0.8.1+commit.df193b15.Emscripten.clang"
  },
  "schemaVersion": "3.4.1",
  "updatedAt": "2021-07-17T15:25:09.567Z",
  "networkType": "ethereum",
  "devdoc": {
    "kind": "dev",
    "methods": {},
    "version": 1
  },
  "userdoc": {
    "kind": "user",
    "methods": {},
    "version": 1
  }
}