{
  "contractName": "NftMarket",
  "abi": [
    {
      "inputs": [
        {
          "internalType": "uint256",
          "name": "amount",
          "type": "uint256"
        },
        {
          "internalType": "uint256",
          "name": "time",
          "type": "uint256"
        },
        {
          "internalType": "contract ERC721",
          "name": "_nftContract",
          "type": "address"
        },
        {
          "internalType": "contract ERC20",
          "name": "_tokenContract",
          "type": "address"
        },
        {
          "internalType": "uint256",
          "name": "erc721Id",
          "type": "uint256"
        }
      ],
      "stateMutability": "nonpayable",
      "type": "constructor"
    },
    {
      "anonymous": false,
      "inputs": [
        {
          "indexed": true,
          "internalType": "address",
          "name": "highestBidder",
          "type": "address"
        },
        {
          "indexed": false,
          "internalType": "uint256",
          "name": "highestBid",
          "type": "uint256"
        }
      ],
      "name": "BidEvent",
      "type": "event"
    },
    {
      "anonymous": false,
      "inputs": [
        {
          "indexed": false,
          "internalType": "string",
          "name": "message",
          "type": "string"
        },
        {
          "indexed": false,
          "internalType": "uint256",
          "name": "time",
          "type": "uint256"
        }
      ],
      "name": "CanceledEvent",
      "type": "event"
    },
    {
      "anonymous": false,
      "inputs": [
        {
          "indexed": false,
          "internalType": "address",
          "name": "to",
          "type": "address"
        },
        {
          "indexed": false,
          "internalType": "uint256",
          "name": "amount",
          "type": "uint256"
        }
      ],
      "name": "ERC20Transfer",
      "type": "event"
    },
    {
      "anonymous": false,
      "inputs": [
        {
          "indexed": false,
          "internalType": "address",
          "name": "to",
          "type": "address"
        },
        {
          "indexed": false,
          "internalType": "uint256",
          "name": "token",
          "type": "uint256"
        }
      ],
      "name": "ERC721Transfer",
      "type": "event"
    },
    {
      "anonymous": false,
      "inputs": [
        {
          "indexed": false,
          "internalType": "address",
          "name": "from",
          "type": "address"
        },
        {
          "indexed": false,
          "internalType": "address",
          "name": "to",
          "type": "address"
        },
        {
          "indexed": false,
          "internalType": "uint256",
          "name": "amount",
          "type": "uint256"
        }
      ],
      "name": "Sent",
      "type": "event"
    },
    {
      "anonymous": false,
      "inputs": [
        {
          "indexed": false,
          "internalType": "address",
          "name": "withdrawer",
          "type": "address"
        },
        {
          "indexed": false,
          "internalType": "uint256",
          "name": "NftTokenURI",
          "type": "uint256"
        }
      ],
      "name": "WithdrawalEvent",
      "type": "event"
    },
    {
      "anonymous": false,
      "inputs": [
        {
          "indexed": false,
          "internalType": "uint256",
          "name": "amount",
          "type": "uint256"
        },
        {
          "indexed": false,
          "internalType": "uint256",
          "name": "time",
          "type": "uint256"
        }
      ],
      "name": "startEvent",
      "type": "event"
    },
    {
      "inputs": [],
      "name": "STATE",
      "outputs": [
        {
          "internalType": "enum NftMarket.auction_state",
          "name": "",
          "type": "uint8"
        }
      ],
      "stateMutability": "view",
      "type": "function"
    },
    {
      "inputs": [],
      "name": "auction_end",
      "outputs": [
        {
          "internalType": "uint256",
          "name": "",
          "type": "uint256"
        }
      ],
      "stateMutability": "view",
      "type": "function"
    },
    {
      "inputs": [],
      "name": "auction_owner",
      "outputs": [
        {
          "internalType": "address payable",
          "name": "",
          "type": "address"
        }
      ],
      "stateMutability": "view",
      "type": "function"
    },
    {
      "inputs": [],
      "name": "auction_time",
      "outputs": [
        {
          "internalType": "uint256",
          "name": "",
          "type": "uint256"
        }
      ],
      "stateMutability": "view",
      "type": "function"
    },
    {
      "inputs": [
        {
          "internalType": "uint256",
          "name": "",
          "type": "uint256"
        }
      ],
      "name": "bidders",
      "outputs": [
        {
          "internalType": "address",
          "name": "",
          "type": "address"
        }
      ],
      "stateMutability": "view",
      "type": "function"
    },
    {
      "inputs": [],
      "name": "biddersCount",
      "outputs": [
        {
          "internalType": "uint256",
          "name": "",
          "type": "uint256"
        }
      ],
      "stateMutability": "view",
      "type": "function"
    },
    {
      "inputs": [
        {
          "internalType": "address",
          "name": "",
          "type": "address"
        }
      ],
      "name": "bids",
      "outputs": [
        {
          "internalType": "uint256",
          "name": "",
          "type": "uint256"
        }
      ],
      "stateMutability": "view",
      "type": "function"
    },
    {
      "inputs": [],
      "name": "erc721Contract",
      "outputs": [
        {
          "internalType": "contract ERC721",
          "name": "",
          "type": "address"
        }
      ],
      "stateMutability": "view",
      "type": "function"
    },
    {
      "inputs": [],
      "name": "highestBid",
      "outputs": [
        {
          "internalType": "uint256",
          "name": "",
          "type": "uint256"
        }
      ],
      "stateMutability": "view",
      "type": "function"
    },
    {
      "inputs": [],
      "name": "highestBidder",
      "outputs": [
        {
          "internalType": "address",
          "name": "",
          "type": "address"
        }
      ],
      "stateMutability": "view",
      "type": "function"
    },
    {
      "inputs": [
        {
          "internalType": "address",
          "name": "",
          "type": "address"
        }
      ],
      "name": "pendingReturns",
      "outputs": [
        {
          "internalType": "uint256",
          "name": "",
          "type": "uint256"
        }
      ],
      "stateMutability": "view",
      "type": "function"
    },
    {
      "inputs": [],
      "name": "startingBid",
      "outputs": [
        {
          "internalType": "uint256",
          "name": "",
          "type": "uint256"
        }
      ],
      "stateMutability": "view",
      "type": "function"
    },
    {
      "inputs": [],
      "name": "token",
      "outputs": [
        {
          "internalType": "contract IERC20",
          "name": "",
          "type": "address"
        }
      ],
      "stateMutability": "view",
      "type": "function"
    },
    {
      "inputs": [],
      "name": "tokenId",
      "outputs": [
        {
          "internalType": "uint256",
          "name": "",
          "type": "uint256"
        }
      ],
      "stateMutability": "view",
      "type": "function"
    },
    {
      "inputs": [
        {
          "internalType": "uint256",
          "name": "amount",
          "type": "uint256"
        }
      ],
      "name": "bid",
      "outputs": [],
      "stateMutability": "payable",
      "type": "function"
    },
    {
      "inputs": [],
      "name": "cancel_auction",
      "outputs": [
        {
          "internalType": "bool",
          "name": "",
          "type": "bool"
        }
      ],
      "stateMutability": "nonpayable",
      "type": "function"
    },
    {
      "inputs": [
        {
          "internalType": "uint256",
          "name": "id",
          "type": "uint256"
        }
      ],
      "name": "setTokenIdNft",
      "outputs": [
        {
          "internalType": "bool",
          "name": "",
          "type": "bool"
        }
      ],
      "stateMutability": "nonpayable",
      "type": "function"
    },
    {
      "inputs": [],
      "name": "addBidder",
      "outputs": [
        {
          "internalType": "bool",
          "name": "",
          "type": "bool"
        }
      ],
      "stateMutability": "nonpayable",
      "type": "function"
    },
    {
      "inputs": [
        {
          "internalType": "address",
          "name": "addr",
          "type": "address"
        }
      ],
      "name": "checkBidder",
      "outputs": [
        {
          "internalType": "bool",
          "name": "",
          "type": "bool"
        }
      ],
      "stateMutability": "view",
      "type": "function"
    },
    {
      "inputs": [],
      "name": "withdraw",
      "outputs": [],
      "stateMutability": "payable",
      "type": "function"
    },
    {
      "inputs": [],
      "name": "auctionEnd",
      "outputs": [
        {
          "internalType": "bool",
          "name": "",
          "type": "bool"
        }
      ],
      "stateMutability": "payable",
      "type": "function"
    },
    {
      "inputs": [],
      "name": "getWin",
      "outputs": [],
      "stateMutability": "payable",
      "type": "function"
    },
    {
      "inputs": [],
      "name": "resetAuction",
      "outputs": [
        {
          "internalType": "bool",
          "name": "",
          "type": "bool"
        }
      ],
      "stateMutability": "nonpayable",
      "type": "function"
    }
  ],
  "bytecode": "0x60806040526000600a553480156200001657600080fd5b5060405162001e7938038062001e7983398181016040528101906200003c9190620001c9565b336000806101000a81548173ffffffffffffffffffffffffffffffffffffffff021916908373ffffffffffffffffffffffffffffffffffffffff16021790555083600181905550846005819055508060088190555083426200009f91906200024b565b6002819055506001600d60006101000a81548160ff02191690836002811115620000f2577f4e487b7100000000000000000000000000000000000000000000000000000000600052602160045260246000fd5b021790555082600760006101000a81548173ffffffffffffffffffffffffffffffffffffffff021916908373ffffffffffffffffffffffffffffffffffffffff16021790555081600660006101000a81548173ffffffffffffffffffffffffffffffffffffffff021916908373ffffffffffffffffffffffffffffffffffffffff16021790555050505050506200038b565b60008151905062000195816200033d565b92915050565b600081519050620001ac8162000357565b92915050565b600081519050620001c38162000371565b92915050565b600080600080600060a08688031215620001e257600080fd5b6000620001f288828901620001b2565b95505060206200020588828901620001b2565b945050604062000218888289016200019b565b93505060606200022b8882890162000184565b92505060806200023e88828901620001b2565b9150509295509295909350565b6000620002588262000304565b9150620002658362000304565b9250827fffffffffffffffffffffffffffffffffffffffffffffffffffffffffffffffff038211156200029d576200029c6200030e565b5b828201905092915050565b6000620002b582620002e4565b9050919050565b6000620002c982620002a8565b9050919050565b6000620002dd82620002a8565b9050919050565b600073ffffffffffffffffffffffffffffffffffffffff82169050919050565b6000819050919050565b7f4e487b7100000000000000000000000000000000000000000000000000000000600052601160045260246000fd5b6200034881620002bc565b81146200035457600080fd5b50565b6200036281620002d0565b81146200036e57600080fd5b50565b6200037c8162000304565b81146200038857600080fd5b50565b611ade806200039b6000396000f3fe6080604052600436106101405760003560e01c80637d350453116100b6578063d57bde791161006f578063d57bde791461042b578063d6d36b9214610456578063d7c97fb414610460578063e020bf1e1461048b578063eb15cc79146104b6578063fc0c546a146104f357610140565b80637d3504531461031757806391f9015714610342578063b9fdd5691461036d578063c458b65a14610398578063c486456c146103c3578063cff29dfd146103ee57610140565b80633ba88ca1116101085780633ba88ca1146102215780633ccfd60b1461024c578063454a2ab314610256578063519181031461027257806362ea82db146102af5780636ea947b7146102ec57610140565b806317d70f7c146101455780631f8cdb04146101705780632356032d1461019b57806326b387bb146101c65780632a24f46c14610203575b600080fd5b34801561015157600080fd5b5061015a61051e565b6040516101679190611736565b60405180910390f35b34801561017c57600080fd5b50610185610524565b604051610192919061161c565b60405180910390f35b3480156101a757600080fd5b506101b06105a8565b6040516101bd9190611736565b60405180910390f35b3480156101d257600080fd5b506101ed60048036038101906101e8919061135b565b6105ae565b6040516101fa9190611736565b60405180910390f35b61020b6105c6565b604051610218919061161c565b60405180910390f35b34801561022d57600080fd5b5061023661079f565b604051610243919061161c565b60405180910390f35b610254610898565b005b610270600480360381019061026b91906113ad565b610a17565b005b34801561027e57600080fd5b506102996004803603810190610294919061135b565b610e8c565b6040516102a6919061161c565b60405180910390f35b3480156102bb57600080fd5b506102d660048036038101906102d1919061135b565b610f5e565b6040516102e39190611736565b60405180910390f35b3480156102f857600080fd5b50610301610f76565b60405161030e9190611736565b60405180910390f35b34801561032357600080fd5b5061032c610f7c565b604051610339919061161c565b60405180910390f35b34801561034e57600080fd5b5061035761106c565b6040516103649190611526565b60405180910390f35b34801561037957600080fd5b50610382611092565b60405161038f9190611736565b60405180910390f35b3480156103a457600080fd5b506103ad611098565b6040516103ba9190611736565b60405180910390f35b3480156103cf57600080fd5b506103d861109e565b6040516103e5919061166d565b60405180910390f35b3480156103fa57600080fd5b50610415600480360381019061041091906113ad565b6110b1565b6040516104229190611526565b60405180910390f35b34801561043757600080fd5b506104406110f0565b60405161044d9190611736565b60405180910390f35b61045e6110f6565b005b34801561046c57600080fd5b50610475611285565b6040516104829190611637565b60405180910390f35b34801561049757600080fd5b506104a06112ab565b6040516104ad9190611541565b60405180910390f35b3480156104c257600080fd5b506104dd60048036038101906104d891906113ad565b6112cf565b6040516104ea919061161c565b60405180910390f35b3480156104ff57600080fd5b506105086112e1565b6040516105159190611652565b60405180910390f35b60085481565b60006009339080600181540180825580915050600190039060005260206000200160009091909190916101000a81548173ffffffffffffffffffffffffffffffffffffffff021916908373ffffffffffffffffffffffffffffffffffffffff160217905550600a600081548092919061059c906118b5565b91905055506001905090565b600a5481565b600b6020528060005260406000206000915090505481565b6000600254421161060c576040517f08c379a000000000000000000000000000000000000000000000000000000000815260040161060390611688565b60405180910390fd5b6002600d60006101000a81548160ff02191690836002811115610658577f4e487b7100000000000000000000000000000000000000000000000000000000600052602160045260246000fd5b0217905550600760009054906101000a900473ffffffffffffffffffffffffffffffffffffffff1673ffffffffffffffffffffffffffffffffffffffff166323b872dd60008054906101000a900473ffffffffffffffffffffffffffffffffffffffff16600460009054906101000a900473ffffffffffffffffffffffffffffffffffffffff166008546040518463ffffffff1660e01b81526004016107009392919061155c565b600060405180830381600087803b15801561071a57600080fd5b505af115801561072e573d6000803e3d6000fd5b505050507f211b87f8e9320b85590c770a676bf3d5109a5562baf8cfaee8dbf46e34965d85600460009054906101000a900473ffffffffffffffffffffffffffffffffffffffff166008546040516107879291906115f3565b60405180910390a1610797610f7c565b506001905090565b60008060009054906101000a900473ffffffffffffffffffffffffffffffffffffffff1673ffffffffffffffffffffffffffffffffffffffff163373ffffffffffffffffffffffffffffffffffffffff16146107fa57600080fd5b60025442111561080957600080fd5b6000600d60006101000a81548160ff02191690836002811115610855577f4e487b7100000000000000000000000000000000000000000000000000000000600052602160045260246000fd5b02179055507f06b08932edfa95ecf10e18f8e389c58332551bbfe5faf843ed9afb329fd141184260405161088991906116e8565b60405180910390a16001905090565b6000600b60003373ffffffffffffffffffffffffffffffffffffffff1673ffffffffffffffffffffffffffffffffffffffff16815260200190815260200160002054905060008111156109db576000600b60003373ffffffffffffffffffffffffffffffffffffffff1673ffffffffffffffffffffffffffffffffffffffff16815260200190815260200160002081905550600660009054906101000a900473ffffffffffffffffffffffffffffffffffffffff1673ffffffffffffffffffffffffffffffffffffffff1663a9059cbb33836040518363ffffffff1660e01b81526004016109879291906115f3565b602060405180830381600087803b1580156109a157600080fd5b505af11580156109b5573d6000803e3d6000fd5b505050506040513d601f19601f820116820180604052508101906109d99190611384565b505b7f2f174ca282119315c59efaf21147aef438581dabdeb498198ae28964373dd8bc3382604051610a0c9291906115f3565b60405180910390a150565b6003548111610a5b576040517f08c379a0000000000000000000000000000000000000000000000000000000008152600401610a52906116c8565b60405180910390fd5b60008054906101000a900473ffffffffffffffffffffffffffffffffffffffff1673ffffffffffffffffffffffffffffffffffffffff163373ffffffffffffffffffffffffffffffffffffffff161415610aea576040517f08c379a0000000000000000000000000000000000000000000000000000000008152600401610ae1906116a8565b60405180910390fd5b6000600660009054906101000a900473ffffffffffffffffffffffffffffffffffffffff1673ffffffffffffffffffffffffffffffffffffffff166370a08231336040518263ffffffff1660e01b8152600401610b479190611526565b60206040518083038186803b158015610b5f57600080fd5b505afa158015610b73573d6000803e3d6000fd5b505050506040513d601f19601f82011682018060405250810190610b9791906113d6565b905080821115610bdc576040517f08c379a0000000000000000000000000000000000000000000000000000000008152600401610bd390611716565b60405180910390fd5b600060035414610cc6576000600c6000600460009054906101000a900473ffffffffffffffffffffffffffffffffffffffff1673ffffffffffffffffffffffffffffffffffffffff1673ffffffffffffffffffffffffffffffffffffffff16815260200190815260200160002054905080600b6000600460009054906101000a900473ffffffffffffffffffffffffffffffffffffffff1673ffffffffffffffffffffffffffffffffffffffff1673ffffffffffffffffffffffffffffffffffffffff1681526020019081526020016000206000828254610cbd9190611762565b92505081905550505b33600460006101000a81548173ffffffffffffffffffffffffffffffffffffffff021916908373ffffffffffffffffffffffffffffffffffffffff1602179055508160038190555081600c60003373ffffffffffffffffffffffffffffffffffffffff1673ffffffffffffffffffffffffffffffffffffffff1681526020019081526020016000206000828254610d5d9190611762565b92505081905550600660009054906101000a900473ffffffffffffffffffffffffffffffffffffffff1673ffffffffffffffffffffffffffffffffffffffff166323b872dd3330856040518463ffffffff1660e01b8152600401610dc3939291906115bc565b602060405180830381600087803b158015610ddd57600080fd5b505af1158015610df1573d6000803e3d6000fd5b505050506040513d601f19601f82011682018060405250810190610e159190611384565b50600460009054906101000a900473ffffffffffffffffffffffffffffffffffffffff1673ffffffffffffffffffffffffffffffffffffffff167f0d993d4f8a84158f5329713d6d13ef54e77b325040c887c8b3e565cfd0cd3e21600354604051610e809190611736565b60405180910390a25050565b600080600090505b600a54811015610f53578273ffffffffffffffffffffffffffffffffffffffff1660098281548110610eef577f4e487b7100000000000000000000000000000000000000000000000000000000600052603260045260246000fd5b9060005260206000200160009054906101000a900473ffffffffffffffffffffffffffffffffffffffff1673ffffffffffffffffffffffffffffffffffffffff161415610f40576001915050610f59565b8080610f4b906118b5565b915050610e94565b50600090505b919050565b600c6020528060005260406000206000915090505481565b60015481565b6000806002819055506000600581905550600060088190555060005b600a5481101561106457600060098281548110610fde577f4e487b7100000000000000000000000000000000000000000000000000000000600052603260045260246000fd5b9060005260206000200160009054906101000a900473ffffffffffffffffffffffffffffffffffffffff1690506000600c60008373ffffffffffffffffffffffffffffffffffffffff1673ffffffffffffffffffffffffffffffffffffffff1681526020019081526020016000208190555050808061105c906118b5565b915050610f98565b506001905090565b600460009054906101000a900473ffffffffffffffffffffffffffffffffffffffff1681565b60055481565b60025481565b600d60009054906101000a900460ff1681565b600981815481106110c157600080fd5b906000526020600020016000915054906101000a900473ffffffffffffffffffffffffffffffffffffffff1681565b60035481565b60008054906101000a900473ffffffffffffffffffffffffffffffffffffffff1673ffffffffffffffffffffffffffffffffffffffff163373ffffffffffffffffffffffffffffffffffffffff161461114e57600080fd5b600660009054906101000a900473ffffffffffffffffffffffffffffffffffffffff1673ffffffffffffffffffffffffffffffffffffffff1663a9059cbb60008054906101000a900473ffffffffffffffffffffffffffffffffffffffff166003546040518363ffffffff1660e01b81526004016111cd929190611593565b602060405180830381600087803b1580156111e757600080fd5b505af11580156111fb573d6000803e3d6000fd5b505050506040513d601f19601f8201168201806040525081019061121f9190611384565b507f8a6db17277818c22641ce476413923c6f0c25171f0baa68f7b97942f9ae94d8c60008054906101000a900473ffffffffffffffffffffffffffffffffffffffff16600354604051611273929190611593565b60405180910390a16000600381905550565b600760009054906101000a900473ffffffffffffffffffffffffffffffffffffffff1681565b60008054906101000a900473ffffffffffffffffffffffffffffffffffffffff1681565b60008160088190555060019050919050565b600660009054906101000a900473ffffffffffffffffffffffffffffffffffffffff1681565b60008135905061131681611a63565b92915050565b60008151905061132b81611a7a565b92915050565b60008135905061134081611a91565b92915050565b60008151905061135581611a91565b92915050565b60006020828403121561136d57600080fd5b600061137b84828501611307565b91505092915050565b60006020828403121561139657600080fd5b60006113a48482850161131c565b91505092915050565b6000602082840312156113bf57600080fd5b60006113cd84828501611331565b91505092915050565b6000602082840312156113e857600080fd5b60006113f684828501611346565b91505092915050565b61140881611825565b82525050565b611417816117ca565b82525050565b611426816117b8565b82525050565b611435816117dc565b82525050565b61144481611837565b82525050565b6114538161185b565b82525050565b6114628161187f565b82525050565b6000611475602d83611751565b91506114808261195c565b604082019050919050565b6000611498600f83611751565b91506114a3826119ab565b602082019050919050565b60006114bb602083611751565b91506114c6826119d4565b602082019050919050565b60006114de601183611751565b91506114e9826119fd565b602082019050919050565b6000611501601f83611751565b915061150c82611a26565b602082019050919050565b6115208161181b565b82525050565b600060208201905061153b600083018461141d565b92915050565b6000602082019050611556600083018461140e565b92915050565b600060608201905061157160008301866113ff565b61157e602083018561141d565b61158b6040830184611517565b949350505050565b60006040820190506115a860008301856113ff565b6115b56020830184611517565b9392505050565b60006060820190506115d1600083018661141d565b6115de602083018561141d565b6115eb6040830184611517565b949350505050565b6000604082019050611608600083018561141d565b6116156020830184611517565b9392505050565b6000602082019050611631600083018461142c565b92915050565b600060208201905061164c600083018461143b565b92915050565b6000602082019050611667600083018461144a565b92915050565b60006020820190506116826000830184611459565b92915050565b600060208201905081810360008301526116a181611468565b9050919050565b600060208201905081810360008301526116c18161148b565b9050919050565b600060208201905081810360008301526116e1816114ae565b9050919050565b60006040820190508181036000830152611701816114d1565b90506117106020830184611517565b92915050565b6000602082019050818103600083015261172f816114f4565b9050919050565b600060208201905061174b6000830184611517565b92915050565b600082825260208201905092915050565b600061176d8261181b565b91506117788361181b565b9250827fffffffffffffffffffffffffffffffffffffffffffffffffffffffffffffffff038211156117ad576117ac6118fe565b5b828201905092915050565b60006117c3826117fb565b9050919050565b60006117d5826117fb565b9050919050565b60008115159050919050565b60008190506117f682611a4f565b919050565b600073ffffffffffffffffffffffffffffffffffffffff82169050919050565b6000819050919050565b600061183082611891565b9050919050565b600061184282611849565b9050919050565b6000611854826117fb565b9050919050565b60006118668261186d565b9050919050565b6000611878826117fb565b9050919050565b600061188a826117e8565b9050919050565b600061189c826118a3565b9050919050565b60006118ae826117fb565b9050919050565b60006118c08261181b565b91507fffffffffffffffffffffffffffffffffffffffffffffffffffffffffffffffff8214156118f3576118f26118fe565b5b600182019050919050565b7f4e487b7100000000000000000000000000000000000000000000000000000000600052601160045260246000fd5b7f4e487b7100000000000000000000000000000000000000000000000000000000600052602160045260246000fd5b7f596f752063616e27742077697468647261772c207468652061756374696f6e2060008201527f6973207374696c6c206f70656e00000000000000000000000000000000000000602082015250565b7f4f776e65722063616e2774206269640000000000000000000000000000000000600082015250565b7f596f752063616e2774206269642c204d616b6520612068696768657220426964600082015250565b7f41756374696f6e2043616e63656c6c6564000000000000000000000000000000600082015250565b7f4e6f7420656e6f75676820746f6b656e7320696e207468652077616c6c657400600082015250565b60038110611a6057611a5f61192d565b5b50565b611a6c816117b8565b8114611a7757600080fd5b50565b611a83816117dc565b8114611a8e57600080fd5b50565b611a9a8161181b565b8114611aa557600080fd5b5056fea2646970667358221220af29bb4ddf8bf4ae4531ab8b42a3c628a2001b2cd3dd13b4e5ce7d9555002ace64736f6c63430008010033",
  "immutableReferences": {},
  "source": "// SPDX-License-Identifier: MIT\npragma solidity ^0.8.0;\n\nimport './AuctionToken.sol';\nimport './DeadpoolErc721.sol';\nimport './SupermanErc721.sol';\nimport './HulkErc721.sol';\n\n\ncontract NftMarket {\n    \n    address payable public auction_owner;\n    uint public auction_time;\n    uint public auction_end;\n    uint256 public highestBid;\n    address public highestBidder;\n    uint256 public startingBid;\n\n    IERC20 public token;\n    ERC721 public erc721Contract;\n    uint256 public tokenId;\n\n    enum auction_state{\n        OFF,STARTED,ENDED\n    }\n\n    address[]public bidders;\n    uint public biddersCount = 0;\n    mapping(address => uint) public pendingReturns;\n    mapping(address => uint) public bids;\n\n    auction_state public STATE;\n\n\n    modifier an_ongoing_auction(){ // controlla se l'asta  ancora aperta\n        require(block.timestamp <= auction_end);\n        _;\n    }\n    \n    modifier only_owner(){ // solo owner\n        require(msg.sender==auction_owner);\n        _;\n    }\n    \n    event startEvent(uint256 amount, uint time);\n    event BidEvent(address indexed highestBidder, uint256 highestBid);  \n    event WithdrawalEvent(address withdrawer, uint256 NftTokenURI);  // termina l'asta\n    event CanceledEvent(string message, uint256 time);  // annulla l'asta\n    event Sent(address from, address to, uint amount);\n    event ERC721Transfer(address to, uint token);\n    event ERC20Transfer(address to, uint amount);\n    \n    /*\n    constructor (\n            IERC20 _auctionToken\n    )\n    {\n            token = _auctionToken;\n            STATE = auction_state.OFF;\n    }\n    */\n\n    constructor(\n        uint256 amount, \n        uint time, \n        ERC721 _nftContract, \n        ERC20 _tokenContract,\n        uint256 erc721Id\n    ){\n       \n        auction_owner = payable(msg.sender);\n        auction_time = time;\n        startingBid = amount;\n        tokenId = erc721Id;\n        auction_end = block.timestamp + time;\n        STATE=auction_state.STARTED;\n        erc721Contract = _nftContract;\n        token = _tokenContract;\n        //emit startEvent(amount,auction_end);\n    }\n\n    function bid(uint256 amount) payable public {\n      \n        require(amount > highestBid,\"You can't bid, Make a higher Bid\");\n        require(msg.sender != auction_owner, \"Owner can't bid\");\n        uint256 balance = token.balanceOf(msg.sender);\n        require(amount <= balance, \"Not enough tokens in the wallet\");\n        if(highestBid != 0){\n            uint256 refund = bids[highestBidder];\n            pendingReturns[highestBidder] += refund;\n        }\n        highestBidder = msg.sender;\n        highestBid = amount;\n        bids[msg.sender] += amount;\n        token.transferFrom(msg.sender,address(this),amount);\n\n        emit BidEvent(highestBidder,highestBid);\n    }\n  \n    function cancel_auction() external only_owner  an_ongoing_auction returns (bool){\n        STATE=auction_state.OFF;\n        emit CanceledEvent(\"Auction Cancelled\", block.timestamp);\n        return true;\n    }\n\n    function setTokenIdNft(uint256 id) public returns(bool){\n        tokenId = id;\n        return true;\n    }\n\n    function addBidder() public returns(bool){\n        bidders.push(msg.sender);\n        biddersCount ++;\n        return true;\n    }\n\n    function checkBidder(address addr) public view returns(bool){\n        for(uint i=0; i<biddersCount; i++){\n            if(bidders[i] == addr)\n                return true;\n        }\n        return false;\n    }  \n    \n    function withdraw() public payable {\n        uint amount = pendingReturns[msg.sender];\n        if(amount > 0){\n            pendingReturns[msg.sender] = 0;\n            token.transfer(msg.sender,amount);\n        }\n        emit WithdrawalEvent(msg.sender,amount);\n    }\n\n    function auctionEnd() payable public returns(bool){\n        require(block.timestamp > auction_end ,\"You can't withdraw, the auction is still open\");\n        STATE=auction_state.ENDED;\n        erc721Contract.transferFrom(auction_owner, highestBidder, tokenId);\n        emit ERC721Transfer(highestBidder,tokenId);\n        resetAuction();\n        return true;\n    }\n\n    function getWin() public payable only_owner{\n        token.transfer(auction_owner,highestBid);\n        emit ERC20Transfer(auction_owner,highestBid);\n        highestBid = 0;\n    }\n\n    function resetAuction() public returns(bool){\n        auction_end = 0;\n        startingBid = 0;\n        tokenId = 0;\n\n        for(uint i=0; i<biddersCount; i++){\n            address bidder = bidders[i];\n            bids[bidder] = 0;\n        }\n        return true;\n    }\n}\n",
  "sourcePath": "/Users/mauriziocapone/Desktop/nftmarketplaceapp/contracts/NftMarket.sol",
  "compiler": {
    "name": "solc",
    "version": "0.8.1+commit.df193b15.Emscripten.clang"
  },
  "schemaVersion": "3.4.1",
  "updatedAt": "2021-08-17T11:42:39.732Z",
  "devdoc": {
    "kind": "dev",
    "methods": {},
    "version": 1
  },
  "userdoc": {
    "kind": "user",
    "methods": {},
    "version": 1
  }
}