{
  "contractName": "NftMarket",
  "abi": [
    {
      "inputs": [
        {
          "internalType": "uint256",
          "name": "amount",
          "type": "uint256"
        },
        {
          "internalType": "uint256",
          "name": "date",
          "type": "uint256"
        },
        {
          "internalType": "uint256",
          "name": "time",
          "type": "uint256"
        },
        {
          "internalType": "contract ERC721",
          "name": "_nftContract",
          "type": "address"
        },
        {
          "internalType": "contract ERC20",
          "name": "_tokenContract",
          "type": "address"
        },
        {
          "internalType": "uint256",
          "name": "erc721Id",
          "type": "uint256"
        },
        {
          "internalType": "address",
          "name": "owner",
          "type": "address"
        }
      ],
      "stateMutability": "nonpayable",
      "type": "constructor"
    },
    {
      "anonymous": false,
      "inputs": [
        {
          "indexed": true,
          "internalType": "address",
          "name": "highestBidder",
          "type": "address"
        },
        {
          "indexed": false,
          "internalType": "uint256",
          "name": "highestBid",
          "type": "uint256"
        }
      ],
      "name": "BidEvent",
      "type": "event"
    },
    {
      "anonymous": false,
      "inputs": [
        {
          "indexed": false,
          "internalType": "address",
          "name": "to",
          "type": "address"
        },
        {
          "indexed": false,
          "internalType": "uint256",
          "name": "amount",
          "type": "uint256"
        }
      ],
      "name": "ERC20Transfer",
      "type": "event"
    },
    {
      "anonymous": false,
      "inputs": [
        {
          "indexed": false,
          "internalType": "address",
          "name": "to",
          "type": "address"
        },
        {
          "indexed": false,
          "internalType": "uint256",
          "name": "token",
          "type": "uint256"
        }
      ],
      "name": "ERC721Transfer",
      "type": "event"
    },
    {
      "anonymous": false,
      "inputs": [
        {
          "indexed": false,
          "internalType": "address",
          "name": "highestBidder",
          "type": "address"
        },
        {
          "indexed": false,
          "internalType": "uint256",
          "name": "amount",
          "type": "uint256"
        }
      ],
      "name": "Refund",
      "type": "event"
    },
    {
      "anonymous": false,
      "inputs": [
        {
          "indexed": false,
          "internalType": "address",
          "name": "from",
          "type": "address"
        },
        {
          "indexed": false,
          "internalType": "address",
          "name": "to",
          "type": "address"
        },
        {
          "indexed": false,
          "internalType": "uint256",
          "name": "amount",
          "type": "uint256"
        }
      ],
      "name": "Sent",
      "type": "event"
    },
    {
      "anonymous": false,
      "inputs": [
        {
          "indexed": false,
          "internalType": "uint256",
          "name": "amount",
          "type": "uint256"
        },
        {
          "indexed": false,
          "internalType": "uint256",
          "name": "time",
          "type": "uint256"
        }
      ],
      "name": "startEvent",
      "type": "event"
    },
    {
      "inputs": [],
      "name": "auctionState",
      "outputs": [
        {
          "internalType": "enum NftMarket.auction_state",
          "name": "",
          "type": "uint8"
        }
      ],
      "stateMutability": "view",
      "type": "function"
    },
    {
      "inputs": [],
      "name": "auction_datetime",
      "outputs": [
        {
          "internalType": "uint256",
          "name": "",
          "type": "uint256"
        }
      ],
      "stateMutability": "view",
      "type": "function"
    },
    {
      "inputs": [],
      "name": "auction_end",
      "outputs": [
        {
          "internalType": "uint256",
          "name": "",
          "type": "uint256"
        }
      ],
      "stateMutability": "view",
      "type": "function"
    },
    {
      "inputs": [],
      "name": "auction_owner",
      "outputs": [
        {
          "internalType": "address payable",
          "name": "",
          "type": "address"
        }
      ],
      "stateMutability": "view",
      "type": "function"
    },
    {
      "inputs": [],
      "name": "auction_time",
      "outputs": [
        {
          "internalType": "uint256",
          "name": "",
          "type": "uint256"
        }
      ],
      "stateMutability": "view",
      "type": "function"
    },
    {
      "inputs": [
        {
          "internalType": "uint256",
          "name": "",
          "type": "uint256"
        }
      ],
      "name": "bidders",
      "outputs": [
        {
          "internalType": "address",
          "name": "",
          "type": "address"
        }
      ],
      "stateMutability": "view",
      "type": "function"
    },
    {
      "inputs": [],
      "name": "biddersCount",
      "outputs": [
        {
          "internalType": "uint256",
          "name": "",
          "type": "uint256"
        }
      ],
      "stateMutability": "view",
      "type": "function"
    },
    {
      "inputs": [
        {
          "internalType": "address",
          "name": "",
          "type": "address"
        }
      ],
      "name": "bids",
      "outputs": [
        {
          "internalType": "uint256",
          "name": "",
          "type": "uint256"
        }
      ],
      "stateMutability": "view",
      "type": "function"
    },
    {
      "inputs": [],
      "name": "erc721Contract",
      "outputs": [
        {
          "internalType": "contract ERC721",
          "name": "",
          "type": "address"
        }
      ],
      "stateMutability": "view",
      "type": "function"
    },
    {
      "inputs": [],
      "name": "highestBid",
      "outputs": [
        {
          "internalType": "uint256",
          "name": "",
          "type": "uint256"
        }
      ],
      "stateMutability": "view",
      "type": "function"
    },
    {
      "inputs": [],
      "name": "highestBidder",
      "outputs": [
        {
          "internalType": "address",
          "name": "",
          "type": "address"
        }
      ],
      "stateMutability": "view",
      "type": "function"
    },
    {
      "inputs": [],
      "name": "nftState",
      "outputs": [
        {
          "internalType": "enum NftMarket.nft",
          "name": "",
          "type": "uint8"
        }
      ],
      "stateMutability": "view",
      "type": "function"
    },
    {
      "inputs": [
        {
          "internalType": "address",
          "name": "",
          "type": "address"
        }
      ],
      "name": "pendingReturns",
      "outputs": [
        {
          "internalType": "uint256",
          "name": "",
          "type": "uint256"
        }
      ],
      "stateMutability": "view",
      "type": "function"
    },
    {
      "inputs": [],
      "name": "startingBid",
      "outputs": [
        {
          "internalType": "uint256",
          "name": "",
          "type": "uint256"
        }
      ],
      "stateMutability": "view",
      "type": "function"
    },
    {
      "inputs": [],
      "name": "token",
      "outputs": [
        {
          "internalType": "contract IERC20",
          "name": "",
          "type": "address"
        }
      ],
      "stateMutability": "view",
      "type": "function"
    },
    {
      "inputs": [],
      "name": "tokenId",
      "outputs": [
        {
          "internalType": "uint256",
          "name": "",
          "type": "uint256"
        }
      ],
      "stateMutability": "view",
      "type": "function"
    },
    {
      "inputs": [
        {
          "internalType": "uint256",
          "name": "amount",
          "type": "uint256"
        }
      ],
      "name": "bid",
      "outputs": [],
      "stateMutability": "payable",
      "type": "function"
    },
    {
      "inputs": [
        {
          "internalType": "uint256",
          "name": "id",
          "type": "uint256"
        }
      ],
      "name": "setTokenIdNft",
      "outputs": [
        {
          "internalType": "bool",
          "name": "",
          "type": "bool"
        }
      ],
      "stateMutability": "nonpayable",
      "type": "function"
    },
    {
      "inputs": [],
      "name": "addBidder",
      "outputs": [
        {
          "internalType": "bool",
          "name": "",
          "type": "bool"
        }
      ],
      "stateMutability": "nonpayable",
      "type": "function"
    },
    {
      "inputs": [
        {
          "internalType": "address",
          "name": "addr",
          "type": "address"
        }
      ],
      "name": "checkBidder",
      "outputs": [
        {
          "internalType": "bool",
          "name": "",
          "type": "bool"
        }
      ],
      "stateMutability": "view",
      "type": "function"
    },
    {
      "inputs": [],
      "name": "endAuction",
      "outputs": [
        {
          "internalType": "bool",
          "name": "",
          "type": "bool"
        }
      ],
      "stateMutability": "nonpayable",
      "type": "function"
    },
    {
      "inputs": [],
      "name": "closeAuction",
      "outputs": [
        {
          "internalType": "bool",
          "name": "",
          "type": "bool"
        }
      ],
      "stateMutability": "nonpayable",
      "type": "function"
    }
  ],
  "bytecode": "0x60806040526000600b553480156200001657600080fd5b5060405162001c1d38038062001c1d83398181016040528101906200003c91906200023b565b806000806101000a81548173ffffffffffffffffffffffffffffffffffffffff021916908373ffffffffffffffffffffffffffffffffffffffff160217905550846001819055508660068190555085600381905550816009819055508442620000a69190620002e8565b6002819055506000600e60006101000a81548160ff02191690836002811115620000f9577f4e487b7100000000000000000000000000000000000000000000000000000000600052602160045260246000fd5b02179055506001600e60016101000a81548160ff021916908360028111156200014b577f4e487b7100000000000000000000000000000000000000000000000000000000600052602160045260246000fd5b021790555083600860006101000a81548173ffffffffffffffffffffffffffffffffffffffff021916908373ffffffffffffffffffffffffffffffffffffffff16021790555082600760006101000a81548173ffffffffffffffffffffffffffffffffffffffff021916908373ffffffffffffffffffffffffffffffffffffffff1602179055505050505050505062000442565b600081519050620001f081620003da565b92915050565b6000815190506200020781620003f4565b92915050565b6000815190506200021e816200040e565b92915050565b600081519050620002358162000428565b92915050565b600080600080600080600060e0888a0312156200025757600080fd5b6000620002678a828b0162000224565b97505060206200027a8a828b0162000224565b96505060406200028d8a828b0162000224565b9550506060620002a08a828b016200020d565b9450506080620002b38a828b01620001f6565b93505060a0620002c68a828b0162000224565b92505060c0620002d98a828b01620001df565b91505092959891949750929550565b6000620002f582620003a1565b91506200030283620003a1565b9250827fffffffffffffffffffffffffffffffffffffffffffffffffffffffffffffffff038211156200033a5762000339620003ab565b5b828201905092915050565b6000620003528262000381565b9050919050565b6000620003668262000345565b9050919050565b60006200037a8262000345565b9050919050565b600073ffffffffffffffffffffffffffffffffffffffff82169050919050565b6000819050919050565b7f4e487b7100000000000000000000000000000000000000000000000000000000600052601160045260246000fd5b620003e58162000345565b8114620003f157600080fd5b50565b620003ff8162000359565b81146200040b57600080fd5b50565b62000419816200036d565b81146200042557600080fd5b50565b6200043381620003a1565b81146200043f57600080fd5b50565b6117cb80620004526000396000f3fe6080604052600436106101355760003560e01c806391f90157116100ab578063d57bde791161006f578063d57bde7914610423578063d7c97fb41461044e578063e020bf1e14610479578063eb15cc79146104a4578063fc0c546a146104e1578063fe67a54b1461050c57610135565b806391f901571461033a5780639c91cdb314610365578063b9fdd56914610390578063c458b65a146103bb578063cff29dfd146103e657610135565b8063378252f2116100fd578063378252f214610223578063454a2ab31461024e578063519181031461026a57806362ea82db146102a75780636ea947b7146102e45780637fb450991461030f57610135565b806317d70f7c1461013a5780631f8cdb04146101655780632356032d1461019057806326b387bb146101bb5780632ae27304146101f8575b600080fd5b34801561014657600080fd5b5061014f610537565b60405161015c91906114b8565b60405180910390f35b34801561017157600080fd5b5061017a61053d565b60405161018791906113d1565b60405180910390f35b34801561019c57600080fd5b506101a56105c1565b6040516101b291906114b8565b60405180910390f35b3480156101c757600080fd5b506101e260048036038101906101dd9190611147565b6105c7565b6040516101ef91906114b8565b60405180910390f35b34801561020457600080fd5b5061020d6105df565b60405161021a919061143d565b60405180910390f35b34801561022f57600080fd5b506102386105f2565b60405161024591906113d1565b60405180910390f35b61026860048036038101906102639190611199565b61069d565b005b34801561027657600080fd5b50610291600480360381019061028c9190611147565b610c07565b60405161029e91906113d1565b60405180910390f35b3480156102b357600080fd5b506102ce60048036038101906102c99190611147565b610cd9565b6040516102db91906114b8565b60405180910390f35b3480156102f057600080fd5b506102f9610cf1565b60405161030691906114b8565b60405180910390f35b34801561031b57600080fd5b50610324610cf7565b6040516103319190611422565b60405180910390f35b34801561034657600080fd5b5061034f610d0a565b60405161035c91906112db565b60405180910390f35b34801561037157600080fd5b5061037a610d30565b60405161038791906114b8565b60405180910390f35b34801561039c57600080fd5b506103a5610d36565b6040516103b291906114b8565b60405180910390f35b3480156103c757600080fd5b506103d0610d3c565b6040516103dd91906114b8565b60405180910390f35b3480156103f257600080fd5b5061040d60048036038101906104089190611199565b610d42565b60405161041a91906112db565b60405180910390f35b34801561042f57600080fd5b50610438610d81565b60405161044591906114b8565b60405180910390f35b34801561045a57600080fd5b50610463610d87565b60405161047091906113ec565b60405180910390f35b34801561048557600080fd5b5061048e610dad565b60405161049b91906112f6565b60405180910390f35b3480156104b057600080fd5b506104cb60048036038101906104c69190611199565b610dd1565b6040516104d891906113d1565b60405180910390f35b3480156104ed57600080fd5b506104f6610de3565b6040516105039190611407565b60405180910390f35b34801561051857600080fd5b50610521610e09565b60405161052e91906113d1565b60405180910390f35b60095481565b6000600a339080600181540180825580915050600190039060005260206000200160009091909190916101000a81548173ffffffffffffffffffffffffffffffffffffffff021916908373ffffffffffffffffffffffffffffffffffffffff160217905550600b60008154809291906105b590611606565b91905055506001905090565b600b5481565b600c6020528060005260406000206000915090505481565b600e60019054906101000a900460ff1681565b60006002600e60006101000a81548160ff02191690836002811115610640577f4e487b7100000000000000000000000000000000000000000000000000000000600052602160045260246000fd5b02179055506002600e60016101000a81548160ff02191690836002811115610691577f4e487b7100000000000000000000000000000000000000000000000000000000600052602160045260246000fd5b02179055506001905090565b60045481116106e1576040517f08c379a00000000000000000000000000000000000000000000000000000000081526004016106d890611478565b60405180910390fd5b60008054906101000a900473ffffffffffffffffffffffffffffffffffffffff1673ffffffffffffffffffffffffffffffffffffffff163373ffffffffffffffffffffffffffffffffffffffff161415610770576040517f08c379a000000000000000000000000000000000000000000000000000000000815260040161076790611458565b60405180910390fd5b6000600760009054906101000a900473ffffffffffffffffffffffffffffffffffffffff1673ffffffffffffffffffffffffffffffffffffffff166370a08231336040518263ffffffff1660e01b81526004016107cd91906112db565b60206040518083038186803b1580156107e557600080fd5b505afa1580156107f9573d6000803e3d6000fd5b505050506040513d601f19601f8201168201806040525081019061081d91906111c2565b905080821115610862576040517f08c379a000000000000000000000000000000000000000000000000000000000815260040161085990611498565b60405180910390fd5b600060045414610a01576000600d6000600560009054906101000a900473ffffffffffffffffffffffffffffffffffffffff1673ffffffffffffffffffffffffffffffffffffffff1673ffffffffffffffffffffffffffffffffffffffff168152602001908152602001600020549050600760009054906101000a900473ffffffffffffffffffffffffffffffffffffffff1673ffffffffffffffffffffffffffffffffffffffff1663a9059cbb600560009054906101000a900473ffffffffffffffffffffffffffffffffffffffff16836040518363ffffffff1660e01b81526004016109519291906113a8565b602060405180830381600087803b15801561096b57600080fd5b505af115801561097f573d6000803e3d6000fd5b505050506040513d601f19601f820116820180604052508101906109a39190611170565b507fbb28353e4598c3b9199101a66e0989549b659a59a54d2c27fbb183f1932c8e6d600560009054906101000a900473ffffffffffffffffffffffffffffffffffffffff16826040516109f79291906113a8565b60405180910390a1505b6000600d60003373ffffffffffffffffffffffffffffffffffffffff1673ffffffffffffffffffffffffffffffffffffffff168152602001908152602001600020541415610a5357610a5161053d565b505b33600560006101000a81548173ffffffffffffffffffffffffffffffffffffffff021916908373ffffffffffffffffffffffffffffffffffffffff1602179055508160048190555081600d60003373ffffffffffffffffffffffffffffffffffffffff1673ffffffffffffffffffffffffffffffffffffffff16815260200190815260200160002081905550600760009054906101000a900473ffffffffffffffffffffffffffffffffffffffff1673ffffffffffffffffffffffffffffffffffffffff166323b872dd3330856040518463ffffffff1660e01b8152600401610b3e93929190611371565b602060405180830381600087803b158015610b5857600080fd5b505af1158015610b6c573d6000803e3d6000fd5b505050506040513d601f19601f82011682018060405250810190610b909190611170565b50600560009054906101000a900473ffffffffffffffffffffffffffffffffffffffff1673ffffffffffffffffffffffffffffffffffffffff167f0d993d4f8a84158f5329713d6d13ef54e77b325040c887c8b3e565cfd0cd3e21600454604051610bfb91906114b8565b60405180910390a25050565b600080600090505b600b54811015610cce578273ffffffffffffffffffffffffffffffffffffffff16600a8281548110610c6a577f4e487b7100000000000000000000000000000000000000000000000000000000600052603260045260246000fd5b9060005260206000200160009054906101000a900473ffffffffffffffffffffffffffffffffffffffff1673ffffffffffffffffffffffffffffffffffffffff161415610cbb576001915050610cd4565b8080610cc690611606565b915050610c0f565b50600090505b919050565b600d6020528060005260406000206000915090505481565b60015481565b600e60009054906101000a900460ff1681565b600560009054906101000a900473ffffffffffffffffffffffffffffffffffffffff1681565b60035481565b60065481565b60025481565b600a8181548110610d5257600080fd5b906000526020600020016000915054906101000a900473ffffffffffffffffffffffffffffffffffffffff1681565b60045481565b600860009054906101000a900473ffffffffffffffffffffffffffffffffffffffff1681565b60008054906101000a900473ffffffffffffffffffffffffffffffffffffffff1681565b60008160098190555060019050919050565b600760009054906101000a900473ffffffffffffffffffffffffffffffffffffffff1681565b60006002600e60006101000a81548160ff02191690836002811115610e57577f4e487b7100000000000000000000000000000000000000000000000000000000600052602160045260246000fd5b0217905550600760009054906101000a900473ffffffffffffffffffffffffffffffffffffffff1673ffffffffffffffffffffffffffffffffffffffff1663a9059cbb60008054906101000a900473ffffffffffffffffffffffffffffffffffffffff166004546040518363ffffffff1660e01b8152600401610edb929190611348565b602060405180830381600087803b158015610ef557600080fd5b505af1158015610f09573d6000803e3d6000fd5b505050506040513d601f19601f82011682018060405250810190610f2d9190611170565b50600860009054906101000a900473ffffffffffffffffffffffffffffffffffffffff1673ffffffffffffffffffffffffffffffffffffffff166323b872dd60008054906101000a900473ffffffffffffffffffffffffffffffffffffffff16600560009054906101000a900473ffffffffffffffffffffffffffffffffffffffff166009546040518463ffffffff1660e01b8152600401610fd193929190611311565b600060405180830381600087803b158015610feb57600080fd5b505af1158015610fff573d6000803e3d6000fd5b505050506002600e60016101000a81548160ff0219169083600281111561104f577f4e487b7100000000000000000000000000000000000000000000000000000000600052602160045260246000fd5b02179055507f8a6db17277818c22641ce476413923c6f0c25171f0baa68f7b97942f9ae94d8c336004546040516110879291906113a8565b60405180910390a17f211b87f8e9320b85590c770a676bf3d5109a5562baf8cfaee8dbf46e34965d85600560009054906101000a900473ffffffffffffffffffffffffffffffffffffffff166009546040516110e49291906113a8565b60405180910390a16001905090565b60008135905061110281611750565b92915050565b60008151905061111781611767565b92915050565b60008135905061112c8161177e565b92915050565b6000815190506111418161177e565b92915050565b60006020828403121561115957600080fd5b6000611167848285016110f3565b91505092915050565b60006020828403121561118257600080fd5b600061119084828501611108565b91505092915050565b6000602082840312156111ab57600080fd5b60006111b98482850161111d565b91505092915050565b6000602082840312156111d457600080fd5b60006111e284828501611132565b91505092915050565b6111f481611564565b82525050565b611203816114f6565b82525050565b611212816114e4565b82525050565b61122181611508565b82525050565b61123081611576565b82525050565b61123f8161159a565b82525050565b61124e816115be565b82525050565b61125d816115d0565b82525050565b6000611270600f836114d3565b915061127b826116ad565b602082019050919050565b60006112936020836114d3565b915061129e826116d6565b602082019050919050565b60006112b6601f836114d3565b91506112c1826116ff565b602082019050919050565b6112d58161155a565b82525050565b60006020820190506112f06000830184611209565b92915050565b600060208201905061130b60008301846111fa565b92915050565b600060608201905061132660008301866111eb565b6113336020830185611209565b61134060408301846112cc565b949350505050565b600060408201905061135d60008301856111eb565b61136a60208301846112cc565b9392505050565b60006060820190506113866000830186611209565b6113936020830185611209565b6113a060408301846112cc565b949350505050565b60006040820190506113bd6000830185611209565b6113ca60208301846112cc565b9392505050565b60006020820190506113e66000830184611218565b92915050565b60006020820190506114016000830184611227565b92915050565b600060208201905061141c6000830184611236565b92915050565b60006020820190506114376000830184611245565b92915050565b60006020820190506114526000830184611254565b92915050565b6000602082019050818103600083015261147181611263565b9050919050565b6000602082019050818103600083015261149181611286565b9050919050565b600060208201905081810360008301526114b1816112a9565b9050919050565b60006020820190506114cd60008301846112cc565b92915050565b600082825260208201905092915050565b60006114ef8261153a565b9050919050565b60006115018261153a565b9050919050565b60008115159050919050565b600081905061152282611728565b919050565b60008190506115358261173c565b919050565b600073ffffffffffffffffffffffffffffffffffffffff82169050919050565b6000819050919050565b600061156f826115e2565b9050919050565b600061158182611588565b9050919050565b60006115938261153a565b9050919050565b60006115a5826115ac565b9050919050565b60006115b78261153a565b9050919050565b60006115c982611514565b9050919050565b60006115db82611527565b9050919050565b60006115ed826115f4565b9050919050565b60006115ff8261153a565b9050919050565b60006116118261155a565b91507fffffffffffffffffffffffffffffffffffffffffffffffffffffffffffffffff8214156116445761164361164f565b5b600182019050919050565b7f4e487b7100000000000000000000000000000000000000000000000000000000600052601160045260246000fd5b7f4e487b7100000000000000000000000000000000000000000000000000000000600052602160045260246000fd5b7f4f776e65722063616e2774206269640000000000000000000000000000000000600082015250565b7f596f752063616e2774206269642c204d616b6520612068696768657220426964600082015250565b7f4e6f7420656e6f75676820746f6b656e7320696e207468652077616c6c657400600082015250565b600381106117395761173861167e565b5b50565b6003811061174d5761174c61167e565b5b50565b611759816114e4565b811461176457600080fd5b50565b61177081611508565b811461177b57600080fd5b50565b6117878161155a565b811461179257600080fd5b5056fea2646970667358221220cda8a71fa8a8b9f3d266f48471295734b25827a0c01bf2492243e504bc061e8a64736f6c63430008010033",
  "immutableReferences": {},
  "source": "// SPDX-License-Identifier: MIT\npragma solidity ^0.8.0;\n\nimport './Registry.sol';\nimport './AuctionToken.sol';\nimport './NFT/CaptainAmericaErc721.sol';\n\n\ncontract NftMarket {\n    \n    address payable public auction_owner;\n    uint public auction_time;\n    uint public auction_end;\n    uint256 public auction_datetime;\n    uint256 public highestBid;\n    address public highestBidder;\n    uint256 public startingBid;\n\n    IERC20 public token;\n    ERC721 public erc721Contract;\n    uint256 public tokenId;\n\n    enum auction_state{\n        STARTED,ENDED,CLOSED\n    }\n\n    enum nft{\n        OWNED,PENDING,DELIVERED\n    }\n\n    address[]public bidders;\n    uint public biddersCount = 0;\n    //mapping(address => uint) public bidders;\n\n    mapping(address => uint) public pendingReturns;\n    mapping(address => uint) public bids;\n\n    auction_state public auctionState;\n    nft public nftState;\n\n\n\n    modifier an_ongoing_auction(){ // controlla se l'asta  ancora aperta\n        require(block.timestamp <= auction_end);\n        _;\n    }\n    \n    modifier only_owner(){ // solo owner\n        require(msg.sender==auction_owner);\n        _;\n    }\n    \n    event startEvent(uint256 amount, uint time);\n    event BidEvent(address indexed highestBidder, uint256 highestBid);  \n    event Refund(address highestBidder, uint256 amount);\n    event Sent(address from, address to, uint amount);\n    event ERC721Transfer(address to, uint token);\n    event ERC20Transfer(address to, uint amount);\n\n    constructor(\n        uint256 amount, \n        uint256 date,\n        uint time,\n        ERC721 _nftContract, \n        ERC20 _tokenContract,\n        uint256 erc721Id,\n        address owner\n    ){  \n        auction_owner = payable(owner);\n        auction_time = time;\n        startingBid = amount;\n        auction_datetime = date;\n        tokenId = erc721Id;\n        auction_end = block.timestamp + time;\n        auctionState=auction_state.STARTED;\n        nftState=nft.PENDING;\n        erc721Contract = _nftContract;\n        token = _tokenContract;\n    }\n\n    function bid(uint256 amount) payable public {\n      \n        require(amount > highestBid,\"You can't bid, Make a higher Bid\");\n        require(msg.sender != auction_owner, \"Owner can't bid\");\n        uint256 balance = token.balanceOf(msg.sender);\n        require(amount <= balance, \"Not enough tokens in the wallet\");\n        if(highestBid != 0){\n            uint256 refund = bids[highestBidder];\n            token.transfer(highestBidder,refund);\n            emit Refund(highestBidder,refund);\n        }\n        if(bids[msg.sender] == 0){\n            addBidder();\n        }\n        highestBidder = msg.sender;\n        highestBid = amount;\n        bids[msg.sender] = amount;\n        token.transferFrom(msg.sender,address(this),amount);\n        emit BidEvent(highestBidder,highestBid);\n    }\n\n    function setTokenIdNft(uint256 id) public returns(bool){\n        tokenId = id;\n        return true;\n    }\n\n    function addBidder() public returns(bool){\n        bidders.push(msg.sender);\n        biddersCount ++;\n        return true;\n    }\n\n    function checkBidder(address addr) public view returns(bool){\n        for(uint i=0; i<biddersCount; i++){\n            if(bidders[i] == addr)\n                return true;\n        }\n        return false;\n    }  \n    \n    /*\n    function withdraw() public payable {\n        uint amount = pendingReturns[msg.sender];\n        if(amount > 0){\n            pendingReturns[msg.sender] = 0;\n            token.transfer(msg.sender,amount);\n        }\n        emit WithdrawalEvent(msg.sender,amount);\n    }\n    */\n\n    function endAuction() public returns(bool){\n        auctionState=auction_state.CLOSED;\n        token.transfer(auction_owner,highestBid);\n        erc721Contract.transferFrom(auction_owner, highestBidder, tokenId);\n        nftState=nft.DELIVERED;\n        emit ERC20Transfer(msg.sender,highestBid);\n        emit ERC721Transfer(highestBidder,tokenId);\n        return true;\n    }\n\n    function closeAuction() public returns(bool){\n        auctionState=auction_state.CLOSED;\n        nftState=nft.DELIVERED;\n        return true;\n    }\n\n    /*\n    function getReward() payable public returns(bool){\n        auctionState = auction_state.ENDED;\n        erc721Contract.transferFrom(auction_owner, highestBidder, tokenId); // from  l'indirizzo del contratto\n        nftState=nft.DELIVERED;\n        emit ERC721Transfer(highestBidder,tokenId);\n        return true;\n    }*/\n\n    /*\n    function getWin() public payable {\n        require(auctionState == auction_state.ENDED, \"You need to end the auction first\");\n        auctionState = auction_state.CLOSED;\n        token.transfer(msg.sender,highestBid);\n        emit ERC20Transfer(msg.sender,highestBid);\n    }\n    */\n}\n",
  "sourcePath": "/Users/mauriziocapone/Desktop/nftmarketplaceapp/contracts/NftMarket.sol",
  "compiler": {
    "name": "solc",
    "version": "0.8.1+commit.df193b15.Emscripten.clang"
  },
  "schemaVersion": "3.4.1",
  "updatedAt": "2021-11-03T08:54:20.624Z",
  "networkType": "ethereum",
  "devdoc": {
    "kind": "dev",
    "methods": {},
    "version": 1
  },
  "userdoc": {
    "kind": "user",
    "methods": {},
    "version": 1
  }
}