{
  "contractName": "NftMarket",
  "abi": [
    {
      "inputs": [
        {
          "internalType": "uint256",
          "name": "amount",
          "type": "uint256"
        },
        {
          "internalType": "uint256",
          "name": "time",
          "type": "uint256"
        },
        {
          "internalType": "contract ERC721",
          "name": "_nftContract",
          "type": "address"
        },
        {
          "internalType": "contract ERC20",
          "name": "_tokenContract",
          "type": "address"
        },
        {
          "internalType": "uint256",
          "name": "erc721Id",
          "type": "uint256"
        },
        {
          "internalType": "address",
          "name": "owner",
          "type": "address"
        }
      ],
      "stateMutability": "nonpayable",
      "type": "constructor"
    },
    {
      "anonymous": false,
      "inputs": [
        {
          "indexed": true,
          "internalType": "address",
          "name": "highestBidder",
          "type": "address"
        },
        {
          "indexed": false,
          "internalType": "uint256",
          "name": "highestBid",
          "type": "uint256"
        }
      ],
      "name": "BidEvent",
      "type": "event"
    },
    {
      "anonymous": false,
      "inputs": [
        {
          "indexed": false,
          "internalType": "string",
          "name": "message",
          "type": "string"
        },
        {
          "indexed": false,
          "internalType": "uint256",
          "name": "time",
          "type": "uint256"
        }
      ],
      "name": "CanceledEvent",
      "type": "event"
    },
    {
      "anonymous": false,
      "inputs": [
        {
          "indexed": false,
          "internalType": "address",
          "name": "to",
          "type": "address"
        },
        {
          "indexed": false,
          "internalType": "uint256",
          "name": "amount",
          "type": "uint256"
        }
      ],
      "name": "ERC20Transfer",
      "type": "event"
    },
    {
      "anonymous": false,
      "inputs": [
        {
          "indexed": false,
          "internalType": "address",
          "name": "to",
          "type": "address"
        },
        {
          "indexed": false,
          "internalType": "uint256",
          "name": "token",
          "type": "uint256"
        }
      ],
      "name": "ERC721Transfer",
      "type": "event"
    },
    {
      "anonymous": false,
      "inputs": [
        {
          "indexed": false,
          "internalType": "address",
          "name": "from",
          "type": "address"
        },
        {
          "indexed": false,
          "internalType": "address",
          "name": "to",
          "type": "address"
        },
        {
          "indexed": false,
          "internalType": "uint256",
          "name": "amount",
          "type": "uint256"
        }
      ],
      "name": "Sent",
      "type": "event"
    },
    {
      "anonymous": false,
      "inputs": [
        {
          "indexed": false,
          "internalType": "address",
          "name": "withdrawer",
          "type": "address"
        },
        {
          "indexed": false,
          "internalType": "uint256",
          "name": "NftTokenURI",
          "type": "uint256"
        }
      ],
      "name": "WithdrawalEvent",
      "type": "event"
    },
    {
      "anonymous": false,
      "inputs": [
        {
          "indexed": false,
          "internalType": "uint256",
          "name": "amount",
          "type": "uint256"
        },
        {
          "indexed": false,
          "internalType": "uint256",
          "name": "time",
          "type": "uint256"
        }
      ],
      "name": "startEvent",
      "type": "event"
    },
    {
      "inputs": [],
      "name": "auctionState",
      "outputs": [
        {
          "internalType": "enum NftMarket.auction_state",
          "name": "",
          "type": "uint8"
        }
      ],
      "stateMutability": "view",
      "type": "function"
    },
    {
      "inputs": [],
      "name": "auction_end",
      "outputs": [
        {
          "internalType": "uint256",
          "name": "",
          "type": "uint256"
        }
      ],
      "stateMutability": "view",
      "type": "function"
    },
    {
      "inputs": [],
      "name": "auction_owner",
      "outputs": [
        {
          "internalType": "address payable",
          "name": "",
          "type": "address"
        }
      ],
      "stateMutability": "view",
      "type": "function"
    },
    {
      "inputs": [],
      "name": "auction_time",
      "outputs": [
        {
          "internalType": "uint256",
          "name": "",
          "type": "uint256"
        }
      ],
      "stateMutability": "view",
      "type": "function"
    },
    {
      "inputs": [
        {
          "internalType": "uint256",
          "name": "",
          "type": "uint256"
        }
      ],
      "name": "bidders",
      "outputs": [
        {
          "internalType": "address",
          "name": "",
          "type": "address"
        }
      ],
      "stateMutability": "view",
      "type": "function"
    },
    {
      "inputs": [],
      "name": "biddersCount",
      "outputs": [
        {
          "internalType": "uint256",
          "name": "",
          "type": "uint256"
        }
      ],
      "stateMutability": "view",
      "type": "function"
    },
    {
      "inputs": [
        {
          "internalType": "address",
          "name": "",
          "type": "address"
        }
      ],
      "name": "bids",
      "outputs": [
        {
          "internalType": "uint256",
          "name": "",
          "type": "uint256"
        }
      ],
      "stateMutability": "view",
      "type": "function"
    },
    {
      "inputs": [],
      "name": "erc721Contract",
      "outputs": [
        {
          "internalType": "contract ERC721",
          "name": "",
          "type": "address"
        }
      ],
      "stateMutability": "view",
      "type": "function"
    },
    {
      "inputs": [],
      "name": "highestBid",
      "outputs": [
        {
          "internalType": "uint256",
          "name": "",
          "type": "uint256"
        }
      ],
      "stateMutability": "view",
      "type": "function"
    },
    {
      "inputs": [],
      "name": "highestBidder",
      "outputs": [
        {
          "internalType": "address",
          "name": "",
          "type": "address"
        }
      ],
      "stateMutability": "view",
      "type": "function"
    },
    {
      "inputs": [],
      "name": "nftState",
      "outputs": [
        {
          "internalType": "enum NftMarket.nft",
          "name": "",
          "type": "uint8"
        }
      ],
      "stateMutability": "view",
      "type": "function"
    },
    {
      "inputs": [
        {
          "internalType": "address",
          "name": "",
          "type": "address"
        }
      ],
      "name": "pendingReturns",
      "outputs": [
        {
          "internalType": "uint256",
          "name": "",
          "type": "uint256"
        }
      ],
      "stateMutability": "view",
      "type": "function"
    },
    {
      "inputs": [],
      "name": "startingBid",
      "outputs": [
        {
          "internalType": "uint256",
          "name": "",
          "type": "uint256"
        }
      ],
      "stateMutability": "view",
      "type": "function"
    },
    {
      "inputs": [],
      "name": "token",
      "outputs": [
        {
          "internalType": "contract IERC20",
          "name": "",
          "type": "address"
        }
      ],
      "stateMutability": "view",
      "type": "function"
    },
    {
      "inputs": [],
      "name": "tokenId",
      "outputs": [
        {
          "internalType": "uint256",
          "name": "",
          "type": "uint256"
        }
      ],
      "stateMutability": "view",
      "type": "function"
    },
    {
      "inputs": [
        {
          "internalType": "uint256",
          "name": "amount",
          "type": "uint256"
        }
      ],
      "name": "bid",
      "outputs": [],
      "stateMutability": "payable",
      "type": "function"
    },
    {
      "inputs": [
        {
          "internalType": "uint256",
          "name": "id",
          "type": "uint256"
        }
      ],
      "name": "setTokenIdNft",
      "outputs": [
        {
          "internalType": "bool",
          "name": "",
          "type": "bool"
        }
      ],
      "stateMutability": "nonpayable",
      "type": "function"
    },
    {
      "inputs": [],
      "name": "addBidder",
      "outputs": [
        {
          "internalType": "bool",
          "name": "",
          "type": "bool"
        }
      ],
      "stateMutability": "nonpayable",
      "type": "function"
    },
    {
      "inputs": [
        {
          "internalType": "address",
          "name": "addr",
          "type": "address"
        }
      ],
      "name": "checkBidder",
      "outputs": [
        {
          "internalType": "bool",
          "name": "",
          "type": "bool"
        }
      ],
      "stateMutability": "view",
      "type": "function"
    },
    {
      "inputs": [],
      "name": "withdraw",
      "outputs": [],
      "stateMutability": "payable",
      "type": "function"
    },
    {
      "inputs": [],
      "name": "endAuction",
      "outputs": [
        {
          "internalType": "bool",
          "name": "",
          "type": "bool"
        }
      ],
      "stateMutability": "nonpayable",
      "type": "function"
    },
    {
      "inputs": [],
      "name": "closeAuction",
      "outputs": [
        {
          "internalType": "bool",
          "name": "",
          "type": "bool"
        }
      ],
      "stateMutability": "nonpayable",
      "type": "function"
    },
    {
      "inputs": [],
      "name": "getReward",
      "outputs": [
        {
          "internalType": "bool",
          "name": "",
          "type": "bool"
        }
      ],
      "stateMutability": "payable",
      "type": "function"
    },
    {
      "inputs": [],
      "name": "getWin",
      "outputs": [],
      "stateMutability": "payable",
      "type": "function"
    }
  ],
  "bytecode": "0x60806040526000600a553480156200001657600080fd5b5060405162001eae38038062001eae83398181016040528101906200003c919062000233565b806000806101000a81548173ffffffffffffffffffffffffffffffffffffffff021916908373ffffffffffffffffffffffffffffffffffffffff16021790555084600181905550856005819055508160088190555084426200009f9190620002c9565b6002819055506000600d60006101000a81548160ff02191690836002811115620000f2577f4e487b7100000000000000000000000000000000000000000000000000000000600052602160045260246000fd5b02179055506000600d60016101000a81548160ff0219169083600181111562000144577f4e487b7100000000000000000000000000000000000000000000000000000000600052602160045260246000fd5b021790555083600760006101000a81548173ffffffffffffffffffffffffffffffffffffffff021916908373ffffffffffffffffffffffffffffffffffffffff16021790555082600660006101000a81548173ffffffffffffffffffffffffffffffffffffffff021916908373ffffffffffffffffffffffffffffffffffffffff16021790555050505050505062000423565b600081519050620001e881620003bb565b92915050565b600081519050620001ff81620003d5565b92915050565b6000815190506200021681620003ef565b92915050565b6000815190506200022d8162000409565b92915050565b60008060008060008060c087890312156200024d57600080fd5b60006200025d89828a016200021c565b96505060206200027089828a016200021c565b95505060406200028389828a0162000205565b94505060606200029689828a01620001ee565b9350506080620002a989828a016200021c565b92505060a0620002bc89828a01620001d7565b9150509295509295509295565b6000620002d68262000382565b9150620002e38362000382565b9250827fffffffffffffffffffffffffffffffffffffffffffffffffffffffffffffffff038211156200031b576200031a6200038c565b5b828201905092915050565b6000620003338262000362565b9050919050565b6000620003478262000326565b9050919050565b60006200035b8262000326565b9050919050565b600073ffffffffffffffffffffffffffffffffffffffff82169050919050565b6000819050919050565b7f4e487b7100000000000000000000000000000000000000000000000000000000600052601160045260246000fd5b620003c68162000326565b8114620003d257600080fd5b50565b620003e0816200033a565b8114620003ec57600080fd5b50565b620003fa816200034e565b81146200040657600080fd5b50565b620004148162000382565b81146200042057600080fd5b50565b611a7b80620004336000396000f3fe60806040526004361061014b5760003560e01c80637fb45099116100b6578063d6d36b921161006f578063d6d36b9214610461578063d7c97fb41461046b578063e020bf1e14610496578063eb15cc79146104c1578063fc0c546a146104fe578063fe67a54b146105295761014b565b80637fb450991461034d57806391f9015714610378578063b9fdd569146103a3578063c458b65a146103ce578063cff29dfd146103f9578063d57bde79146104365761014b565b80633ccfd60b116101085780633ccfd60b146102645780633d18b9121461026e578063454a2ab31461028c57806351918103146102a857806362ea82db146102e55780636ea947b7146103225761014b565b806317d70f7c146101505780631f8cdb041461017b5780632356032d146101a657806326b387bb146101d15780632ae273041461020e578063378252f214610239575b600080fd5b34801561015c57600080fd5b50610165610554565b60405161017291906116c3565b60405180910390f35b34801561018757600080fd5b5061019061055a565b60405161019d91906115bc565b60405180910390f35b3480156101b257600080fd5b506101bb6105de565b6040516101c891906116c3565b60405180910390f35b3480156101dd57600080fd5b506101f860048036038101906101f39190611338565b6105e4565b60405161020591906116c3565b60405180910390f35b34801561021a57600080fd5b506102236105fc565b6040516102309190611628565b60405180910390f35b34801561024557600080fd5b5061024e61060f565b60405161025b91906115bc565b60405180910390f35b61026c610669565b005b6102766107e8565b60405161028391906115bc565b60405180910390f35b6102a660048036038101906102a1919061138a565b6109c5565b005b3480156102b457600080fd5b506102cf60048036038101906102ca9190611338565b610e8c565b6040516102dc91906115bc565b60405180910390f35b3480156102f157600080fd5b5061030c60048036038101906103079190611338565b610f5e565b60405161031991906116c3565b60405180910390f35b34801561032e57600080fd5b50610337610f76565b60405161034491906116c3565b60405180910390f35b34801561035957600080fd5b50610362610f7c565b60405161036f919061160d565b60405180910390f35b34801561038457600080fd5b5061038d610f8f565b60405161039a91906114ef565b60405180910390f35b3480156103af57600080fd5b506103b8610fb5565b6040516103c591906116c3565b60405180910390f35b3480156103da57600080fd5b506103e3610fbb565b6040516103f091906116c3565b60405180910390f35b34801561040557600080fd5b50610420600480360381019061041b919061138a565b610fc1565b60405161042d91906114ef565b60405180910390f35b34801561044257600080fd5b5061044b611000565b60405161045891906116c3565b60405180910390f35b610469611006565b005b34801561047757600080fd5b50610480611208565b60405161048d91906115d7565b60405180910390f35b3480156104a257600080fd5b506104ab61122e565b6040516104b8919061150a565b60405180910390f35b3480156104cd57600080fd5b506104e860048036038101906104e3919061138a565b611252565b6040516104f591906115bc565b60405180910390f35b34801561050a57600080fd5b50610513611264565b60405161052091906115f2565b60405180910390f35b34801561053557600080fd5b5061053e61128a565b60405161054b91906115bc565b60405180910390f35b60085481565b60006009339080600181540180825580915050600190039060005260206000200160009091909190916101000a81548173ffffffffffffffffffffffffffffffffffffffff021916908373ffffffffffffffffffffffffffffffffffffffff160217905550600a60008154809291906105d290611867565b91905055506001905090565b600a5481565b600b6020528060005260406000206000915090505481565b600d60019054906101000a900460ff1681565b60006002600d60006101000a81548160ff0219169083600281111561065d577f4e487b7100000000000000000000000000000000000000000000000000000000600052602160045260246000fd5b02179055506001905090565b6000600b60003373ffffffffffffffffffffffffffffffffffffffff1673ffffffffffffffffffffffffffffffffffffffff16815260200190815260200160002054905060008111156107ac576000600b60003373ffffffffffffffffffffffffffffffffffffffff1673ffffffffffffffffffffffffffffffffffffffff16815260200190815260200160002081905550600660009054906101000a900473ffffffffffffffffffffffffffffffffffffffff1673ffffffffffffffffffffffffffffffffffffffff1663a9059cbb33836040518363ffffffff1660e01b8152600401610758929190611593565b602060405180830381600087803b15801561077257600080fd5b505af1158015610786573d6000803e3d6000fd5b505050506040513d601f19601f820116820180604052508101906107aa9190611361565b505b7f2f174ca282119315c59efaf21147aef438581dabdeb498198ae28964373dd8bc33826040516107dd929190611593565b60405180910390a150565b60006001600d60006101000a81548160ff02191690836002811115610836577f4e487b7100000000000000000000000000000000000000000000000000000000600052602160045260246000fd5b0217905550600760009054906101000a900473ffffffffffffffffffffffffffffffffffffffff1673ffffffffffffffffffffffffffffffffffffffff166323b872dd60008054906101000a900473ffffffffffffffffffffffffffffffffffffffff16600460009054906101000a900473ffffffffffffffffffffffffffffffffffffffff166008546040518463ffffffff1660e01b81526004016108de93929190611525565b600060405180830381600087803b1580156108f857600080fd5b505af115801561090c573d6000803e3d6000fd5b505050506001600d60016101000a81548160ff0219169083600181111561095c577f4e487b7100000000000000000000000000000000000000000000000000000000600052602160045260246000fd5b02179055507f211b87f8e9320b85590c770a676bf3d5109a5562baf8cfaee8dbf46e34965d85600460009054906101000a900473ffffffffffffffffffffffffffffffffffffffff166008546040516109b6929190611593565b60405180910390a16001905090565b6003548111610a09576040517f08c379a0000000000000000000000000000000000000000000000000000000008152600401610a0090611663565b60405180910390fd5b60008054906101000a900473ffffffffffffffffffffffffffffffffffffffff1673ffffffffffffffffffffffffffffffffffffffff163373ffffffffffffffffffffffffffffffffffffffff161415610a98576040517f08c379a0000000000000000000000000000000000000000000000000000000008152600401610a8f90611643565b60405180910390fd5b6000600660009054906101000a900473ffffffffffffffffffffffffffffffffffffffff1673ffffffffffffffffffffffffffffffffffffffff166370a08231336040518263ffffffff1660e01b8152600401610af591906114ef565b60206040518083038186803b158015610b0d57600080fd5b505afa158015610b21573d6000803e3d6000fd5b505050506040513d601f19601f82011682018060405250810190610b4591906113b3565b905080821115610b8a576040517f08c379a0000000000000000000000000000000000000000000000000000000008152600401610b81906116a3565b60405180910390fd5b600060035414610c74576000600c6000600460009054906101000a900473ffffffffffffffffffffffffffffffffffffffff1673ffffffffffffffffffffffffffffffffffffffff1673ffffffffffffffffffffffffffffffffffffffff16815260200190815260200160002054905080600b6000600460009054906101000a900473ffffffffffffffffffffffffffffffffffffffff1673ffffffffffffffffffffffffffffffffffffffff1673ffffffffffffffffffffffffffffffffffffffff1681526020019081526020016000206000828254610c6b91906116ef565b92505081905550505b6000600c60003373ffffffffffffffffffffffffffffffffffffffff1673ffffffffffffffffffffffffffffffffffffffff168152602001908152602001600020541415610cc657610cc461055a565b505b33600460006101000a81548173ffffffffffffffffffffffffffffffffffffffff021916908373ffffffffffffffffffffffffffffffffffffffff1602179055508160038190555081600c60003373ffffffffffffffffffffffffffffffffffffffff1673ffffffffffffffffffffffffffffffffffffffff1681526020019081526020016000206000828254610d5d91906116ef565b92505081905550600660009054906101000a900473ffffffffffffffffffffffffffffffffffffffff1673ffffffffffffffffffffffffffffffffffffffff166323b872dd3330856040518463ffffffff1660e01b8152600401610dc39392919061155c565b602060405180830381600087803b158015610ddd57600080fd5b505af1158015610df1573d6000803e3d6000fd5b505050506040513d601f19601f82011682018060405250810190610e159190611361565b50600460009054906101000a900473ffffffffffffffffffffffffffffffffffffffff1673ffffffffffffffffffffffffffffffffffffffff167f0d993d4f8a84158f5329713d6d13ef54e77b325040c887c8b3e565cfd0cd3e21600354604051610e8091906116c3565b60405180910390a25050565b600080600090505b600a54811015610f53578273ffffffffffffffffffffffffffffffffffffffff1660098281548110610eef577f4e487b7100000000000000000000000000000000000000000000000000000000600052603260045260246000fd5b9060005260206000200160009054906101000a900473ffffffffffffffffffffffffffffffffffffffff1673ffffffffffffffffffffffffffffffffffffffff161415610f40576001915050610f59565b8080610f4b90611867565b915050610e94565b50600090505b919050565b600c6020528060005260406000206000915090505481565b60015481565b600d60009054906101000a900460ff1681565b600460009054906101000a900473ffffffffffffffffffffffffffffffffffffffff1681565b60055481565b60025481565b60098181548110610fd157600080fd5b906000526020600020016000915054906101000a900473ffffffffffffffffffffffffffffffffffffffff1681565b60035481565b60016002811115611040577f4e487b7100000000000000000000000000000000000000000000000000000000600052602160045260246000fd5b600d60009054906101000a900460ff166002811115611088577f4e487b7100000000000000000000000000000000000000000000000000000000600052602160045260246000fd5b146110c8576040517f08c379a00000000000000000000000000000000000000000000000000000000081526004016110bf90611683565b60405180910390fd5b6002600d60006101000a81548160ff02191690836002811115611114577f4e487b7100000000000000000000000000000000000000000000000000000000600052602160045260246000fd5b0217905550600660009054906101000a900473ffffffffffffffffffffffffffffffffffffffff1673ffffffffffffffffffffffffffffffffffffffff1663a9059cbb336003546040518363ffffffff1660e01b8152600401611178929190611593565b602060405180830381600087803b15801561119257600080fd5b505af11580156111a6573d6000803e3d6000fd5b505050506040513d601f19601f820116820180604052508101906111ca9190611361565b507f8a6db17277818c22641ce476413923c6f0c25171f0baa68f7b97942f9ae94d8c336003546040516111fe929190611593565b60405180910390a1565b600760009054906101000a900473ffffffffffffffffffffffffffffffffffffffff1681565b60008054906101000a900473ffffffffffffffffffffffffffffffffffffffff1681565b60008160088190555060019050919050565b600660009054906101000a900473ffffffffffffffffffffffffffffffffffffffff1681565b60006001600d60006101000a81548160ff021916908360028111156112d8577f4e487b7100000000000000000000000000000000000000000000000000000000600052602160045260246000fd5b02179055506001905090565b6000813590506112f381611a00565b92915050565b60008151905061130881611a17565b92915050565b60008135905061131d81611a2e565b92915050565b60008151905061133281611a2e565b92915050565b60006020828403121561134a57600080fd5b6000611358848285016112e4565b91505092915050565b60006020828403121561137357600080fd5b6000611381848285016112f9565b91505092915050565b60006020828403121561139c57600080fd5b60006113aa8482850161130e565b91505092915050565b6000602082840312156113c557600080fd5b60006113d384828501611323565b91505092915050565b6113e5816117c5565b82525050565b6113f481611757565b82525050565b61140381611745565b82525050565b61141281611769565b82525050565b611421816117d7565b82525050565b611430816117fb565b82525050565b61143f8161181f565b82525050565b61144e81611831565b82525050565b6000611461600f836116de565b915061146c8261190e565b602082019050919050565b60006114846020836116de565b915061148f82611937565b602082019050919050565b60006114a76021836116de565b91506114b282611960565b604082019050919050565b60006114ca601f836116de565b91506114d5826119af565b602082019050919050565b6114e9816117bb565b82525050565b600060208201905061150460008301846113fa565b92915050565b600060208201905061151f60008301846113eb565b92915050565b600060608201905061153a60008301866113dc565b61154760208301856113fa565b61155460408301846114e0565b949350505050565b600060608201905061157160008301866113fa565b61157e60208301856113fa565b61158b60408301846114e0565b949350505050565b60006040820190506115a860008301856113fa565b6115b560208301846114e0565b9392505050565b60006020820190506115d16000830184611409565b92915050565b60006020820190506115ec6000830184611418565b92915050565b60006020820190506116076000830184611427565b92915050565b60006020820190506116226000830184611436565b92915050565b600060208201905061163d6000830184611445565b92915050565b6000602082019050818103600083015261165c81611454565b9050919050565b6000602082019050818103600083015261167c81611477565b9050919050565b6000602082019050818103600083015261169c8161149a565b9050919050565b600060208201905081810360008301526116bc816114bd565b9050919050565b60006020820190506116d860008301846114e0565b92915050565b600082825260208201905092915050565b60006116fa826117bb565b9150611705836117bb565b9250827fffffffffffffffffffffffffffffffffffffffffffffffffffffffffffffffff0382111561173a576117396118b0565b5b828201905092915050565b60006117508261179b565b9050919050565b60006117628261179b565b9050919050565b60008115159050919050565b6000819050611783826119d8565b919050565b6000819050611796826119ec565b919050565b600073ffffffffffffffffffffffffffffffffffffffff82169050919050565b6000819050919050565b60006117d082611843565b9050919050565b60006117e2826117e9565b9050919050565b60006117f48261179b565b9050919050565b60006118068261180d565b9050919050565b60006118188261179b565b9050919050565b600061182a82611775565b9050919050565b600061183c82611788565b9050919050565b600061184e82611855565b9050919050565b60006118608261179b565b9050919050565b6000611872826117bb565b91507fffffffffffffffffffffffffffffffffffffffffffffffffffffffffffffffff8214156118a5576118a46118b0565b5b600182019050919050565b7f4e487b7100000000000000000000000000000000000000000000000000000000600052601160045260246000fd5b7f4e487b7100000000000000000000000000000000000000000000000000000000600052602160045260246000fd5b7f4f776e65722063616e2774206269640000000000000000000000000000000000600082015250565b7f596f752063616e2774206269642c204d616b6520612068696768657220426964600082015250565b7f596f75206e65656420746f20656e64207468652061756374696f6e206669727360008201527f7400000000000000000000000000000000000000000000000000000000000000602082015250565b7f4e6f7420656e6f75676820746f6b656e7320696e207468652077616c6c657400600082015250565b600381106119e9576119e86118df565b5b50565b600281106119fd576119fc6118df565b5b50565b611a0981611745565b8114611a1457600080fd5b50565b611a2081611769565b8114611a2b57600080fd5b50565b611a37816117bb565b8114611a4257600080fd5b5056fea2646970667358221220e79d09ab0b9a29cbf56a046031f089d9c0b0d6298ed1c6e95a8d5760b9b014a964736f6c63430008010033",
  "immutableReferences": {},
  "source": "// SPDX-License-Identifier: MIT\npragma solidity ^0.8.0;\n\nimport './Registry.sol';\n\nimport './AuctionToken.sol';\nimport './DeadpoolErc721.sol';\nimport './SupermanErc721.sol';\nimport './HulkErc721.sol';\n\n\ncontract NftMarket {\n    \n    address payable public auction_owner;\n    uint public auction_time;\n    uint public auction_end;\n    uint256 public highestBid;\n    address public highestBidder;\n    uint256 public startingBid;\n\n    IERC20 public token;\n    ERC721 public erc721Contract;\n    uint256 public tokenId;\n\n    enum auction_state{\n        STARTED,ENDED,CLOSED\n    }\n\n    enum nft{\n        PENDING,DELIVERED\n    }\n\n    address[]public bidders;\n    uint public biddersCount = 0;\n    //mapping(address => uint) public bidders;\n\n    mapping(address => uint) public pendingReturns;\n    mapping(address => uint) public bids;\n    //address[]public bidders; \n\n    auction_state public auctionState;\n    nft public nftState;\n\n\n\n    modifier an_ongoing_auction(){ // controlla se l'asta  ancora aperta\n        require(block.timestamp <= auction_end);\n        _;\n    }\n    \n    modifier only_owner(){ // solo owner\n        require(msg.sender==auction_owner);\n        _;\n    }\n    \n    event startEvent(uint256 amount, uint time);\n    event BidEvent(address indexed highestBidder, uint256 highestBid);  \n    event WithdrawalEvent(address withdrawer, uint256 NftTokenURI);  // termina l'asta\n    event CanceledEvent(string message, uint256 time);  // annulla l'asta\n    event Sent(address from, address to, uint amount);\n    event ERC721Transfer(address to, uint token);\n    event ERC20Transfer(address to, uint amount);\n\n    constructor(\n        uint256 amount, \n        uint time, \n        ERC721 _nftContract, \n        ERC20 _tokenContract,\n        uint256 erc721Id,\n        address owner\n    ){  \n        //auction_owner = payable(msg.sender);\n        auction_owner = payable(owner);\n        auction_time = time;\n        startingBid = amount;\n        tokenId = erc721Id;\n        auction_end = block.timestamp + time;\n        auctionState=auction_state.STARTED;\n        nftState=nft.PENDING;\n        erc721Contract = _nftContract;\n        token = _tokenContract;\n        //emit startEvent(amount,auction_end);\n    }\n\n    function bid(uint256 amount) payable public {\n      \n        require(amount > highestBid,\"You can't bid, Make a higher Bid\");\n        require(msg.sender != auction_owner, \"Owner can't bid\");\n        uint256 balance = token.balanceOf(msg.sender);\n        require(amount <= balance, \"Not enough tokens in the wallet\");\n        if(highestBid != 0){\n            uint256 refund = bids[highestBidder];\n            pendingReturns[highestBidder] += refund;\n        }\n        if(bids[msg.sender] == 0){\n            addBidder();\n        }\n        highestBidder = msg.sender;\n        highestBid = amount;\n        bids[msg.sender] += amount;\n        token.transferFrom(msg.sender,address(this),amount);\n\n        emit BidEvent(highestBidder,highestBid);\n    }\n\n    function setTokenIdNft(uint256 id) public returns(bool){\n        tokenId = id;\n        return true;\n    }\n\n    function addBidder() public returns(bool){\n        bidders.push(msg.sender);\n        biddersCount ++;\n        return true;\n    }\n\n    function checkBidder(address addr) public view returns(bool){\n        for(uint i=0; i<biddersCount; i++){\n            if(bidders[i] == addr)\n                return true;\n        }\n        return false;\n    }  \n    \n    function withdraw() public payable {\n        uint amount = pendingReturns[msg.sender];\n        if(amount > 0){\n            pendingReturns[msg.sender] = 0;\n            token.transfer(msg.sender,amount);\n        }\n        emit WithdrawalEvent(msg.sender,amount);\n    }\n\n    \n    function endAuction() public returns(bool){\n        auctionState=auction_state.ENDED;\n        return true;\n    }\n\n    function closeAuction() public returns(bool){\n        auctionState=auction_state.CLOSED;\n        return true;\n    }\n\n    function getReward() payable public returns(bool){\n        auctionState = auction_state.ENDED;\n        erc721Contract.transferFrom(auction_owner, highestBidder, tokenId);\n        nftState=nft.DELIVERED;\n        emit ERC721Transfer(highestBidder,tokenId);\n        return true;\n    }\n\n    function getWin() public payable {\n        require(auctionState == auction_state.ENDED, \"You need to end the auction first\");\n        auctionState = auction_state.CLOSED;\n        token.transfer(msg.sender,highestBid);\n        emit ERC20Transfer(msg.sender,highestBid);\n    }\n}\n",
  "sourcePath": "/Users/mauriziocapone/Desktop/nftmarketplaceapp/contracts/NftMarket.sol",
  "compiler": {
    "name": "solc",
    "version": "0.8.1+commit.df193b15.Emscripten.clang"
  },
  "schemaVersion": "3.4.1",
  "updatedAt": "2021-09-13T17:15:34.640Z",
  "devdoc": {
    "kind": "dev",
    "methods": {},
    "version": 1
  },
  "userdoc": {
    "kind": "user",
    "methods": {},
    "version": 1
  }
}