{
  "contractName": "NftMarket",
  "abi": [
    {
      "inputs": [
        {
          "internalType": "contract IERC20",
          "name": "_auctionToken",
          "type": "address"
        }
      ],
      "stateMutability": "nonpayable",
      "type": "constructor"
    },
    {
      "anonymous": false,
      "inputs": [
        {
          "indexed": true,
          "internalType": "address",
          "name": "highestBidder",
          "type": "address"
        },
        {
          "indexed": false,
          "internalType": "uint256",
          "name": "highestBid",
          "type": "uint256"
        }
      ],
      "name": "BidEvent",
      "type": "event"
    },
    {
      "anonymous": false,
      "inputs": [
        {
          "indexed": false,
          "internalType": "string",
          "name": "message",
          "type": "string"
        },
        {
          "indexed": false,
          "internalType": "uint256",
          "name": "time",
          "type": "uint256"
        }
      ],
      "name": "CanceledEvent",
      "type": "event"
    },
    {
      "anonymous": false,
      "inputs": [
        {
          "indexed": false,
          "internalType": "address",
          "name": "to",
          "type": "address"
        },
        {
          "indexed": false,
          "internalType": "uint256",
          "name": "token",
          "type": "uint256"
        }
      ],
      "name": "ERC721Transfer",
      "type": "event"
    },
    {
      "anonymous": false,
      "inputs": [
        {
          "indexed": false,
          "internalType": "address",
          "name": "from",
          "type": "address"
        },
        {
          "indexed": false,
          "internalType": "address",
          "name": "to",
          "type": "address"
        },
        {
          "indexed": false,
          "internalType": "uint256",
          "name": "amount",
          "type": "uint256"
        }
      ],
      "name": "Sent",
      "type": "event"
    },
    {
      "anonymous": false,
      "inputs": [
        {
          "indexed": false,
          "internalType": "address",
          "name": "withdrawer",
          "type": "address"
        },
        {
          "indexed": false,
          "internalType": "uint256",
          "name": "NftTokenURI",
          "type": "uint256"
        }
      ],
      "name": "WithdrawalEvent",
      "type": "event"
    },
    {
      "anonymous": false,
      "inputs": [
        {
          "indexed": false,
          "internalType": "uint256",
          "name": "amount",
          "type": "uint256"
        },
        {
          "indexed": false,
          "internalType": "uint256",
          "name": "time",
          "type": "uint256"
        }
      ],
      "name": "startEvent",
      "type": "event"
    },
    {
      "inputs": [],
      "name": "STATE",
      "outputs": [
        {
          "internalType": "enum NftMarket.auction_state",
          "name": "",
          "type": "uint8"
        }
      ],
      "stateMutability": "view",
      "type": "function",
      "constant": true
    },
    {
      "inputs": [],
      "name": "auction_end",
      "outputs": [
        {
          "internalType": "uint256",
          "name": "",
          "type": "uint256"
        }
      ],
      "stateMutability": "view",
      "type": "function",
      "constant": true
    },
    {
      "inputs": [],
      "name": "auction_owner",
      "outputs": [
        {
          "internalType": "address payable",
          "name": "",
          "type": "address"
        }
      ],
      "stateMutability": "view",
      "type": "function",
      "constant": true
    },
    {
      "inputs": [],
      "name": "auction_time",
      "outputs": [
        {
          "internalType": "uint256",
          "name": "",
          "type": "uint256"
        }
      ],
      "stateMutability": "view",
      "type": "function",
      "constant": true
    },
    {
      "inputs": [
        {
          "internalType": "uint256",
          "name": "",
          "type": "uint256"
        }
      ],
      "name": "bidders",
      "outputs": [
        {
          "internalType": "address",
          "name": "",
          "type": "address"
        }
      ],
      "stateMutability": "view",
      "type": "function",
      "constant": true
    },
    {
      "inputs": [],
      "name": "biddersCount",
      "outputs": [
        {
          "internalType": "uint256",
          "name": "",
          "type": "uint256"
        }
      ],
      "stateMutability": "view",
      "type": "function",
      "constant": true
    },
    {
      "inputs": [
        {
          "internalType": "address",
          "name": "",
          "type": "address"
        }
      ],
      "name": "bids",
      "outputs": [
        {
          "internalType": "uint256",
          "name": "",
          "type": "uint256"
        }
      ],
      "stateMutability": "view",
      "type": "function",
      "constant": true
    },
    {
      "inputs": [],
      "name": "erc721Contract",
      "outputs": [
        {
          "internalType": "contract ERC721",
          "name": "",
          "type": "address"
        }
      ],
      "stateMutability": "view",
      "type": "function",
      "constant": true
    },
    {
      "inputs": [],
      "name": "highestBid",
      "outputs": [
        {
          "internalType": "uint256",
          "name": "",
          "type": "uint256"
        }
      ],
      "stateMutability": "view",
      "type": "function",
      "constant": true
    },
    {
      "inputs": [],
      "name": "highestBidder",
      "outputs": [
        {
          "internalType": "address",
          "name": "",
          "type": "address"
        }
      ],
      "stateMutability": "view",
      "type": "function",
      "constant": true
    },
    {
      "inputs": [
        {
          "internalType": "address",
          "name": "",
          "type": "address"
        }
      ],
      "name": "pendingReturns",
      "outputs": [
        {
          "internalType": "uint256",
          "name": "",
          "type": "uint256"
        }
      ],
      "stateMutability": "view",
      "type": "function",
      "constant": true
    },
    {
      "inputs": [],
      "name": "startingBid",
      "outputs": [
        {
          "internalType": "uint256",
          "name": "",
          "type": "uint256"
        }
      ],
      "stateMutability": "view",
      "type": "function",
      "constant": true
    },
    {
      "inputs": [],
      "name": "token",
      "outputs": [
        {
          "internalType": "contract IERC20",
          "name": "",
          "type": "address"
        }
      ],
      "stateMutability": "view",
      "type": "function",
      "constant": true
    },
    {
      "inputs": [],
      "name": "tokenId",
      "outputs": [
        {
          "internalType": "uint256",
          "name": "",
          "type": "uint256"
        }
      ],
      "stateMutability": "view",
      "type": "function",
      "constant": true
    },
    {
      "inputs": [
        {
          "internalType": "uint256",
          "name": "amount",
          "type": "uint256"
        },
        {
          "internalType": "uint256",
          "name": "time",
          "type": "uint256"
        },
        {
          "internalType": "contract ERC721",
          "name": "_contract",
          "type": "address"
        },
        {
          "internalType": "uint256",
          "name": "erc721Id",
          "type": "uint256"
        }
      ],
      "name": "startAuction",
      "outputs": [
        {
          "internalType": "bool",
          "name": "",
          "type": "bool"
        }
      ],
      "stateMutability": "nonpayable",
      "type": "function"
    },
    {
      "inputs": [
        {
          "internalType": "uint256",
          "name": "amount",
          "type": "uint256"
        }
      ],
      "name": "bid",
      "outputs": [],
      "stateMutability": "payable",
      "type": "function",
      "payable": true
    },
    {
      "inputs": [],
      "name": "cancel_auction",
      "outputs": [
        {
          "internalType": "bool",
          "name": "",
          "type": "bool"
        }
      ],
      "stateMutability": "nonpayable",
      "type": "function"
    },
    {
      "inputs": [
        {
          "internalType": "uint256",
          "name": "id",
          "type": "uint256"
        }
      ],
      "name": "setTokenIdNft",
      "outputs": [
        {
          "internalType": "bool",
          "name": "",
          "type": "bool"
        }
      ],
      "stateMutability": "nonpayable",
      "type": "function"
    },
    {
      "inputs": [],
      "name": "addBidder",
      "outputs": [
        {
          "internalType": "bool",
          "name": "",
          "type": "bool"
        }
      ],
      "stateMutability": "nonpayable",
      "type": "function"
    },
    {
      "inputs": [
        {
          "internalType": "address",
          "name": "addr",
          "type": "address"
        }
      ],
      "name": "checkBidder",
      "outputs": [
        {
          "internalType": "bool",
          "name": "",
          "type": "bool"
        }
      ],
      "stateMutability": "view",
      "type": "function",
      "constant": true
    },
    {
      "inputs": [],
      "name": "withdraw",
      "outputs": [
        {
          "internalType": "bool",
          "name": "",
          "type": "bool"
        }
      ],
      "stateMutability": "nonpayable",
      "type": "function"
    },
    {
      "inputs": [],
      "name": "auctionEnd",
      "outputs": [
        {
          "internalType": "bool",
          "name": "",
          "type": "bool"
        }
      ],
      "stateMutability": "payable",
      "type": "function",
      "payable": true
    },
    {
      "inputs": [],
      "name": "resetAuction",
      "outputs": [
        {
          "internalType": "bool",
          "name": "",
          "type": "bool"
        }
      ],
      "stateMutability": "nonpayable",
      "type": "function"
    }
  ],
  "bytecode": "0x60806040526000600a553480156200001657600080fd5b5060405162001d1838038062001d1883398181016040528101906200003c9190620000ed565b80600660006101000a81548173ffffffffffffffffffffffffffffffffffffffff021916908373ffffffffffffffffffffffffffffffffffffffff1602179055506000600d60006101000a81548160ff02191690836002811115620000ca577f4e487b7100000000000000000000000000000000000000000000000000000000600052602160045260246000fd5b0217905550506200017b565b600081519050620000e78162000161565b92915050565b6000602082840312156200010057600080fd5b60006200011084828501620000d6565b91505092915050565b6000620001268262000141565b9050919050565b60006200013a8262000119565b9050919050565b600073ffffffffffffffffffffffffffffffffffffffff82169050919050565b6200016c816200012d565b81146200017857600080fd5b50565b611b8d806200018b6000396000f3fe6080604052600436106101405760003560e01c80637d350453116100b6578063d57bde791161006f578063d57bde791461044c578063d7c97fb414610477578063e020bf1e146104a2578063eb15cc79146104cd578063eb748dd61461050a578063fc0c546a1461054757610140565b80637d3504531461033857806391f9015714610363578063b9fdd5691461038e578063c458b65a146103b9578063c486456c146103e4578063cff29dfd1461040f57610140565b80633ba88ca1116101085780633ba88ca1146102215780633ccfd60b1461024c578063454a2ab314610277578063519181031461029357806362ea82db146102d05780636ea947b71461030d57610140565b806317d70f7c146101455780631f8cdb04146101705780632356032d1461019b57806326b387bb146101c65780632a24f46c14610203575b600080fd5b34801561015157600080fd5b5061015a610572565b6040516101679190611793565b60405180910390f35b34801561017c57600080fd5b50610185610578565b6040516101929190611679565b60405180910390f35b3480156101a757600080fd5b506101b06105fc565b6040516101bd9190611793565b60405180910390f35b3480156101d257600080fd5b506101ed60048036038101906101e8919061137e565b610602565b6040516101fa9190611793565b60405180910390f35b61020b61061a565b6040516102189190611679565b60405180910390f35b34801561022d57600080fd5b506102366107ea565b6040516102439190611679565b60405180910390f35b34801561025857600080fd5b506102616108e3565b60405161026e9190611679565b60405180910390f35b610291600480360381019061028c91906113d0565b610a6a565b005b34801561029f57600080fd5b506102ba60048036038101906102b5919061137e565b610edf565b6040516102c79190611679565b60405180910390f35b3480156102dc57600080fd5b506102f760048036038101906102f2919061137e565b610fb1565b6040516103049190611793565b60405180910390f35b34801561031957600080fd5b50610322610fc9565b60405161032f9190611793565b60405180910390f35b34801561034457600080fd5b5061034d610fcf565b60405161035a9190611679565b60405180910390f35b34801561036f57600080fd5b506103786110c7565b60405161038591906115ac565b60405180910390f35b34801561039a57600080fd5b506103a36110ed565b6040516103b09190611793565b60405180910390f35b3480156103c557600080fd5b506103ce6110f3565b6040516103db9190611793565b60405180910390f35b3480156103f057600080fd5b506103f96110f9565b60405161040691906116ca565b60405180910390f35b34801561041b57600080fd5b50610436600480360381019061043191906113d0565b61110c565b60405161044391906115ac565b60405180910390f35b34801561045857600080fd5b5061046161114b565b60405161046e9190611793565b60405180910390f35b34801561048357600080fd5b5061048c611151565b6040516104999190611694565b60405180910390f35b3480156104ae57600080fd5b506104b7611177565b6040516104c491906115c7565b60405180910390f35b3480156104d957600080fd5b506104f460048036038101906104ef91906113d0565b61119b565b6040516105019190611679565b60405180910390f35b34801561051657600080fd5b50610531600480360381019061052c9190611422565b6111ad565b60405161053e9190611679565b60405180910390f35b34801561055357600080fd5b5061055c6112ef565b60405161056991906116af565b60405180910390f35b60085481565b60006009339080600181540180825580915050600190039060005260206000200160009091909190916101000a81548173ffffffffffffffffffffffffffffffffffffffff021916908373ffffffffffffffffffffffffffffffffffffffff160217905550600a60008154809291906105f09061194d565b91905055506001905090565b600a5481565b600b6020528060005260406000206000915090505481565b60006002544211610660576040517f08c379a0000000000000000000000000000000000000000000000000000000008152600401610657906116e5565b60405180910390fd5b6002600d60006101000a81548160ff021916908360028111156106ac577f4e487b7100000000000000000000000000000000000000000000000000000000600052602160045260246000fd5b0217905550600760009054906101000a900473ffffffffffffffffffffffffffffffffffffffff1673ffffffffffffffffffffffffffffffffffffffff166323b872dd60008054906101000a900473ffffffffffffffffffffffffffffffffffffffff16600460009054906101000a900473ffffffffffffffffffffffffffffffffffffffff166008546040518463ffffffff1660e01b8152600401610754939291906115e2565b600060405180830381600087803b15801561076e57600080fd5b505af1158015610782573d6000803e3d6000fd5b505050507f211b87f8e9320b85590c770a676bf3d5109a5562baf8cfaee8dbf46e34965d85600460009054906101000a900473ffffffffffffffffffffffffffffffffffffffff166008546040516107db929190611650565b60405180910390a16001905090565b60008060009054906101000a900473ffffffffffffffffffffffffffffffffffffffff1673ffffffffffffffffffffffffffffffffffffffff163373ffffffffffffffffffffffffffffffffffffffff161461084557600080fd5b60025442111561085457600080fd5b6000600d60006101000a81548160ff021916908360028111156108a0577f4e487b7100000000000000000000000000000000000000000000000000000000600052602160045260246000fd5b02179055507f06b08932edfa95ecf10e18f8e389c58332551bbfe5faf843ed9afb329fd14118426040516108d49190611745565b60405180910390a16001905090565b600080600b60003373ffffffffffffffffffffffffffffffffffffffff1673ffffffffffffffffffffffffffffffffffffffff1681526020019081526020016000205490506000811115610a29576000600b60003373ffffffffffffffffffffffffffffffffffffffff1673ffffffffffffffffffffffffffffffffffffffff16815260200190815260200160002081905550600660009054906101000a900473ffffffffffffffffffffffffffffffffffffffff1673ffffffffffffffffffffffffffffffffffffffff166323b872dd3033846040518463ffffffff1660e01b81526004016109d593929190611619565b602060405180830381600087803b1580156109ef57600080fd5b505af1158015610a03573d6000803e3d6000fd5b505050506040513d601f19601f82011682018060405250810190610a2791906113a7565b505b7f2f174ca282119315c59efaf21147aef438581dabdeb498198ae28964373dd8bc3382604051610a5a929190611650565b60405180910390a1600191505090565b6003548111610aae576040517f08c379a0000000000000000000000000000000000000000000000000000000008152600401610aa590611725565b60405180910390fd5b60008054906101000a900473ffffffffffffffffffffffffffffffffffffffff1673ffffffffffffffffffffffffffffffffffffffff163373ffffffffffffffffffffffffffffffffffffffff161415610b3d576040517f08c379a0000000000000000000000000000000000000000000000000000000008152600401610b3490611705565b60405180910390fd5b6000600660009054906101000a900473ffffffffffffffffffffffffffffffffffffffff1673ffffffffffffffffffffffffffffffffffffffff166370a08231336040518263ffffffff1660e01b8152600401610b9a91906115ac565b60206040518083038186803b158015610bb257600080fd5b505afa158015610bc6573d6000803e3d6000fd5b505050506040513d601f19601f82011682018060405250810190610bea91906113f9565b905080821115610c2f576040517f08c379a0000000000000000000000000000000000000000000000000000000008152600401610c2690611773565b60405180910390fd5b600060035414610d19576000600c6000600460009054906101000a900473ffffffffffffffffffffffffffffffffffffffff1673ffffffffffffffffffffffffffffffffffffffff1673ffffffffffffffffffffffffffffffffffffffff16815260200190815260200160002054905080600b6000600460009054906101000a900473ffffffffffffffffffffffffffffffffffffffff1673ffffffffffffffffffffffffffffffffffffffff1673ffffffffffffffffffffffffffffffffffffffff1681526020019081526020016000206000828254610d1091906117e8565b92505081905550505b33600460006101000a81548173ffffffffffffffffffffffffffffffffffffffff021916908373ffffffffffffffffffffffffffffffffffffffff1602179055508160038190555081600c60003373ffffffffffffffffffffffffffffffffffffffff1673ffffffffffffffffffffffffffffffffffffffff1681526020019081526020016000206000828254610db091906117e8565b92505081905550600660009054906101000a900473ffffffffffffffffffffffffffffffffffffffff1673ffffffffffffffffffffffffffffffffffffffff166323b872dd3330856040518463ffffffff1660e01b8152600401610e1693929190611619565b602060405180830381600087803b158015610e3057600080fd5b505af1158015610e44573d6000803e3d6000fd5b505050506040513d601f19601f82011682018060405250810190610e6891906113a7565b50600460009054906101000a900473ffffffffffffffffffffffffffffffffffffffff1673ffffffffffffffffffffffffffffffffffffffff167f0d993d4f8a84158f5329713d6d13ef54e77b325040c887c8b3e565cfd0cd3e21600354604051610ed39190611793565b60405180910390a25050565b600080600090505b600a54811015610fa6578273ffffffffffffffffffffffffffffffffffffffff1660098281548110610f42577f4e487b7100000000000000000000000000000000000000000000000000000000600052603260045260246000fd5b9060005260206000200160009054906101000a900473ffffffffffffffffffffffffffffffffffffffff1673ffffffffffffffffffffffffffffffffffffffff161415610f93576001915050610fac565b8080610f9e9061194d565b915050610ee7565b50600090505b919050565b600c6020528060005260406000206000915090505481565b60015481565b60008060028190555060006005819055506000600381905550600060088190555060005b600a548110156110bf57600060098281548110611039577f4e487b7100000000000000000000000000000000000000000000000000000000600052603260045260246000fd5b9060005260206000200160009054906101000a900473ffffffffffffffffffffffffffffffffffffffff1690506000600c60008373ffffffffffffffffffffffffffffffffffffffff1673ffffffffffffffffffffffffffffffffffffffff168152602001908152602001600020819055505080806110b79061194d565b915050610ff3565b506001905090565b600460009054906101000a900473ffffffffffffffffffffffffffffffffffffffff1681565b60055481565b60025481565b600d60009054906101000a900460ff1681565b6009818154811061111c57600080fd5b906000526020600020016000915054906101000a900473ffffffffffffffffffffffffffffffffffffffff1681565b60035481565b600760009054906101000a900473ffffffffffffffffffffffffffffffffffffffff1681565b60008054906101000a900473ffffffffffffffffffffffffffffffffffffffff1681565b60008160088190555060019050919050565b6000336000806101000a81548173ffffffffffffffffffffffffffffffffffffffff021916908373ffffffffffffffffffffffffffffffffffffffff160217905550836001819055508460058190555081600881905550834261121091906117e8565b6002819055506001600d60006101000a81548160ff02191690836002811115611262577f4e487b7100000000000000000000000000000000000000000000000000000000600052602160045260246000fd5b021790555082600760006101000a81548173ffffffffffffffffffffffffffffffffffffffff021916908373ffffffffffffffffffffffffffffffffffffffff1602179055507f856a55cfc8801cd05c4d93396793d5f98fb44cd62c10aa8ea525da43465cae15856002546040516112db9291906117ae565b60405180910390a160019050949350505050565b600660009054906101000a900473ffffffffffffffffffffffffffffffffffffffff1681565b60008135905061132481611afb565b92915050565b60008151905061133981611b12565b92915050565b60008135905061134e81611b29565b92915050565b60008135905061136381611b40565b92915050565b60008151905061137881611b40565b92915050565b60006020828403121561139057600080fd5b600061139e84828501611315565b91505092915050565b6000602082840312156113b957600080fd5b60006113c78482850161132a565b91505092915050565b6000602082840312156113e257600080fd5b60006113f084828501611354565b91505092915050565b60006020828403121561140b57600080fd5b600061141984828501611369565b91505092915050565b6000806000806080858703121561143857600080fd5b600061144687828801611354565b945050602061145787828801611354565b93505060406114688782880161133f565b925050606061147987828801611354565b91505092959194509250565b61148e816118bd565b82525050565b61149d81611850565b82525050565b6114ac8161183e565b82525050565b6114bb81611862565b82525050565b6114ca816118cf565b82525050565b6114d9816118f3565b82525050565b6114e881611917565b82525050565b60006114fb602d836117d7565b9150611506826119f4565b604082019050919050565b600061151e600f836117d7565b915061152982611a43565b602082019050919050565b60006115416020836117d7565b915061154c82611a6c565b602082019050919050565b60006115646011836117d7565b915061156f82611a95565b602082019050919050565b6000611587601f836117d7565b915061159282611abe565b602082019050919050565b6115a6816118b3565b82525050565b60006020820190506115c160008301846114a3565b92915050565b60006020820190506115dc6000830184611494565b92915050565b60006060820190506115f76000830186611485565b61160460208301856114a3565b611611604083018461159d565b949350505050565b600060608201905061162e60008301866114a3565b61163b60208301856114a3565b611648604083018461159d565b949350505050565b600060408201905061166560008301856114a3565b611672602083018461159d565b9392505050565b600060208201905061168e60008301846114b2565b92915050565b60006020820190506116a960008301846114c1565b92915050565b60006020820190506116c460008301846114d0565b92915050565b60006020820190506116df60008301846114df565b92915050565b600060208201905081810360008301526116fe816114ee565b9050919050565b6000602082019050818103600083015261171e81611511565b9050919050565b6000602082019050818103600083015261173e81611534565b9050919050565b6000604082019050818103600083015261175e81611557565b905061176d602083018461159d565b92915050565b6000602082019050818103600083015261178c8161157a565b9050919050565b60006020820190506117a8600083018461159d565b92915050565b60006040820190506117c3600083018561159d565b6117d0602083018461159d565b9392505050565b600082825260208201905092915050565b60006117f3826118b3565b91506117fe836118b3565b9250827fffffffffffffffffffffffffffffffffffffffffffffffffffffffffffffffff0382111561183357611832611996565b5b828201905092915050565b600061184982611893565b9050919050565b600061185b82611893565b9050919050565b60008115159050919050565b60006118798261183e565b9050919050565b600081905061188e82611ae7565b919050565b600073ffffffffffffffffffffffffffffffffffffffff82169050919050565b6000819050919050565b60006118c882611929565b9050919050565b60006118da826118e1565b9050919050565b60006118ec82611893565b9050919050565b60006118fe82611905565b9050919050565b600061191082611893565b9050919050565b600061192282611880565b9050919050565b60006119348261193b565b9050919050565b600061194682611893565b9050919050565b6000611958826118b3565b91507fffffffffffffffffffffffffffffffffffffffffffffffffffffffffffffffff82141561198b5761198a611996565b5b600182019050919050565b7f4e487b7100000000000000000000000000000000000000000000000000000000600052601160045260246000fd5b7f4e487b7100000000000000000000000000000000000000000000000000000000600052602160045260246000fd5b7f596f752063616e27742077697468647261772c207468652061756374696f6e2060008201527f6973207374696c6c206f70656e00000000000000000000000000000000000000602082015250565b7f4f776e65722063616e2774206269640000000000000000000000000000000000600082015250565b7f596f752063616e2774206269642c204d616b6520612068696768657220426964600082015250565b7f41756374696f6e2043616e63656c6c6564000000000000000000000000000000600082015250565b7f4e6f7420656e6f75676820746f6b656e7320696e207468652077616c6c657400600082015250565b60038110611af857611af76119c5565b5b50565b611b048161183e565b8114611b0f57600080fd5b50565b611b1b81611862565b8114611b2657600080fd5b50565b611b328161186e565b8114611b3d57600080fd5b50565b611b49816118b3565b8114611b5457600080fd5b5056fea2646970667358221220e2de2017b96f53ac6487cb94d023fc08f6aa43831a1972369f545b4790edfd1364736f6c63430008010033",
  "immutableReferences": {},
  "source": "// SPDX-License-Identifier: MIT\npragma solidity ^0.8.0;\n\nimport './AuctionToken.sol';\nimport './DeadpoolErc721.sol';\nimport './SupermanErc721.sol';\nimport './HulkErc721.sol';\n\n\ncontract NftMarket {\n    \n    address payable public auction_owner;\n    uint public auction_time;\n    uint public auction_end;\n    uint256 public highestBid;\n    address public highestBidder;\n    uint256 public startingBid;\n\n    IERC20 public token;\n    ERC721 public erc721Contract;\n    uint256 public tokenId;\n\n    enum auction_state{\n        OFF,STARTED,ENDED\n    }\n\n    address[]public bidders;\n    uint public biddersCount = 0;\n    mapping(address => uint) public pendingReturns;\n    mapping(address => uint) public bids;\n\n    auction_state public STATE;\n\n\n    modifier an_ongoing_auction(){ // controlla se l'asta  ancora aperta\n        require(block.timestamp <= auction_end);\n        _;\n    }\n    \n    modifier only_owner(){ // solo owner\n        require(msg.sender==auction_owner);\n        _;\n    }\n    \n    event startEvent(uint256 amount, uint time);\n    event BidEvent(address indexed highestBidder, uint256 highestBid); //  \n    event WithdrawalEvent(address withdrawer, uint256 NftTokenURI); // termina l'asta\n    event CanceledEvent(string message, uint256 time);  // annulla l'asta\n    event Sent(address from, address to, uint amount);\n    event ERC721Transfer(address to, uint token);\n    \n  \n    constructor (\n            IERC20 _auctionToken\n    )\n    {\n            token = _auctionToken;\n            STATE = auction_state.OFF;\n    }\n\n    function startAuction(uint256 amount, uint time, ERC721 _contract, uint256 erc721Id) external returns(bool){\n       \n        auction_owner = payable(msg.sender);\n        auction_time = time;\n        startingBid = amount;\n        tokenId = erc721Id;\n        auction_end = block.timestamp + time;\n        STATE=auction_state.STARTED;\n        erc721Contract = _contract;\n        emit startEvent(amount,auction_end);\n        return true;\n    }\n \n\n    function bid(uint256 amount) payable public {\n      \n        require(amount > highestBid,\"You can't bid, Make a higher Bid\");\n        require(msg.sender != auction_owner, \"Owner can't bid\");\n        uint256 balance = token.balanceOf(msg.sender);\n        require(amount <= balance, \"Not enough tokens in the wallet\");\n        if(highestBid != 0){\n            uint256 refund = bids[highestBidder];\n            pendingReturns[highestBidder] += refund;\n        }\n        highestBidder = msg.sender;\n        highestBid = amount;\n        bids[msg.sender] += amount;\n        token.transferFrom(msg.sender,address(this),amount);\n        emit BidEvent(highestBidder,highestBid);\n    }\n  \n    function cancel_auction() external only_owner  an_ongoing_auction returns (bool){\n        STATE=auction_state.OFF;\n        emit CanceledEvent(\"Auction Cancelled\", block.timestamp);\n        return true;\n    }\n\n    function setTokenIdNft(uint256 id) public returns(bool){\n        tokenId = id;\n        return true;\n    }\n\n    function addBidder() public returns(bool){\n        bidders.push(msg.sender);\n        biddersCount ++;\n        return true;\n    }\n\n    function checkBidder(address addr) public view returns(bool){\n        for(uint i=0; i<biddersCount; i++){\n            if(bidders[i] == addr)\n                return true;\n        }\n        return false;\n    }\n    \n    \n    function withdraw() public returns(bool) {\n        uint amount = pendingReturns[msg.sender];\n        if(amount > 0){\n            pendingReturns[msg.sender] = 0;\n            token.transferFrom(address(this),msg.sender,amount);\n        }\n        emit WithdrawalEvent(msg.sender,amount);\n        return true; \n    }\n\n    function auctionEnd() payable public returns(bool){\n        require(block.timestamp > auction_end ,\"You can't withdraw, the auction is still open\");\n        STATE=auction_state.ENDED;\n        erc721Contract.transferFrom(auction_owner, highestBidder, tokenId);\n        emit ERC721Transfer(highestBidder,tokenId);\n        return true;\n    }\n\n    function resetAuction() public returns(bool){\n        auction_end = 0;\n        startingBid = 0;\n        highestBid = 0;\n        tokenId = 0;\n\n        for(uint i=0; i<biddersCount; i++){\n            address bidder = bidders[i];\n            bids[bidder] = 0;\n        }\n        return true;\n    }\n}\n",
  "sourcePath": "/Users/mauriziocapone/Desktop/nftmarketplaceapp/contracts/NftMarket.sol",
  "compiler": {
    "name": "solc",
    "version": "0.8.1+commit.df193b15.Emscripten.clang"
  },
  "schemaVersion": "3.4.1",
  "updatedAt": "2021-08-10T07:05:22.458Z",
  "networkType": "ethereum",
  "devdoc": {
    "kind": "dev",
    "methods": {},
    "version": 1
  },
  "userdoc": {
    "kind": "user",
    "methods": {},
    "version": 1
  }
}