{
  "contractName": "NftMarket",
  "abi": [
    {
      "inputs": [
        {
          "internalType": "contract IERC20",
          "name": "_auctionToken",
          "type": "address"
        }
      ],
      "stateMutability": "nonpayable",
      "type": "constructor"
    },
    {
      "anonymous": false,
      "inputs": [
        {
          "indexed": true,
          "internalType": "address",
          "name": "highestBidder",
          "type": "address"
        },
        {
          "indexed": false,
          "internalType": "uint256",
          "name": "highestBid",
          "type": "uint256"
        }
      ],
      "name": "BidEvent",
      "type": "event"
    },
    {
      "anonymous": false,
      "inputs": [
        {
          "indexed": false,
          "internalType": "string",
          "name": "message",
          "type": "string"
        },
        {
          "indexed": false,
          "internalType": "uint256",
          "name": "time",
          "type": "uint256"
        }
      ],
      "name": "CanceledEvent",
      "type": "event"
    },
    {
      "anonymous": false,
      "inputs": [
        {
          "indexed": false,
          "internalType": "address",
          "name": "from",
          "type": "address"
        },
        {
          "indexed": false,
          "internalType": "address",
          "name": "to",
          "type": "address"
        },
        {
          "indexed": false,
          "internalType": "uint256",
          "name": "amount",
          "type": "uint256"
        }
      ],
      "name": "Sent",
      "type": "event"
    },
    {
      "anonymous": false,
      "inputs": [
        {
          "indexed": false,
          "internalType": "address",
          "name": "withdrawer",
          "type": "address"
        },
        {
          "indexed": false,
          "internalType": "uint256",
          "name": "NftTokenURI",
          "type": "uint256"
        }
      ],
      "name": "WithdrawalEvent",
      "type": "event"
    },
    {
      "anonymous": false,
      "inputs": [
        {
          "indexed": false,
          "internalType": "uint256",
          "name": "amount",
          "type": "uint256"
        },
        {
          "indexed": false,
          "internalType": "uint256",
          "name": "time",
          "type": "uint256"
        }
      ],
      "name": "startEvent",
      "type": "event"
    },
    {
      "inputs": [],
      "name": "STATE",
      "outputs": [
        {
          "internalType": "enum NftMarket.auction_state",
          "name": "",
          "type": "uint8"
        }
      ],
      "stateMutability": "view",
      "type": "function",
      "constant": true
    },
    {
      "inputs": [],
      "name": "auction_end",
      "outputs": [
        {
          "internalType": "uint256",
          "name": "",
          "type": "uint256"
        }
      ],
      "stateMutability": "view",
      "type": "function",
      "constant": true
    },
    {
      "inputs": [],
      "name": "auction_owner",
      "outputs": [
        {
          "internalType": "address payable",
          "name": "",
          "type": "address"
        }
      ],
      "stateMutability": "view",
      "type": "function",
      "constant": true
    },
    {
      "inputs": [],
      "name": "auction_start",
      "outputs": [
        {
          "internalType": "uint256",
          "name": "",
          "type": "uint256"
        }
      ],
      "stateMutability": "view",
      "type": "function",
      "constant": true
    },
    {
      "inputs": [
        {
          "internalType": "address",
          "name": "",
          "type": "address"
        }
      ],
      "name": "bids",
      "outputs": [
        {
          "internalType": "uint256",
          "name": "",
          "type": "uint256"
        }
      ],
      "stateMutability": "view",
      "type": "function",
      "constant": true
    },
    {
      "inputs": [],
      "name": "bidsCounter",
      "outputs": [
        {
          "internalType": "uint256",
          "name": "",
          "type": "uint256"
        }
      ],
      "stateMutability": "view",
      "type": "function",
      "constant": true
    },
    {
      "inputs": [],
      "name": "erc721Contract",
      "outputs": [
        {
          "internalType": "contract ERC721",
          "name": "",
          "type": "address"
        }
      ],
      "stateMutability": "view",
      "type": "function",
      "constant": true
    },
    {
      "inputs": [],
      "name": "highestBid",
      "outputs": [
        {
          "internalType": "uint256",
          "name": "",
          "type": "uint256"
        }
      ],
      "stateMutability": "view",
      "type": "function",
      "constant": true
    },
    {
      "inputs": [],
      "name": "highestBidder",
      "outputs": [
        {
          "internalType": "address",
          "name": "",
          "type": "address"
        }
      ],
      "stateMutability": "view",
      "type": "function",
      "constant": true
    },
    {
      "inputs": [
        {
          "internalType": "address",
          "name": "",
          "type": "address"
        }
      ],
      "name": "pendingReturns",
      "outputs": [
        {
          "internalType": "uint256",
          "name": "",
          "type": "uint256"
        }
      ],
      "stateMutability": "view",
      "type": "function",
      "constant": true
    },
    {
      "inputs": [],
      "name": "startingBid",
      "outputs": [
        {
          "internalType": "uint256",
          "name": "",
          "type": "uint256"
        }
      ],
      "stateMutability": "view",
      "type": "function",
      "constant": true
    },
    {
      "inputs": [],
      "name": "token",
      "outputs": [
        {
          "internalType": "contract IERC20",
          "name": "",
          "type": "address"
        }
      ],
      "stateMutability": "view",
      "type": "function",
      "constant": true
    },
    {
      "inputs": [
        {
          "internalType": "string",
          "name": "",
          "type": "string"
        }
      ],
      "name": "userAddress",
      "outputs": [
        {
          "internalType": "address",
          "name": "",
          "type": "address"
        }
      ],
      "stateMutability": "view",
      "type": "function",
      "constant": true
    },
    {
      "inputs": [
        {
          "internalType": "string",
          "name": "username",
          "type": "string"
        }
      ],
      "name": "setNewBidderUser",
      "outputs": [],
      "stateMutability": "nonpayable",
      "type": "function"
    },
    {
      "inputs": [
        {
          "internalType": "uint256",
          "name": "amount",
          "type": "uint256"
        },
        {
          "internalType": "uint256",
          "name": "time",
          "type": "uint256"
        },
        {
          "internalType": "contract ERC721",
          "name": "_contract",
          "type": "address"
        }
      ],
      "name": "startAuction",
      "outputs": [
        {
          "internalType": "bool",
          "name": "",
          "type": "bool"
        }
      ],
      "stateMutability": "nonpayable",
      "type": "function"
    },
    {
      "inputs": [
        {
          "internalType": "uint256",
          "name": "amount",
          "type": "uint256"
        }
      ],
      "name": "bid",
      "outputs": [],
      "stateMutability": "payable",
      "type": "function",
      "payable": true
    },
    {
      "inputs": [],
      "name": "cancel_auction",
      "outputs": [
        {
          "internalType": "bool",
          "name": "",
          "type": "bool"
        }
      ],
      "stateMutability": "nonpayable",
      "type": "function"
    },
    {
      "inputs": [],
      "name": "withdraw",
      "outputs": [
        {
          "internalType": "bool",
          "name": "",
          "type": "bool"
        }
      ],
      "stateMutability": "nonpayable",
      "type": "function"
    },
    {
      "inputs": [],
      "name": "auctionEnd",
      "outputs": [
        {
          "internalType": "bool",
          "name": "",
          "type": "bool"
        }
      ],
      "stateMutability": "nonpayable",
      "type": "function"
    }
  ],
  "bytecode": "0x6080604052600060065560006007553480156200001b57600080fd5b5060405162001c6838038062001c688339818101604052810190620000419190620000e0565b80600860006101000a81548173ffffffffffffffffffffffffffffffffffffffff021916908373ffffffffffffffffffffffffffffffffffffffff160217905550336000806101000a81548173ffffffffffffffffffffffffffffffffffffffff021916908373ffffffffffffffffffffffffffffffffffffffff160217905550506200016e565b600081519050620000da8162000154565b92915050565b600060208284031215620000f357600080fd5b60006200010384828501620000c9565b91505092915050565b6000620001198262000134565b9050919050565b60006200012d826200010c565b9050919050565b600073ffffffffffffffffffffffffffffffffffffffff82169050919050565b6200015f8162000120565b81146200016b57600080fd5b50565b611aea806200017e6000396000f3fe6080604052600436106101145760003560e01c806391f90157116100a0578063d57bde7911610064578063d57bde7914610398578063d7c97fb4146103c3578063e020bf1e146103ee578063ea9ce5b014610419578063fc0c546a1461045657610114565b806391f90157146102c1578063b9fdd569146102ec578063c458b65a14610317578063c486456c14610342578063caee45c81461036d57610114565b8063454a2ab3116100e7578063454a2ab3146101d75780635c1f7f7a146101f35780635c9566dc1461021c57806362ea82db1461025957806378f453401461029657610114565b806326b387bb146101195780632a24f46c146101565780633ba88ca1146101815780633ccfd60b146101ac575b600080fd5b34801561012557600080fd5b50610140600480360381019061013b9190611147565b610481565b60405161014d91906115d1565b60405180910390f35b34801561016257600080fd5b5061016b610499565b60405161017891906114b7565b60405180910390f35b34801561018d57600080fd5b50610196610671565b6040516101a391906114b7565b60405180910390f35b3480156101b857600080fd5b506101c161076a565b6040516101ce91906114b7565b60405180910390f35b6101f160048036038101906101ec91906111da565b6108c7565b005b3480156101ff57600080fd5b5061021a60048036038101906102159190611199565b610df2565b005b34801561022857600080fd5b50610243600480360381019061023e9190611199565b610e52565b60405161025091906113ea565b60405180910390f35b34801561026557600080fd5b50610280600480360381019061027b9190611147565b610e9b565b60405161028d91906115d1565b60405180910390f35b3480156102a257600080fd5b506102ab610eb3565b6040516102b891906115d1565b60405180910390f35b3480156102cd57600080fd5b506102d6610eb9565b6040516102e391906113ea565b60405180910390f35b3480156102f857600080fd5b50610301610edf565b60405161030e91906115d1565b60405180910390f35b34801561032357600080fd5b5061032c610ee5565b60405161033991906115d1565b60405180910390f35b34801561034e57600080fd5b50610357610eeb565b6040516103649190611508565b60405180910390f35b34801561037957600080fd5b50610382610efe565b60405161038f91906115d1565b60405180910390f35b3480156103a457600080fd5b506103ad610f04565b6040516103ba91906115d1565b60405180910390f35b3480156103cf57600080fd5b506103d8610f0a565b6040516103e591906114d2565b60405180910390f35b3480156103fa57600080fd5b50610403610f30565b6040516104109190611405565b60405180910390f35b34801561042557600080fd5b50610440600480360381019061043b919061122c565b610f54565b60405161044d91906114b7565b60405180910390f35b34801561046257600080fd5b5061046b611050565b60405161047891906114ed565b60405180910390f35b600b6020528060005260406000206000915090505481565b600060025442116104df576040517f08c379a00000000000000000000000000000000000000000000000000000000081526004016104d690611523565b60405180910390fd5b600060019050600960009054906101000a900473ffffffffffffffffffffffffffffffffffffffff1673ffffffffffffffffffffffffffffffffffffffff1663095ea7b3600460009054906101000a900473ffffffffffffffffffffffffffffffffffffffff16836040518363ffffffff1660e01b815260040161056492919061148e565b600060405180830381600087803b15801561057e57600080fd5b505af1158015610592573d6000803e3d6000fd5b50505050600960009054906101000a900473ffffffffffffffffffffffffffffffffffffffff1673ffffffffffffffffffffffffffffffffffffffff166342842e0e60008054906101000a900473ffffffffffffffffffffffffffffffffffffffff16600460009054906101000a900473ffffffffffffffffffffffffffffffffffffffff16846040518463ffffffff1660e01b815260040161063793929190611420565b600060405180830381600087803b15801561065157600080fd5b505af1158015610665573d6000803e3d6000fd5b50505050600191505090565b60008060009054906101000a900473ffffffffffffffffffffffffffffffffffffffff1673ffffffffffffffffffffffffffffffffffffffff163373ffffffffffffffffffffffffffffffffffffffff16146106cc57600080fd5b6002544211156106db57600080fd5b6000600e60006101000a81548160ff02191690836001811115610727577f4e487b7100000000000000000000000000000000000000000000000000000000600052602160045260246000fd5b02179055507f06b08932edfa95ecf10e18f8e389c58332551bbfe5faf843ed9afb329fd141184260405161075b9190611583565b60405180910390a16001905090565b600080600b60003373ffffffffffffffffffffffffffffffffffffffff1673ffffffffffffffffffffffffffffffffffffffff1681526020019081526020016000205490506000811115610885576000600b60003373ffffffffffffffffffffffffffffffffffffffff1673ffffffffffffffffffffffffffffffffffffffff168152602001908152602001600020819055503373ffffffffffffffffffffffffffffffffffffffff166108fc829081150290604051600060405180830381858888f193505050506108845780600b60003373ffffffffffffffffffffffffffffffffffffffff1673ffffffffffffffffffffffffffffffffffffffff1681526020019081526020016000208190555060009150506108c4565b5b7f2f174ca282119315c59efaf21147aef438581dabdeb498198ae28964373dd8bc33826040516108b692919061148e565b60405180910390a160019150505b90565b600354811161090b576040517f08c379a000000000000000000000000000000000000000000000000000000000815260040161090290611563565b60405180910390fd5b60008054906101000a900473ffffffffffffffffffffffffffffffffffffffff1673ffffffffffffffffffffffffffffffffffffffff163373ffffffffffffffffffffffffffffffffffffffff16141561099a576040517f08c379a000000000000000000000000000000000000000000000000000000000815260040161099190611543565b60405180910390fd5b6000600860009054906101000a900473ffffffffffffffffffffffffffffffffffffffff1673ffffffffffffffffffffffffffffffffffffffff166370a08231336040518263ffffffff1660e01b81526004016109f791906113ea565b60206040518083038186803b158015610a0f57600080fd5b505afa158015610a23573d6000803e3d6000fd5b505050506040513d601f19601f82011682018060405250810190610a479190611203565b905080821115610a8c576040517f08c379a0000000000000000000000000000000000000000000000000000000008152600401610a83906115b1565b60405180910390fd5b600860009054906101000a900473ffffffffffffffffffffffffffffffffffffffff1673ffffffffffffffffffffffffffffffffffffffff1663095ea7b330846040518363ffffffff1660e01b8152600401610ae992919061148e565b602060405180830381600087803b158015610b0357600080fd5b505af1158015610b17573d6000803e3d6000fd5b505050506040513d601f19601f82011682018060405250810190610b3b9190611170565b50600060035414610c26576000600d6000600460009054906101000a900473ffffffffffffffffffffffffffffffffffffffff1673ffffffffffffffffffffffffffffffffffffffff1673ffffffffffffffffffffffffffffffffffffffff16815260200190815260200160002054905080600b6000600460009054906101000a900473ffffffffffffffffffffffffffffffffffffffff1673ffffffffffffffffffffffffffffffffffffffff1673ffffffffffffffffffffffffffffffffffffffff1681526020019081526020016000206000828254610c1d9190611692565b92505081905550505b33600460006101000a81548173ffffffffffffffffffffffffffffffffffffffff021916908373ffffffffffffffffffffffffffffffffffffffff1602179055508160038190555081600d60003373ffffffffffffffffffffffffffffffffffffffff1673ffffffffffffffffffffffffffffffffffffffff16815260200190815260200160002081905550600860009054906101000a900473ffffffffffffffffffffffffffffffffffffffff1673ffffffffffffffffffffffffffffffffffffffff166323b872dd3330856040518463ffffffff1660e01b8152600401610d1193929190611457565b602060405180830381600087803b158015610d2b57600080fd5b505af1158015610d3f573d6000803e3d6000fd5b505050506040513d601f19601f82011682018060405250810190610d639190611170565b5060076000815480929190610d779061186a565b9190505550600460009054906101000a900473ffffffffffffffffffffffffffffffffffffffff1673ffffffffffffffffffffffffffffffffffffffff167f0d993d4f8a84158f5329713d6d13ef54e77b325040c887c8b3e565cfd0cd3e21600354604051610de691906115d1565b60405180910390a25050565b33600a82604051610e0391906113d3565b908152602001604051809103902060006101000a81548173ffffffffffffffffffffffffffffffffffffffff021916908373ffffffffffffffffffffffffffffffffffffffff16021790555050565b600a818051602081018201805184825260208301602085012081835280955050505050506000915054906101000a900473ffffffffffffffffffffffffffffffffffffffff1681565b600d6020528060005260406000206000915090505481565b60015481565b600460009054906101000a900473ffffffffffffffffffffffffffffffffffffffff1681565b60055481565b60025481565b600e60009054906101000a900460ff1681565b60075481565b60035481565b600960009054906101000a900473ffffffffffffffffffffffffffffffffffffffff1681565b60008054906101000a900473ffffffffffffffffffffffffffffffffffffffff1681565b6000836005819055504260018190555082600154610f729190611692565b6002819055506001600e60006101000a81548160ff02191690836001811115610fc4577f4e487b7100000000000000000000000000000000000000000000000000000000600052602160045260246000fd5b021790555081600960006101000a81548173ffffffffffffffffffffffffffffffffffffffff021916908373ffffffffffffffffffffffffffffffffffffffff1602179055507f856a55cfc8801cd05c4d93396793d5f98fb44cd62c10aa8ea525da43465cae158460015460405161103d9291906115ec565b60405180910390a1600190509392505050565b600860009054906101000a900473ffffffffffffffffffffffffffffffffffffffff1681565b60006110896110848461163a565b611615565b9050828152602081018484840111156110a157600080fd5b6110ac8482856117f7565b509392505050565b6000813590506110c381611a58565b92915050565b6000815190506110d881611a6f565b92915050565b6000813590506110ed81611a86565b92915050565b600082601f83011261110457600080fd5b8135611114848260208601611076565b91505092915050565b60008135905061112c81611a9d565b92915050565b60008151905061114181611a9d565b92915050565b60006020828403121561115957600080fd5b6000611167848285016110b4565b91505092915050565b60006020828403121561118257600080fd5b6000611190848285016110c9565b91505092915050565b6000602082840312156111ab57600080fd5b600082013567ffffffffffffffff8111156111c557600080fd5b6111d1848285016110f3565b91505092915050565b6000602082840312156111ec57600080fd5b60006111fa8482850161111d565b91505092915050565b60006020828403121561121557600080fd5b600061122384828501611132565b91505092915050565b60008060006060848603121561124157600080fd5b600061124f8682870161111d565b93505060206112608682870161111d565b9250506040611271868287016110de565b9150509250925092565b61128481611767565b82525050565b611293816116fa565b82525050565b6112a2816116e8565b82525050565b6112b18161170c565b82525050565b6112c081611779565b82525050565b6112cf8161179d565b82525050565b6112de816117c1565b82525050565b60006112ef8261166b565b6112f98185611687565b9350611309818560208601611806565b80840191505092915050565b6000611322602d83611676565b915061132d82611951565b604082019050919050565b6000611345600f83611676565b9150611350826119a0565b602082019050919050565b6000611368602083611676565b9150611373826119c9565b602082019050919050565b600061138b601183611676565b9150611396826119f2565b602082019050919050565b60006113ae601f83611676565b91506113b982611a1b565b602082019050919050565b6113cd8161175d565b82525050565b60006113df82846112e4565b915081905092915050565b60006020820190506113ff6000830184611299565b92915050565b600060208201905061141a600083018461128a565b92915050565b6000606082019050611435600083018661127b565b6114426020830185611299565b61144f60408301846113c4565b949350505050565b600060608201905061146c6000830186611299565b6114796020830185611299565b61148660408301846113c4565b949350505050565b60006040820190506114a36000830185611299565b6114b060208301846113c4565b9392505050565b60006020820190506114cc60008301846112a8565b92915050565b60006020820190506114e760008301846112b7565b92915050565b600060208201905061150260008301846112c6565b92915050565b600060208201905061151d60008301846112d5565b92915050565b6000602082019050818103600083015261153c81611315565b9050919050565b6000602082019050818103600083015261155c81611338565b9050919050565b6000602082019050818103600083015261157c8161135b565b9050919050565b6000604082019050818103600083015261159c8161137e565b90506115ab60208301846113c4565b92915050565b600060208201905081810360008301526115ca816113a1565b9050919050565b60006020820190506115e660008301846113c4565b92915050565b600060408201905061160160008301856113c4565b61160e60208301846113c4565b9392505050565b600061161f611630565b905061162b8282611839565b919050565b6000604051905090565b600067ffffffffffffffff82111561165557611654611911565b5b61165e82611940565b9050602081019050919050565b600081519050919050565b600082825260208201905092915050565b600081905092915050565b600061169d8261175d565b91506116a88361175d565b9250827fffffffffffffffffffffffffffffffffffffffffffffffffffffffffffffffff038211156116dd576116dc6118b3565b5b828201905092915050565b60006116f38261173d565b9050919050565b60006117058261173d565b9050919050565b60008115159050919050565b6000611723826116e8565b9050919050565b600081905061173882611a44565b919050565b600073ffffffffffffffffffffffffffffffffffffffff82169050919050565b6000819050919050565b6000611772826117d3565b9050919050565b60006117848261178b565b9050919050565b60006117968261173d565b9050919050565b60006117a8826117af565b9050919050565b60006117ba8261173d565b9050919050565b60006117cc8261172a565b9050919050565b60006117de826117e5565b9050919050565b60006117f08261173d565b9050919050565b82818337600083830152505050565b60005b83811015611824578082015181840152602081019050611809565b83811115611833576000848401525b50505050565b61184282611940565b810181811067ffffffffffffffff8211171561186157611860611911565b5b80604052505050565b60006118758261175d565b91507fffffffffffffffffffffffffffffffffffffffffffffffffffffffffffffffff8214156118a8576118a76118b3565b5b600182019050919050565b7f4e487b7100000000000000000000000000000000000000000000000000000000600052601160045260246000fd5b7f4e487b7100000000000000000000000000000000000000000000000000000000600052602160045260246000fd5b7f4e487b7100000000000000000000000000000000000000000000000000000000600052604160045260246000fd5b6000601f19601f8301169050919050565b7f596f752063616e27742077697468647261772c207468652061756374696f6e2060008201527f6973207374696c6c206f70656e00000000000000000000000000000000000000602082015250565b7f4f776e65722063616e2774206269640000000000000000000000000000000000600082015250565b7f596f752063616e2774206269642c204d616b6520612068696768657220426964600082015250565b7f41756374696f6e2043616e63656c6c6564000000000000000000000000000000600082015250565b7f4e6f7420656e6f75676820746f6b656e7320696e207468652077616c6c657400600082015250565b60028110611a5557611a546118e2565b5b50565b611a61816116e8565b8114611a6c57600080fd5b50565b611a788161170c565b8114611a8357600080fd5b50565b611a8f81611718565b8114611a9a57600080fd5b50565b611aa68161175d565b8114611ab157600080fd5b5056fea264697066735822122013bd94682f19879e904be6c842b521ba0cd3116db0d02a2596c81c82c81c9c4f64736f6c63430008010033",
  "immutableReferences": {},
  "source": "// SPDX-License-Identifier: MIT\npragma solidity ^0.8.0;\n\nimport './AuctionToken.sol';\nimport './DeadpoolErc721.sol';\nimport './SupermanErc721.sol';\nimport './HulkErc721.sol';\n\n\ncontract NftMarket {\n    \n    address payable public auction_owner;\n    uint256 public auction_start;\n    uint256 public auction_end;\n    uint256 public highestBid;\n    address public highestBidder;\n    uint256 public startingBid;\n    uint private key=0;\n\n    uint public bidsCounter=0;\n\n    IERC20 public token;\n    //ERC721 public deadpoolErc721;\n    //ERC721 public supermanErc721;\n    //ERC721 public hulkErc721;\n\n    ERC721 public erc721Contract;\n\n    enum auction_state{\n        CANCELLED,STARTED\n    }\n\n    mapping(string => address) public userAddress; // string -> username\n    mapping(address => uint) public pendingReturns;\n    mapping(address => uint) private balances;\n    mapping(address => uint) public bids;\n\n    auction_state public STATE;\n\n\n    modifier an_ongoing_auction(){ // controlla se l'asta  ancora aperta\n        require(block.timestamp <= auction_end);\n        _;\n    }\n    \n    modifier only_owner(){ // solo owner\n        require(msg.sender==auction_owner);\n        _;\n    }\n    \n    event startEvent(uint256 amount, uint time);\n    event BidEvent(address indexed highestBidder, uint256 highestBid); //  \n    event WithdrawalEvent(address withdrawer, uint256 NftTokenURI); // termina l'asta\n    event CanceledEvent(string message, uint256 time);  // annulla l'asta\n    event Sent(address from, address to, uint amount);\n    \n  \n    constructor (\n            IERC20 _auctionToken\n            //ERC721 _superman,\n            //ERC721 _deadpool,\n            //ERC721 _hulk\n    )\n    {\n            token = _auctionToken;\n            //supermanErc721 = _superman;\n            //deadpoolErc721 = _deadpool;\n            //hulkErc721 = _hulk;\n            auction_owner = payable(msg.sender);\n    }\n\n    function setNewBidderUser(string memory username) public {\n        userAddress[username] = msg.sender;\n    }\n\n    function startAuction(uint256 amount, uint time, ERC721 _contract) external returns(bool){\n        startingBid = amount;\n        auction_start = block.timestamp;\n        auction_end = auction_start + time;\n        STATE=auction_state.STARTED;\n        erc721Contract = _contract;\n        emit startEvent(amount,auction_start);\n        return true;\n    }\n \n\n    function bid(uint256 amount) payable public {\n      \n        require(amount > highestBid,\"You can't bid, Make a higher Bid\");\n        require(msg.sender != auction_owner, \"Owner can't bid\");\n        uint256 balance = token.balanceOf(msg.sender);\n        require(amount <= balance, \"Not enough tokens in the wallet\");\n        token.approve(address(this), amount);\n        if(highestBid != 0){\n            uint256 refund = bids[highestBidder];\n            pendingReturns[highestBidder] += refund;\n        }\n        highestBidder = msg.sender;\n        highestBid = amount;\n        bids[msg.sender] = amount;\n        token.transferFrom(msg.sender,address(this),amount);\n        bidsCounter++;\n        emit BidEvent(highestBidder,highestBid);\n    }\n  \n    function cancel_auction() external only_owner  an_ongoing_auction returns (bool){\n    \n        STATE=auction_state.CANCELLED;\n        emit CanceledEvent(\"Auction Cancelled\", block.timestamp);\n        return true;\n    }\n    \n    \n    function withdraw() public returns(bool) {\n        uint amount = pendingReturns[msg.sender];\n        if(amount > 0){\n            pendingReturns[msg.sender] = 0;\n\n            if(!payable(msg.sender).send(amount)){\n                 pendingReturns[msg.sender] = amount;\n                 return false;\n            }\n        }\n        emit WithdrawalEvent(msg.sender,amount);\n        return true; \n    }\n\n    function auctionEnd() public returns(bool){\n        require(block.timestamp > auction_end ,\"You can't withdraw, the auction is still open\");\n\n        uint256 tokenId = 1;\n        erc721Contract.approve(highestBidder,tokenId);\n        erc721Contract.safeTransferFrom(auction_owner, highestBidder, tokenId);\n\n        return true;\n    }\n\n\n}\n",
  "sourcePath": "/Users/mauriziocapone/Desktop/nftmarketplaceapp/contracts/NftMarket.sol",
  "compiler": {
    "name": "solc",
    "version": "0.8.1+commit.df193b15.Emscripten.clang"
  },
  "schemaVersion": "3.4.1",
  "updatedAt": "2021-07-28T08:06:35.492Z",
  "networkType": "ethereum",
  "devdoc": {
    "kind": "dev",
    "methods": {},
    "version": 1
  },
  "userdoc": {
    "kind": "user",
    "methods": {},
    "version": 1
  }
}