{
  "contractName": "Registry",
  "abi": [
    {
      "inputs": [],
      "stateMutability": "nonpayable",
      "type": "constructor"
    },
    {
      "anonymous": false,
      "inputs": [
        {
          "indexed": true,
          "internalType": "address",
          "name": "_from",
          "type": "address"
        },
        {
          "indexed": true,
          "internalType": "address",
          "name": "_who",
          "type": "address"
        }
      ],
      "name": "AdminAdded",
      "type": "event"
    },
    {
      "inputs": [
        {
          "internalType": "address",
          "name": "_address",
          "type": "address"
        }
      ],
      "name": "makeAdmin",
      "outputs": [],
      "stateMutability": "nonpayable",
      "type": "function"
    },
    {
      "inputs": [
        {
          "internalType": "contract ERC721",
          "name": "_erc721",
          "type": "address"
        },
        {
          "internalType": "address",
          "name": "_owner",
          "type": "address"
        },
        {
          "internalType": "string",
          "name": "_abi_json",
          "type": "string"
        },
        {
          "internalType": "uint256",
          "name": "_tokenId",
          "type": "uint256"
        },
        {
          "internalType": "string",
          "name": "_uri",
          "type": "string"
        },
        {
          "internalType": "string",
          "name": "_name",
          "type": "string"
        },
        {
          "internalType": "string",
          "name": "_symbol",
          "type": "string"
        }
      ],
      "name": "addErc721",
      "outputs": [],
      "stateMutability": "nonpayable",
      "type": "function"
    },
    {
      "inputs": [
        {
          "internalType": "address",
          "name": "_address",
          "type": "address"
        }
      ],
      "name": "getOwnedNft",
      "outputs": [
        {
          "internalType": "uint256",
          "name": "",
          "type": "uint256"
        },
        {
          "internalType": "string[]",
          "name": "array",
          "type": "string[]"
        }
      ],
      "stateMutability": "view",
      "type": "function",
      "constant": true
    },
    {
      "inputs": [
        {
          "internalType": "string",
          "name": "_symbol",
          "type": "string"
        }
      ],
      "name": "getNftToken",
      "outputs": [
        {
          "internalType": "contract ERC721",
          "name": "",
          "type": "address"
        },
        {
          "internalType": "address",
          "name": "",
          "type": "address"
        },
        {
          "internalType": "uint256",
          "name": "",
          "type": "uint256"
        },
        {
          "internalType": "string",
          "name": "",
          "type": "string"
        },
        {
          "internalType": "string",
          "name": "",
          "type": "string"
        },
        {
          "internalType": "string",
          "name": "",
          "type": "string"
        },
        {
          "internalType": "string",
          "name": "",
          "type": "string"
        }
      ],
      "stateMutability": "view",
      "type": "function",
      "constant": true
    },
    {
      "inputs": [
        {
          "internalType": "contract ERC20",
          "name": "_erc20",
          "type": "address"
        },
        {
          "internalType": "address",
          "name": "_owner",
          "type": "address"
        },
        {
          "internalType": "string",
          "name": "_abi_json",
          "type": "string"
        },
        {
          "internalType": "string",
          "name": "_name",
          "type": "string"
        },
        {
          "internalType": "string",
          "name": "_symbol",
          "type": "string"
        },
        {
          "internalType": "uint8",
          "name": "_decimals",
          "type": "uint8"
        }
      ],
      "name": "addErc20",
      "outputs": [],
      "stateMutability": "nonpayable",
      "type": "function"
    },
    {
      "inputs": [
        {
          "internalType": "address",
          "name": "_address",
          "type": "address"
        }
      ],
      "name": "getOwnedToken",
      "outputs": [
        {
          "internalType": "uint256",
          "name": "",
          "type": "uint256"
        },
        {
          "internalType": "string[]",
          "name": "array",
          "type": "string[]"
        }
      ],
      "stateMutability": "view",
      "type": "function",
      "constant": true
    },
    {
      "inputs": [
        {
          "internalType": "string",
          "name": "_symbol",
          "type": "string"
        }
      ],
      "name": "getToken",
      "outputs": [
        {
          "internalType": "contract ERC20",
          "name": "",
          "type": "address"
        },
        {
          "internalType": "address",
          "name": "",
          "type": "address"
        },
        {
          "internalType": "string",
          "name": "",
          "type": "string"
        },
        {
          "internalType": "string",
          "name": "",
          "type": "string"
        },
        {
          "internalType": "string",
          "name": "",
          "type": "string"
        },
        {
          "internalType": "uint8",
          "name": "",
          "type": "uint8"
        }
      ],
      "stateMutability": "view",
      "type": "function",
      "constant": true
    },
    {
      "inputs": [
        {
          "internalType": "uint256",
          "name": "_amount",
          "type": "uint256"
        },
        {
          "internalType": "uint256",
          "name": "_time",
          "type": "uint256"
        },
        {
          "internalType": "contract ERC721",
          "name": "_erc721",
          "type": "address"
        },
        {
          "internalType": "contract ERC20",
          "name": "_erc20",
          "type": "address"
        },
        {
          "internalType": "uint256",
          "name": "_tokenId",
          "type": "uint256"
        }
      ],
      "name": "createAuction",
      "outputs": [],
      "stateMutability": "nonpayable",
      "type": "function"
    },
    {
      "inputs": [
        {
          "internalType": "address",
          "name": "_addr",
          "type": "address"
        }
      ],
      "name": "getAuction",
      "outputs": [
        {
          "internalType": "uint256",
          "name": "",
          "type": "uint256"
        },
        {
          "internalType": "uint256",
          "name": "",
          "type": "uint256"
        },
        {
          "internalType": "contract ERC721",
          "name": "",
          "type": "address"
        },
        {
          "internalType": "contract ERC20",
          "name": "",
          "type": "address"
        },
        {
          "internalType": "uint256",
          "name": "",
          "type": "uint256"
        }
      ],
      "stateMutability": "view",
      "type": "function",
      "constant": true
    }
  ],
  "bytecode": "0x608060405234801561001057600080fd5b5060018060003373ffffffffffffffffffffffffffffffffffffffff1673ffffffffffffffffffffffffffffffffffffffff16815260200190815260200160002060006101000a81548160ff0219169083151502179055503373ffffffffffffffffffffffffffffffffffffffff16600073ffffffffffffffffffffffffffffffffffffffff167fbf3f493c772c8c283fd124432c2d0f539ab343faa04258fe88e52912d36b102b60405160405180910390a36142e3806100d26000396000f3fe60806040523480156200001157600080fd5b5060043610620000a05760003560e01c806379deae7b116200006f57806379deae7b1462000153578063930af8ba146200018d578063aa550e5e14620001c9578063c1733f6814620001e9578063edadd10c146200022457620000a0565b80632a62cdec14620000a5578063472905ca14620000c55780635a4ead9314620000e5578063650de98b146200011c575b600080fd5b620000c36004803603810190620000bd919062001888565b62000244565b005b620000e36004803603810190620000dd91906200185c565b62000546565b005b620001036004803603810190620000fd91906200185c565b62000689565b6040516200011392919062001ef5565b60405180910390f35b6200013a60048036038101906200013491906200185c565b620007f8565b6040516200014a92919062001ef5565b60405180910390f35b6200017160048036038101906200016b91906200185c565b62000967565b6040516200018495949392919062001f29565b60405180910390f35b620001ab6004803603810190620001a5919062001a7a565b62000b0c565b604051620001c0979695949392919062001df6565b60405180910390f35b620001e76004803603810190620001e1919062001969565b62000eb8565b005b62000207600480360381019062000201919062001a7a565b620011c6565b6040516200021b9695949392919062001d74565b60405180910390f35b6200024260048036038101906200023c919062001abf565b620014c3565b005b600160003373ffffffffffffffffffffffffffffffffffffffff1673ffffffffffffffffffffffffffffffffffffffff16815260200190815260200160002060009054906101000a900460ff16620002d3576040517f08c379a0000000000000000000000000000000000000000000000000000000008152600401620002ca9062001eb1565b60405180910390fd5b60006040518060c001604052808873ffffffffffffffffffffffffffffffffffffffff1681526020018773ffffffffffffffffffffffffffffffffffffffff1681526020018681526020018581526020018481526020018360ff1681525090508060028460405162000346919062001d5b565b908152602001604051809103902060008201518160000160006101000a81548173ffffffffffffffffffffffffffffffffffffffff021916908373ffffffffffffffffffffffffffffffffffffffff16021790555060208201518160010160006101000a81548173ffffffffffffffffffffffffffffffffffffffff021916908373ffffffffffffffffffffffffffffffffffffffff160217905550604082015181600201908051906020019062000400929190620016b9565b5060608201518160030190805190602001906200041f929190620016b9565b5060808201518160040190805190602001906200043e929190620016b9565b5060a08201518160050160006101000a81548160ff021916908360ff160217905550905050600460008773ffffffffffffffffffffffffffffffffffffffff1673ffffffffffffffffffffffffffffffffffffffff16815260200190815260200160002060010183908060018154018082558091505060019003906000526020600020016000909190919091509080519060200190620004e0929190620016b9565b506001600460008873ffffffffffffffffffffffffffffffffffffffff1673ffffffffffffffffffffffffffffffffffffffff168152602001908152602001600020600201600082825462000536919062002056565b9250508190555050505050505050565b600160003373ffffffffffffffffffffffffffffffffffffffff1673ffffffffffffffffffffffffffffffffffffffff16815260200190815260200160002060009054906101000a900460ff16620005d5576040517f08c379a0000000000000000000000000000000000000000000000000000000008152600401620005cc9062001e8f565b60405180910390fd5b60018060008373ffffffffffffffffffffffffffffffffffffffff1673ffffffffffffffffffffffffffffffffffffffff16815260200190815260200160002060006101000a81548160ff0219169083151502179055508073ffffffffffffffffffffffffffffffffffffffff163373ffffffffffffffffffffffffffffffffffffffff167fbf3f493c772c8c283fd124432c2d0f539ab343faa04258fe88e52912d36b102b60405160405180910390a350565b60006060600560008473ffffffffffffffffffffffffffffffffffffffff1673ffffffffffffffffffffffffffffffffffffffff16815260200190815260200160002060020154600560008573ffffffffffffffffffffffffffffffffffffffff1673ffffffffffffffffffffffffffffffffffffffff16815260200190815260200160002060010180805480602002602001604051908101604052809291908181526020016000905b82821015620007e95783829060005260206000200180546200075590620021bb565b80601f01602080910402602001604051908101604052809291908181526020018280546200078390620021bb565b8015620007d45780601f10620007a857610100808354040283529160200191620007d4565b820191906000526020600020905b815481529060010190602001808311620007b657829003601f168201915b50505050508152602001906001019062000733565b50505050905091509150915091565b60006060600460008473ffffffffffffffffffffffffffffffffffffffff1673ffffffffffffffffffffffffffffffffffffffff16815260200190815260200160002060020154600460008573ffffffffffffffffffffffffffffffffffffffff1673ffffffffffffffffffffffffffffffffffffffff16815260200190815260200160002060010180805480602002602001604051908101604052809291908181526020016000905b8282101562000958578382906000526020600020018054620008c490620021bb565b80601f0160208091040260200160405190810160405280929190818152602001828054620008f290620021bb565b8015620009435780601f10620009175761010080835404028352916020019162000943565b820191906000526020600020905b8154815290600101906020018083116200092557829003601f168201915b505050505081526020019060010190620008a2565b50505050905091509150915091565b60008060008060008060008773ffffffffffffffffffffffffffffffffffffffff1673ffffffffffffffffffffffffffffffffffffffff168152602001908152602001600020600101546000808873ffffffffffffffffffffffffffffffffffffffff1673ffffffffffffffffffffffffffffffffffffffff168152602001908152602001600020600201546000808973ffffffffffffffffffffffffffffffffffffffff1673ffffffffffffffffffffffffffffffffffffffff16815260200190815260200160002060030160009054906101000a900473ffffffffffffffffffffffffffffffffffffffff166000808a73ffffffffffffffffffffffffffffffffffffffff1673ffffffffffffffffffffffffffffffffffffffff16815260200190815260200160002060040160009054906101000a900473ffffffffffffffffffffffffffffffffffffffff166000808b73ffffffffffffffffffffffffffffffffffffffff1673ffffffffffffffffffffffffffffffffffffffff168152602001908152602001600020600501549450945094509450945091939590929450565b600080600060608060608060038860405162000b29919062001d5b565b908152602001604051809103902060000160009054906101000a900473ffffffffffffffffffffffffffffffffffffffff1660038960405162000b6d919062001d5b565b908152602001604051809103902060010160009054906101000a900473ffffffffffffffffffffffffffffffffffffffff1660038a60405162000bb1919062001d5b565b90815260200160405180910390206002015460038b60405162000bd5919062001d5b565b908152602001604051809103902060030160038c60405162000bf8919062001d5b565b908152602001604051809103902060040160038d60405162000c1b919062001d5b565b908152602001604051809103902060050160038e60405162000c3e919062001d5b565b908152602001604051809103902060060183805462000c5d90620021bb565b80601f016020809104026020016040519081016040528092919081815260200182805462000c8b90620021bb565b801562000cdc5780601f1062000cb05761010080835404028352916020019162000cdc565b820191906000526020600020905b81548152906001019060200180831162000cbe57829003601f168201915b5050505050935082805462000cf190620021bb565b80601f016020809104026020016040519081016040528092919081815260200182805462000d1f90620021bb565b801562000d705780601f1062000d445761010080835404028352916020019162000d70565b820191906000526020600020905b81548152906001019060200180831162000d5257829003601f168201915b5050505050925081805462000d8590620021bb565b80601f016020809104026020016040519081016040528092919081815260200182805462000db390620021bb565b801562000e045780601f1062000dd85761010080835404028352916020019162000e04565b820191906000526020600020905b81548152906001019060200180831162000de657829003601f168201915b5050505050915080805462000e1990620021bb565b80601f016020809104026020016040519081016040528092919081815260200182805462000e4790620021bb565b801562000e985780601f1062000e6c5761010080835404028352916020019162000e98565b820191906000526020600020905b81548152906001019060200180831162000e7a57829003601f168201915b505050505090509650965096509650965096509650919395979092949650565b600160003373ffffffffffffffffffffffffffffffffffffffff1673ffffffffffffffffffffffffffffffffffffffff16815260200190815260200160002060009054906101000a900460ff1662000f47576040517f08c379a000000000000000000000000000000000000000000000000000000000815260040162000f3e9062001ed3565b60405180910390fd5b60006040518060e001604052808973ffffffffffffffffffffffffffffffffffffffff1681526020018873ffffffffffffffffffffffffffffffffffffffff1681526020018681526020018781526020018581526020018481526020018381525090508060038360405162000fbd919062001d5b565b908152602001604051809103902060008201518160000160006101000a81548173ffffffffffffffffffffffffffffffffffffffff021916908373ffffffffffffffffffffffffffffffffffffffff16021790555060208201518160010160006101000a81548173ffffffffffffffffffffffffffffffffffffffff021916908373ffffffffffffffffffffffffffffffffffffffff16021790555060408201518160020155606082015181600301908051906020019062001081929190620016b9565b506080820151816004019080519060200190620010a0929190620016b9565b5060a0820151816005019080519060200190620010bf929190620016b9565b5060c0820151816006019080519060200190620010de929190620016b9565b50905050600560008873ffffffffffffffffffffffffffffffffffffffff1673ffffffffffffffffffffffffffffffffffffffff168152602001908152602001600020600101829080600181540180825580915050600190039060005260206000200160009091909190915090805190602001906200115f929190620016b9565b506001600560008973ffffffffffffffffffffffffffffffffffffffff1673ffffffffffffffffffffffffffffffffffffffff1681526020019081526020016000206002016000828254620011b5919062002056565b925050819055505050505050505050565b60008060608060606000600287604051620011e2919062001d5b565b908152602001604051809103902060000160009054906101000a900473ffffffffffffffffffffffffffffffffffffffff1660028860405162001226919062001d5b565b908152602001604051809103902060010160009054906101000a900473ffffffffffffffffffffffffffffffffffffffff166002896040516200126a919062001d5b565b908152602001604051809103902060020160028a6040516200128d919062001d5b565b908152602001604051809103902060030160028b604051620012b0919062001d5b565b908152602001604051809103902060040160028c604051620012d3919062001d5b565b908152602001604051809103902060050160009054906101000a900460ff168380546200130090620021bb565b80601f01602080910402602001604051908101604052809291908181526020018280546200132e90620021bb565b80156200137f5780601f1062001353576101008083540402835291602001916200137f565b820191906000526020600020905b8154815290600101906020018083116200136157829003601f168201915b505050505093508280546200139490620021bb565b80601f0160208091040260200160405190810160405280929190818152602001828054620013c290620021bb565b8015620014135780601f10620013e75761010080835404028352916020019162001413565b820191906000526020600020905b815481529060010190602001808311620013f557829003601f168201915b505050505092508180546200142890620021bb565b80601f01602080910402602001604051908101604052809291908181526020018280546200145690620021bb565b8015620014a75780601f106200147b57610100808354040283529160200191620014a7565b820191906000526020600020905b8154815290600101906020018083116200148957829003601f168201915b5050505050915095509550955095509550955091939550919395565b60008585858585604051620014d8906200174a565b620014e895949392919062001f29565b604051809103906000f08015801562001505573d6000803e3d6000fd5b50905060006040518060c001604052808373ffffffffffffffffffffffffffffffffffffffff1681526020018881526020018781526020018673ffffffffffffffffffffffffffffffffffffffff1681526020018573ffffffffffffffffffffffffffffffffffffffff168152602001848152509050806000808473ffffffffffffffffffffffffffffffffffffffff1673ffffffffffffffffffffffffffffffffffffffff16815260200190815260200160002060008201518160000160006101000a81548173ffffffffffffffffffffffffffffffffffffffff021916908373ffffffffffffffffffffffffffffffffffffffff160217905550602082015181600101556040820151816002015560608201518160030160006101000a81548173ffffffffffffffffffffffffffffffffffffffff021916908373ffffffffffffffffffffffffffffffffffffffff16021790555060808201518160040160006101000a81548173ffffffffffffffffffffffffffffffffffffffff021916908373ffffffffffffffffffffffffffffffffffffffff16021790555060a0820151816005015590505050505050505050565b828054620016c790620021bb565b90600052602060002090601f016020900481019282620016eb576000855562001737565b82601f106200170657805160ff191683800117855562001737565b8280016001018555821562001737579182015b828111156200173657825182559160200191906001019062001719565b5b50905062001746919062001758565b5090565b611e79806200243583390190565b5b808211156200177357600081600090555060010162001759565b5090565b60006200178e620017888462001faf565b62001f86565b905082815260208101848484011115620017a757600080fd5b620017b484828562002176565b509392505050565b600081359050620017cd81620023b2565b92915050565b600081359050620017e481620023cc565b92915050565b600081359050620017fb81620023e6565b92915050565b600082601f8301126200181357600080fd5b81356200182584826020860162001777565b91505092915050565b6000813590506200183f8162002400565b92915050565b60008135905062001856816200241a565b92915050565b6000602082840312156200186f57600080fd5b60006200187f84828501620017bc565b91505092915050565b60008060008060008060c08789031215620018a257600080fd5b6000620018b289828a01620017d3565b9650506020620018c589828a01620017bc565b955050604087013567ffffffffffffffff811115620018e357600080fd5b620018f189828a0162001801565b945050606087013567ffffffffffffffff8111156200190f57600080fd5b6200191d89828a0162001801565b935050608087013567ffffffffffffffff8111156200193b57600080fd5b6200194989828a0162001801565b92505060a06200195c89828a0162001845565b9150509295509295509295565b600080600080600080600060e0888a0312156200198557600080fd5b6000620019958a828b01620017ea565b9750506020620019a88a828b01620017bc565b965050604088013567ffffffffffffffff811115620019c657600080fd5b620019d48a828b0162001801565b9550506060620019e78a828b016200182e565b945050608088013567ffffffffffffffff81111562001a0557600080fd5b62001a138a828b0162001801565b93505060a088013567ffffffffffffffff81111562001a3157600080fd5b62001a3f8a828b0162001801565b92505060c088013567ffffffffffffffff81111562001a5d57600080fd5b62001a6b8a828b0162001801565b91505092959891949750929550565b60006020828403121562001a8d57600080fd5b600082013567ffffffffffffffff81111562001aa857600080fd5b62001ab68482850162001801565b91505092915050565b600080600080600060a0868803121562001ad857600080fd5b600062001ae8888289016200182e565b955050602062001afb888289016200182e565b945050604062001b0e88828901620017ea565b935050606062001b2188828901620017d3565b925050608062001b34888289016200182e565b9150509295509295909350565b600062001b4f838362001c0b565b905092915050565b62001b6281620020b3565b82525050565b600062001b758262001ff5565b62001b81818562002018565b93508360208202850162001b958562001fe5565b8060005b8581101562001bd7578484038952815162001bb5858262001b41565b945062001bc2836200200b565b925060208a0199505060018101905062001b99565b50829750879550505050505092915050565b62001bf48162002126565b82525050565b62001c05816200214e565b82525050565b600062001c188262002000565b62001c24818562002029565b935062001c3681856020860162002185565b62001c4181620022b4565b840191505092915050565b600062001c598262002000565b62001c6581856200203a565b935062001c7781856020860162002185565b62001c8281620022b4565b840191505092915050565b600062001c9a8262002000565b62001ca681856200204b565b935062001cb881856020860162002185565b80840191505092915050565b600062001cd36025836200203a565b915062001ce082620022c5565b604082019050919050565b600062001cfa6024836200203a565b915062001d078262002314565b604082019050919050565b600062001d216025836200203a565b915062001d2e8262002363565b604082019050919050565b62001d44816200210f565b82525050565b62001d558162002119565b82525050565b600062001d69828462001c8d565b915081905092915050565b600060c08201905062001d8b600083018962001be9565b62001d9a602083018862001b57565b818103604083015262001dae818762001c4c565b9050818103606083015262001dc4818662001c4c565b9050818103608083015262001dda818562001c4c565b905062001deb60a083018462001d4a565b979650505050505050565b600060e08201905062001e0d600083018a62001bfa565b62001e1c602083018962001b57565b62001e2b604083018862001d39565b818103606083015262001e3f818762001c4c565b9050818103608083015262001e55818662001c4c565b905081810360a083015262001e6b818562001c4c565b905081810360c083015262001e81818462001c4c565b905098975050505050505050565b6000602082019050818103600083015262001eaa8162001cc4565b9050919050565b6000602082019050818103600083015262001ecc8162001ceb565b9050919050565b6000602082019050818103600083015262001eee8162001d12565b9050919050565b600060408201905062001f0c600083018562001d39565b818103602083015262001f20818462001b68565b90509392505050565b600060a08201905062001f40600083018862001d39565b62001f4f602083018762001d39565b62001f5e604083018662001bfa565b62001f6d606083018562001be9565b62001f7c608083018462001d39565b9695505050505050565b600062001f9262001fa5565b905062001fa08282620021f1565b919050565b6000604051905090565b600067ffffffffffffffff82111562001fcd5762001fcc62002285565b5b62001fd882620022b4565b9050602081019050919050565b6000819050602082019050919050565b600081519050919050565b600081519050919050565b6000602082019050919050565b600082825260208201905092915050565b600082825260208201905092915050565b600082825260208201905092915050565b600081905092915050565b600062002063826200210f565b915062002070836200210f565b9250827fffffffffffffffffffffffffffffffffffffffffffffffffffffffffffffffff03821115620020a857620020a762002227565b5b828201905092915050565b6000620020c082620020ef565b9050919050565b6000620020d482620020b3565b9050919050565b6000620020e882620020b3565b9050919050565b600073ffffffffffffffffffffffffffffffffffffffff82169050919050565b6000819050919050565b600060ff82169050919050565b600062002133826200213a565b9050919050565b60006200214782620020ef565b9050919050565b60006200215b8262002162565b9050919050565b60006200216f82620020ef565b9050919050565b82818337600083830152505050565b60005b83811015620021a557808201518184015260208101905062002188565b83811115620021b5576000848401525b50505050565b60006002820490506001821680620021d457607f821691505b60208210811415620021eb57620021ea62002256565b5b50919050565b620021fc82620022b4565b810181811067ffffffffffffffff821117156200221e576200221d62002285565b5b80604052505050565b7f4e487b7100000000000000000000000000000000000000000000000000000000600052601160045260246000fd5b7f4e487b7100000000000000000000000000000000000000000000000000000000600052602260045260246000fd5b7f4e487b7100000000000000000000000000000000000000000000000000000000600052604160045260246000fd5b6000601f19601f8301169050919050565b7f4d7573742062652061646d696e20746f2063726561746520616e6f746865722060008201527f61646d696e000000000000000000000000000000000000000000000000000000602082015250565b7f4d7573742062652061646d696e20746f2061646420657263323020636f6e747260008201527f6163747300000000000000000000000000000000000000000000000000000000602082015250565b7f4d7573742062652061646d696e20746f206164642065726337323120636f6e7460008201527f7261637473000000000000000000000000000000000000000000000000000000602082015250565b620023bd81620020b3565b8114620023c957600080fd5b50565b620023d781620020c7565b8114620023e357600080fd5b50565b620023f181620020db565b8114620023fd57600080fd5b50565b6200240b816200210f565b81146200241757600080fd5b50565b620024258162002119565b81146200243157600080fd5b5056fe60806040526000600a553480156200001657600080fd5b5060405162001e7938038062001e7983398181016040528101906200003c9190620001c9565b336000806101000a81548173ffffffffffffffffffffffffffffffffffffffff021916908373ffffffffffffffffffffffffffffffffffffffff16021790555083600181905550846005819055508060088190555083426200009f91906200024b565b6002819055506001600d60006101000a81548160ff02191690836002811115620000f2577f4e487b7100000000000000000000000000000000000000000000000000000000600052602160045260246000fd5b021790555082600760006101000a81548173ffffffffffffffffffffffffffffffffffffffff021916908373ffffffffffffffffffffffffffffffffffffffff16021790555081600660006101000a81548173ffffffffffffffffffffffffffffffffffffffff021916908373ffffffffffffffffffffffffffffffffffffffff16021790555050505050506200038b565b60008151905062000195816200033d565b92915050565b600081519050620001ac8162000357565b92915050565b600081519050620001c38162000371565b92915050565b600080600080600060a08688031215620001e257600080fd5b6000620001f288828901620001b2565b95505060206200020588828901620001b2565b945050604062000218888289016200019b565b93505060606200022b8882890162000184565b92505060806200023e88828901620001b2565b9150509295509295909350565b6000620002588262000304565b9150620002658362000304565b9250827fffffffffffffffffffffffffffffffffffffffffffffffffffffffffffffffff038211156200029d576200029c6200030e565b5b828201905092915050565b6000620002b582620002e4565b9050919050565b6000620002c982620002a8565b9050919050565b6000620002dd82620002a8565b9050919050565b600073ffffffffffffffffffffffffffffffffffffffff82169050919050565b6000819050919050565b7f4e487b7100000000000000000000000000000000000000000000000000000000600052601160045260246000fd5b6200034881620002bc565b81146200035457600080fd5b50565b6200036281620002d0565b81146200036e57600080fd5b50565b6200037c8162000304565b81146200038857600080fd5b50565b611ade806200039b6000396000f3fe6080604052600436106101405760003560e01c80637d350453116100b6578063d57bde791161006f578063d57bde791461042b578063d6d36b9214610456578063d7c97fb414610460578063e020bf1e1461048b578063eb15cc79146104b6578063fc0c546a146104f357610140565b80637d3504531461031757806391f9015714610342578063b9fdd5691461036d578063c458b65a14610398578063c486456c146103c3578063cff29dfd146103ee57610140565b80633ba88ca1116101085780633ba88ca1146102215780633ccfd60b1461024c578063454a2ab314610256578063519181031461027257806362ea82db146102af5780636ea947b7146102ec57610140565b806317d70f7c146101455780631f8cdb04146101705780632356032d1461019b57806326b387bb146101c65780632a24f46c14610203575b600080fd5b34801561015157600080fd5b5061015a61051e565b6040516101679190611736565b60405180910390f35b34801561017c57600080fd5b50610185610524565b604051610192919061161c565b60405180910390f35b3480156101a757600080fd5b506101b06105a8565b6040516101bd9190611736565b60405180910390f35b3480156101d257600080fd5b506101ed60048036038101906101e8919061135b565b6105ae565b6040516101fa9190611736565b60405180910390f35b61020b6105c6565b604051610218919061161c565b60405180910390f35b34801561022d57600080fd5b5061023661079f565b604051610243919061161c565b60405180910390f35b610254610898565b005b610270600480360381019061026b91906113ad565b610a17565b005b34801561027e57600080fd5b506102996004803603810190610294919061135b565b610e8c565b6040516102a6919061161c565b60405180910390f35b3480156102bb57600080fd5b506102d660048036038101906102d1919061135b565b610f5e565b6040516102e39190611736565b60405180910390f35b3480156102f857600080fd5b50610301610f76565b60405161030e9190611736565b60405180910390f35b34801561032357600080fd5b5061032c610f7c565b604051610339919061161c565b60405180910390f35b34801561034e57600080fd5b5061035761106c565b6040516103649190611526565b60405180910390f35b34801561037957600080fd5b50610382611092565b60405161038f9190611736565b60405180910390f35b3480156103a457600080fd5b506103ad611098565b6040516103ba9190611736565b60405180910390f35b3480156103cf57600080fd5b506103d861109e565b6040516103e5919061166d565b60405180910390f35b3480156103fa57600080fd5b50610415600480360381019061041091906113ad565b6110b1565b6040516104229190611526565b60405180910390f35b34801561043757600080fd5b506104406110f0565b60405161044d9190611736565b60405180910390f35b61045e6110f6565b005b34801561046c57600080fd5b50610475611285565b6040516104829190611637565b60405180910390f35b34801561049757600080fd5b506104a06112ab565b6040516104ad9190611541565b60405180910390f35b3480156104c257600080fd5b506104dd60048036038101906104d891906113ad565b6112cf565b6040516104ea919061161c565b60405180910390f35b3480156104ff57600080fd5b506105086112e1565b6040516105159190611652565b60405180910390f35b60085481565b60006009339080600181540180825580915050600190039060005260206000200160009091909190916101000a81548173ffffffffffffffffffffffffffffffffffffffff021916908373ffffffffffffffffffffffffffffffffffffffff160217905550600a600081548092919061059c906118b5565b91905055506001905090565b600a5481565b600b6020528060005260406000206000915090505481565b6000600254421161060c576040517f08c379a000000000000000000000000000000000000000000000000000000000815260040161060390611688565b60405180910390fd5b6002600d60006101000a81548160ff02191690836002811115610658577f4e487b7100000000000000000000000000000000000000000000000000000000600052602160045260246000fd5b0217905550600760009054906101000a900473ffffffffffffffffffffffffffffffffffffffff1673ffffffffffffffffffffffffffffffffffffffff166323b872dd60008054906101000a900473ffffffffffffffffffffffffffffffffffffffff16600460009054906101000a900473ffffffffffffffffffffffffffffffffffffffff166008546040518463ffffffff1660e01b81526004016107009392919061155c565b600060405180830381600087803b15801561071a57600080fd5b505af115801561072e573d6000803e3d6000fd5b505050507f211b87f8e9320b85590c770a676bf3d5109a5562baf8cfaee8dbf46e34965d85600460009054906101000a900473ffffffffffffffffffffffffffffffffffffffff166008546040516107879291906115f3565b60405180910390a1610797610f7c565b506001905090565b60008060009054906101000a900473ffffffffffffffffffffffffffffffffffffffff1673ffffffffffffffffffffffffffffffffffffffff163373ffffffffffffffffffffffffffffffffffffffff16146107fa57600080fd5b60025442111561080957600080fd5b6000600d60006101000a81548160ff02191690836002811115610855577f4e487b7100000000000000000000000000000000000000000000000000000000600052602160045260246000fd5b02179055507f06b08932edfa95ecf10e18f8e389c58332551bbfe5faf843ed9afb329fd141184260405161088991906116e8565b60405180910390a16001905090565b6000600b60003373ffffffffffffffffffffffffffffffffffffffff1673ffffffffffffffffffffffffffffffffffffffff16815260200190815260200160002054905060008111156109db576000600b60003373ffffffffffffffffffffffffffffffffffffffff1673ffffffffffffffffffffffffffffffffffffffff16815260200190815260200160002081905550600660009054906101000a900473ffffffffffffffffffffffffffffffffffffffff1673ffffffffffffffffffffffffffffffffffffffff1663a9059cbb33836040518363ffffffff1660e01b81526004016109879291906115f3565b602060405180830381600087803b1580156109a157600080fd5b505af11580156109b5573d6000803e3d6000fd5b505050506040513d601f19601f820116820180604052508101906109d99190611384565b505b7f2f174ca282119315c59efaf21147aef438581dabdeb498198ae28964373dd8bc3382604051610a0c9291906115f3565b60405180910390a150565b6003548111610a5b576040517f08c379a0000000000000000000000000000000000000000000000000000000008152600401610a52906116c8565b60405180910390fd5b60008054906101000a900473ffffffffffffffffffffffffffffffffffffffff1673ffffffffffffffffffffffffffffffffffffffff163373ffffffffffffffffffffffffffffffffffffffff161415610aea576040517f08c379a0000000000000000000000000000000000000000000000000000000008152600401610ae1906116a8565b60405180910390fd5b6000600660009054906101000a900473ffffffffffffffffffffffffffffffffffffffff1673ffffffffffffffffffffffffffffffffffffffff166370a08231336040518263ffffffff1660e01b8152600401610b479190611526565b60206040518083038186803b158015610b5f57600080fd5b505afa158015610b73573d6000803e3d6000fd5b505050506040513d601f19601f82011682018060405250810190610b9791906113d6565b905080821115610bdc576040517f08c379a0000000000000000000000000000000000000000000000000000000008152600401610bd390611716565b60405180910390fd5b600060035414610cc6576000600c6000600460009054906101000a900473ffffffffffffffffffffffffffffffffffffffff1673ffffffffffffffffffffffffffffffffffffffff1673ffffffffffffffffffffffffffffffffffffffff16815260200190815260200160002054905080600b6000600460009054906101000a900473ffffffffffffffffffffffffffffffffffffffff1673ffffffffffffffffffffffffffffffffffffffff1673ffffffffffffffffffffffffffffffffffffffff1681526020019081526020016000206000828254610cbd9190611762565b92505081905550505b33600460006101000a81548173ffffffffffffffffffffffffffffffffffffffff021916908373ffffffffffffffffffffffffffffffffffffffff1602179055508160038190555081600c60003373ffffffffffffffffffffffffffffffffffffffff1673ffffffffffffffffffffffffffffffffffffffff1681526020019081526020016000206000828254610d5d9190611762565b92505081905550600660009054906101000a900473ffffffffffffffffffffffffffffffffffffffff1673ffffffffffffffffffffffffffffffffffffffff166323b872dd3330856040518463ffffffff1660e01b8152600401610dc3939291906115bc565b602060405180830381600087803b158015610ddd57600080fd5b505af1158015610df1573d6000803e3d6000fd5b505050506040513d601f19601f82011682018060405250810190610e159190611384565b50600460009054906101000a900473ffffffffffffffffffffffffffffffffffffffff1673ffffffffffffffffffffffffffffffffffffffff167f0d993d4f8a84158f5329713d6d13ef54e77b325040c887c8b3e565cfd0cd3e21600354604051610e809190611736565b60405180910390a25050565b600080600090505b600a54811015610f53578273ffffffffffffffffffffffffffffffffffffffff1660098281548110610eef577f4e487b7100000000000000000000000000000000000000000000000000000000600052603260045260246000fd5b9060005260206000200160009054906101000a900473ffffffffffffffffffffffffffffffffffffffff1673ffffffffffffffffffffffffffffffffffffffff161415610f40576001915050610f59565b8080610f4b906118b5565b915050610e94565b50600090505b919050565b600c6020528060005260406000206000915090505481565b60015481565b6000806002819055506000600581905550600060088190555060005b600a5481101561106457600060098281548110610fde577f4e487b7100000000000000000000000000000000000000000000000000000000600052603260045260246000fd5b9060005260206000200160009054906101000a900473ffffffffffffffffffffffffffffffffffffffff1690506000600c60008373ffffffffffffffffffffffffffffffffffffffff1673ffffffffffffffffffffffffffffffffffffffff1681526020019081526020016000208190555050808061105c906118b5565b915050610f98565b506001905090565b600460009054906101000a900473ffffffffffffffffffffffffffffffffffffffff1681565b60055481565b60025481565b600d60009054906101000a900460ff1681565b600981815481106110c157600080fd5b906000526020600020016000915054906101000a900473ffffffffffffffffffffffffffffffffffffffff1681565b60035481565b60008054906101000a900473ffffffffffffffffffffffffffffffffffffffff1673ffffffffffffffffffffffffffffffffffffffff163373ffffffffffffffffffffffffffffffffffffffff161461114e57600080fd5b600660009054906101000a900473ffffffffffffffffffffffffffffffffffffffff1673ffffffffffffffffffffffffffffffffffffffff1663a9059cbb60008054906101000a900473ffffffffffffffffffffffffffffffffffffffff166003546040518363ffffffff1660e01b81526004016111cd929190611593565b602060405180830381600087803b1580156111e757600080fd5b505af11580156111fb573d6000803e3d6000fd5b505050506040513d601f19601f8201168201806040525081019061121f9190611384565b507f8a6db17277818c22641ce476413923c6f0c25171f0baa68f7b97942f9ae94d8c60008054906101000a900473ffffffffffffffffffffffffffffffffffffffff16600354604051611273929190611593565b60405180910390a16000600381905550565b600760009054906101000a900473ffffffffffffffffffffffffffffffffffffffff1681565b60008054906101000a900473ffffffffffffffffffffffffffffffffffffffff1681565b60008160088190555060019050919050565b600660009054906101000a900473ffffffffffffffffffffffffffffffffffffffff1681565b60008135905061131681611a63565b92915050565b60008151905061132b81611a7a565b92915050565b60008135905061134081611a91565b92915050565b60008151905061135581611a91565b92915050565b60006020828403121561136d57600080fd5b600061137b84828501611307565b91505092915050565b60006020828403121561139657600080fd5b60006113a48482850161131c565b91505092915050565b6000602082840312156113bf57600080fd5b60006113cd84828501611331565b91505092915050565b6000602082840312156113e857600080fd5b60006113f684828501611346565b91505092915050565b61140881611825565b82525050565b611417816117ca565b82525050565b611426816117b8565b82525050565b611435816117dc565b82525050565b61144481611837565b82525050565b6114538161185b565b82525050565b6114628161187f565b82525050565b6000611475602d83611751565b91506114808261195c565b604082019050919050565b6000611498600f83611751565b91506114a3826119ab565b602082019050919050565b60006114bb602083611751565b91506114c6826119d4565b602082019050919050565b60006114de601183611751565b91506114e9826119fd565b602082019050919050565b6000611501601f83611751565b915061150c82611a26565b602082019050919050565b6115208161181b565b82525050565b600060208201905061153b600083018461141d565b92915050565b6000602082019050611556600083018461140e565b92915050565b600060608201905061157160008301866113ff565b61157e602083018561141d565b61158b6040830184611517565b949350505050565b60006040820190506115a860008301856113ff565b6115b56020830184611517565b9392505050565b60006060820190506115d1600083018661141d565b6115de602083018561141d565b6115eb6040830184611517565b949350505050565b6000604082019050611608600083018561141d565b6116156020830184611517565b9392505050565b6000602082019050611631600083018461142c565b92915050565b600060208201905061164c600083018461143b565b92915050565b6000602082019050611667600083018461144a565b92915050565b60006020820190506116826000830184611459565b92915050565b600060208201905081810360008301526116a181611468565b9050919050565b600060208201905081810360008301526116c18161148b565b9050919050565b600060208201905081810360008301526116e1816114ae565b9050919050565b60006040820190508181036000830152611701816114d1565b90506117106020830184611517565b92915050565b6000602082019050818103600083015261172f816114f4565b9050919050565b600060208201905061174b6000830184611517565b92915050565b600082825260208201905092915050565b600061176d8261181b565b91506117788361181b565b9250827fffffffffffffffffffffffffffffffffffffffffffffffffffffffffffffffff038211156117ad576117ac6118fe565b5b828201905092915050565b60006117c3826117fb565b9050919050565b60006117d5826117fb565b9050919050565b60008115159050919050565b60008190506117f682611a4f565b919050565b600073ffffffffffffffffffffffffffffffffffffffff82169050919050565b6000819050919050565b600061183082611891565b9050919050565b600061184282611849565b9050919050565b6000611854826117fb565b9050919050565b60006118668261186d565b9050919050565b6000611878826117fb565b9050919050565b600061188a826117e8565b9050919050565b600061189c826118a3565b9050919050565b60006118ae826117fb565b9050919050565b60006118c08261181b565b91507fffffffffffffffffffffffffffffffffffffffffffffffffffffffffffffffff8214156118f3576118f26118fe565b5b600182019050919050565b7f4e487b7100000000000000000000000000000000000000000000000000000000600052601160045260246000fd5b7f4e487b7100000000000000000000000000000000000000000000000000000000600052602160045260246000fd5b7f596f752063616e27742077697468647261772c207468652061756374696f6e2060008201527f6973207374696c6c206f70656e00000000000000000000000000000000000000602082015250565b7f4f776e65722063616e2774206269640000000000000000000000000000000000600082015250565b7f596f752063616e2774206269642c204d616b6520612068696768657220426964600082015250565b7f41756374696f6e2043616e63656c6c6564000000000000000000000000000000600082015250565b7f4e6f7420656e6f75676820746f6b656e7320696e207468652077616c6c657400600082015250565b60038110611a6057611a5f61192d565b5b50565b611a6c816117b8565b8114611a7757600080fd5b50565b611a83816117dc565b8114611a8e57600080fd5b50565b611a9a8161181b565b8114611aa557600080fd5b5056fea2646970667358221220af29bb4ddf8bf4ae4531ab8b42a3c628a2001b2cd3dd13b4e5ce7d9555002ace64736f6c63430008010033a2646970667358221220b233cc72730db56e93de338ccc6258d6a763bcd15dbe775ebd47527266c7205164736f6c63430008010033",
  "immutableReferences": {},
  "source": "// SPDX-License-Identifier: MIT\npragma solidity ^0.8.0;\nimport \"./NftMarket.sol\";\n\ncontract Registry {\n    struct NftAuction {\n        address contractAddress;\n        uint256 amount;\n        uint256 time;\n        ERC721 erc721;\n        ERC20 erc20;\n        uint256 tokenId;\n    }\n\n    struct NftData {\n        ERC721 contractAddress;\n        address owner;\n        uint256 tokenId;\n        string jsonAbi;\n        string uri;\n        string name;\n        string symbol;\n    }\n\n    struct TokenData {\n        ERC20 contractAddress;\n        address owner;\n        string jsonAbi;\n        string name;\n        string symbol;\n        uint8 decimals;\n    }\n\n    struct TokenUser {\n        address user;\n        string[]tokenSymbols;\n        uint size;   \n    }\n\n    struct NftUser {\n        address user;\n        string[]nftSymbols;\n        uint size;\n    }\n\n    // mapping aste\n    mapping(address => NftAuction) internal auctions;\n    // mapping admin\n    mapping(address => bool) internal isAdmin;\n\n    //mapping erc20\n    mapping(string => TokenData) internal token;\n    //mapping erc721\n    mapping(string => NftData) internal nft;\n\n    //mapping erc20 property\n    mapping(address => TokenUser) internal tokenProperty;\n    //mapping erc721 property\n    mapping(address => NftUser) internal nftProperty;\n\n    event AdminAdded(address indexed _from, address indexed _who);\n\n    constructor() {\n        isAdmin[msg.sender] = true;\n        // inizializzare a 0 le struct size\n        emit AdminAdded(address(0), msg.sender);\n    }\n\n    function makeAdmin(address _address) public {\n        require(isAdmin[msg.sender],\"Must be admin to create another admin\");\n        isAdmin[_address] = true;\n        emit AdminAdded(msg.sender, _address);\n    }\n\n    function addErc721(\n        ERC721 _erc721,\n        address _owner,\n        string memory _abi_json,\n        uint256 _tokenId,\n        string memory _uri,\n        string memory _name,\n        string memory _symbol\n    ) public {\n        require(isAdmin[msg.sender], \"Must be admin to add erc721 contracts\");\n\n        NftData memory tempNftData = NftData({\n            contractAddress: _erc721,\n            owner: _owner,\n            tokenId: _tokenId,\n            jsonAbi: _abi_json,\n            uri: _uri,\n            name: _name,\n            symbol: _symbol\n        });\n        nft[_symbol] = tempNftData;\n\n        // set new data\n\n        nftProperty[_owner].nftSymbols.push(_symbol);\n        nftProperty[_owner].size += 1; \n    }\n\n    function getOwnedNft(address _address) public view returns(uint,string[]memory array){\n        return(\n            nftProperty[_address].size,\n            nftProperty[_address].nftSymbols\n        );\n    }\n\n    function getNftToken(string memory _symbol) public view returns(ERC721,address,uint256,string memory, string memory,string memory,string memory){\n        return(\n            nft[_symbol].contractAddress,\n            nft[_symbol].owner,\n            nft[_symbol].tokenId,\n            nft[_symbol].jsonAbi,\n            nft[_symbol].uri,\n            nft[_symbol].name,\n            nft[_symbol].symbol\n        );\n    }\n\n    function addErc20(\n        ERC20 _erc20,\n        address _owner,\n        string memory _abi_json,\n        string memory _name,\n        string memory _symbol,\n        uint8 _decimals \n    ) public {\n        require(isAdmin[msg.sender], \"Must be admin to add erc20 contracts\");\n\n        TokenData memory tempTokenData = TokenData({\n            contractAddress: _erc20,\n            owner: _owner,\n            jsonAbi: _abi_json,\n            name: _name,\n            symbol: _symbol,\n            decimals: _decimals\n        });\n        token[_symbol] = tempTokenData;\n\n        // set new data\n\n        tokenProperty[_owner].tokenSymbols.push(_symbol);\n        tokenProperty[_owner].size += 1;\n    }\n\n    function getOwnedToken(address _address) public view returns(uint,string[]memory array){\n        return(\n            tokenProperty[_address].size,\n            tokenProperty[_address].tokenSymbols\n        );\n    } \n\n    function getToken(string memory _symbol) public view returns(ERC20,address,string memory,string memory,string memory,uint8){\n        return(\n            token[_symbol].contractAddress,\n            token[_symbol].owner,\n            token[_symbol].jsonAbi,\n            token[_symbol].name,\n            token[_symbol].symbol,\n            token[_symbol].decimals\n        );\n    }\n\n    function createAuction(\n        uint256 _amount,\n        uint256 _time,\n        ERC721 _erc721,\n        ERC20 _erc20,\n        uint256 _tokenId\n    ) public {\n        NftMarket auctionContract = new NftMarket(\n            _amount,\n            _time,\n            _erc721,\n            _erc20,\n            _tokenId\n        );\n        NftAuction memory tempAuctionData = NftAuction({\n            contractAddress: address(auctionContract),\n            amount: _amount,\n            time: _time,\n            erc721: _erc721,\n            erc20: _erc20,\n            tokenId: _tokenId\n        });\n        auctions[address(auctionContract)] = tempAuctionData;\n    }\n\n    function getAuction(address _addr) public view returns(uint256,uint256,ERC721,ERC20,uint256){\n        return(\n            auctions[_addr].amount,\n            auctions[_addr].time,\n            auctions[_addr].erc721,\n            auctions[_addr].erc20,\n            auctions[_addr].tokenId\n        );\n    }\n}\n",
  "sourcePath": "/Users/mauriziocapone/Desktop/nftmarketplaceapp/contracts/Registry.sol",
  "compiler": {
    "name": "solc",
    "version": "0.8.1+commit.df193b15.Emscripten.clang"
  },
  "schemaVersion": "3.4.1",
  "updatedAt": "2021-08-19T10:14:59.954Z",
  "networkType": "ethereum",
  "devdoc": {
    "kind": "dev",
    "methods": {},
    "version": 1
  },
  "userdoc": {
    "kind": "user",
    "methods": {},
    "version": 1
  }
}