{
  "contractName": "Registry",
  "abi": [
    {
      "inputs": [],
      "stateMutability": "nonpayable",
      "type": "constructor"
    },
    {
      "anonymous": false,
      "inputs": [
        {
          "indexed": true,
          "internalType": "address",
          "name": "_from",
          "type": "address"
        },
        {
          "indexed": true,
          "internalType": "address",
          "name": "_who",
          "type": "address"
        }
      ],
      "name": "AdminAdded",
      "type": "event"
    },
    {
      "inputs": [
        {
          "internalType": "uint256",
          "name": "",
          "type": "uint256"
        }
      ],
      "name": "allAuctions",
      "outputs": [
        {
          "internalType": "address",
          "name": "",
          "type": "address"
        }
      ],
      "stateMutability": "view",
      "type": "function",
      "constant": true
    },
    {
      "inputs": [],
      "name": "contractCreated",
      "outputs": [
        {
          "internalType": "uint256",
          "name": "",
          "type": "uint256"
        }
      ],
      "stateMutability": "view",
      "type": "function",
      "constant": true
    },
    {
      "inputs": [
        {
          "internalType": "uint256",
          "name": "",
          "type": "uint256"
        }
      ],
      "name": "nft",
      "outputs": [
        {
          "internalType": "address",
          "name": "",
          "type": "address"
        }
      ],
      "stateMutability": "view",
      "type": "function",
      "constant": true
    },
    {
      "inputs": [
        {
          "internalType": "address",
          "name": "",
          "type": "address"
        }
      ],
      "name": "nftAbi",
      "outputs": [
        {
          "internalType": "string",
          "name": "",
          "type": "string"
        }
      ],
      "stateMutability": "view",
      "type": "function",
      "constant": true
    },
    {
      "inputs": [
        {
          "internalType": "address",
          "name": "",
          "type": "address"
        }
      ],
      "name": "nftSymbol",
      "outputs": [
        {
          "internalType": "string",
          "name": "",
          "type": "string"
        }
      ],
      "stateMutability": "view",
      "type": "function",
      "constant": true
    },
    {
      "inputs": [
        {
          "internalType": "uint256",
          "name": "",
          "type": "uint256"
        }
      ],
      "name": "token",
      "outputs": [
        {
          "internalType": "address",
          "name": "",
          "type": "address"
        }
      ],
      "stateMutability": "view",
      "type": "function",
      "constant": true
    },
    {
      "inputs": [
        {
          "internalType": "address",
          "name": "_address",
          "type": "address"
        }
      ],
      "name": "makeAdmin",
      "outputs": [],
      "stateMutability": "nonpayable",
      "type": "function"
    },
    {
      "inputs": [
        {
          "internalType": "address",
          "name": "_erc721",
          "type": "address"
        },
        {
          "internalType": "string",
          "name": "_abi_json",
          "type": "string"
        },
        {
          "internalType": "uint256",
          "name": "_tokenId",
          "type": "uint256"
        },
        {
          "internalType": "string",
          "name": "_uri",
          "type": "string"
        },
        {
          "internalType": "string",
          "name": "_name",
          "type": "string"
        },
        {
          "internalType": "string",
          "name": "_symbol",
          "type": "string"
        }
      ],
      "name": "addErc721",
      "outputs": [],
      "stateMutability": "nonpayable",
      "type": "function"
    },
    {
      "inputs": [
        {
          "internalType": "string",
          "name": "_symbol",
          "type": "string"
        }
      ],
      "name": "getNftToken",
      "outputs": [
        {
          "internalType": "address",
          "name": "",
          "type": "address"
        },
        {
          "internalType": "uint256",
          "name": "",
          "type": "uint256"
        },
        {
          "internalType": "string",
          "name": "",
          "type": "string"
        },
        {
          "internalType": "string",
          "name": "",
          "type": "string"
        },
        {
          "internalType": "string",
          "name": "",
          "type": "string"
        },
        {
          "internalType": "string",
          "name": "",
          "type": "string"
        }
      ],
      "stateMutability": "view",
      "type": "function",
      "constant": true
    },
    {
      "inputs": [],
      "name": "getNftArray",
      "outputs": [
        {
          "internalType": "address[]",
          "name": "",
          "type": "address[]"
        }
      ],
      "stateMutability": "view",
      "type": "function",
      "constant": true
    },
    {
      "inputs": [
        {
          "internalType": "address",
          "name": "_erc20",
          "type": "address"
        },
        {
          "internalType": "address",
          "name": "_owner",
          "type": "address"
        },
        {
          "internalType": "string",
          "name": "_abi_json",
          "type": "string"
        },
        {
          "internalType": "string",
          "name": "_name",
          "type": "string"
        },
        {
          "internalType": "string",
          "name": "_symbol",
          "type": "string"
        },
        {
          "internalType": "uint8",
          "name": "_decimals",
          "type": "uint8"
        }
      ],
      "name": "addErc20",
      "outputs": [],
      "stateMutability": "nonpayable",
      "type": "function"
    },
    {
      "inputs": [
        {
          "internalType": "string",
          "name": "_symbol",
          "type": "string"
        }
      ],
      "name": "getToken",
      "outputs": [
        {
          "internalType": "address",
          "name": "",
          "type": "address"
        },
        {
          "internalType": "address",
          "name": "",
          "type": "address"
        },
        {
          "internalType": "string",
          "name": "",
          "type": "string"
        },
        {
          "internalType": "string",
          "name": "",
          "type": "string"
        },
        {
          "internalType": "string",
          "name": "",
          "type": "string"
        },
        {
          "internalType": "uint8",
          "name": "",
          "type": "uint8"
        }
      ],
      "stateMutability": "view",
      "type": "function",
      "constant": true
    },
    {
      "inputs": [
        {
          "internalType": "uint256",
          "name": "_amount",
          "type": "uint256"
        },
        {
          "internalType": "uint256",
          "name": "_time",
          "type": "uint256"
        },
        {
          "internalType": "contract ERC721",
          "name": "_erc721",
          "type": "address"
        },
        {
          "internalType": "contract ERC20",
          "name": "_erc20",
          "type": "address"
        },
        {
          "internalType": "uint256",
          "name": "_tokenId",
          "type": "uint256"
        }
      ],
      "name": "createAuction",
      "outputs": [],
      "stateMutability": "nonpayable",
      "type": "function"
    },
    {
      "inputs": [
        {
          "internalType": "address",
          "name": "_addr",
          "type": "address"
        }
      ],
      "name": "getAuction",
      "outputs": [
        {
          "internalType": "uint256",
          "name": "",
          "type": "uint256"
        },
        {
          "internalType": "uint256",
          "name": "",
          "type": "uint256"
        },
        {
          "internalType": "contract ERC721",
          "name": "",
          "type": "address"
        },
        {
          "internalType": "contract ERC20",
          "name": "",
          "type": "address"
        },
        {
          "internalType": "uint256",
          "name": "",
          "type": "uint256"
        },
        {
          "internalType": "address",
          "name": "",
          "type": "address"
        },
        {
          "internalType": "address",
          "name": "",
          "type": "address"
        }
      ],
      "stateMutability": "view",
      "type": "function",
      "constant": true
    }
  ],
  "bytecode": "0x6080604052600060025534801561001557600080fd5b506001600360003373ffffffffffffffffffffffffffffffffffffffff1673ffffffffffffffffffffffffffffffffffffffff16815260200190815260200160002060006101000a81548160ff0219169083151502179055503373ffffffffffffffffffffffffffffffffffffffff16600073ffffffffffffffffffffffffffffffffffffffff167fbf3f493c772c8c283fd124432c2d0f539ab343faa04258fe88e52912d36b102b60405160405180910390a3614562806100d86000396000f3fe60806040523480156200001157600080fd5b5060043610620001005760003560e01c806379deae7b1162000099578063930af8ba116200006f578063930af8ba14620002bd5780639d0214cb14620002f8578063c1733f68146200032e578063edadd10c14620003695762000100565b806379deae7b14620002295780637daa414f1462000265578063823abf3414620002875762000100565b80632a62cdec11620000db5780632a62cdec1462000191578063472905ca14620001b15780634fce9c8414620001d157806375402c6614620001f35762000100565b8063044215c61462000105578063165c5881146200013b5780631c69d7f11462000171575b600080fd5b6200012360048036038101906200011d919062001c75565b62000389565b60405162000132919062001f13565b60405180910390f35b62000159600480360381019062000153919062001c75565b620003c9565b60405162000168919062001f13565b60405180910390f35b6200018f600480360381019062000189919062001b36565b62000409565b005b620001af6004803603810190620001a9919062001a55565b620006e8565b005b620001cf6004803603810190620001c9919062001a29565b62000973565b005b620001db62000ab7565b604051620001ea9190620020e9565b60405180910390f35b6200021160048036038101906200020b919062001a29565b62000abd565b6040516200022091906200205f565b60405180910390f35b62000247600480360381019062000241919062001a29565b62000b65565b6040516200025c979695949392919062002173565b60405180910390f35b6200026f62000dd7565b6040516200027e91906200203b565b60405180910390f35b620002a560048036038101906200029f919062001a29565b62000e67565b604051620002b491906200205f565b60405180910390f35b620002db6004803603810190620002d5919062001c30565b62000f0f565b604051620002ef9695949392919062001fb2565b60405180910390f35b62000316600480360381019062000310919062001c75565b62001271565b60405162000325919062001f13565b60405180910390f35b6200034c600480360381019062000346919062001c30565b620012b1565b604051620003609695949392919062001f30565b60405180910390f35b62000387600480360381019062000381919062001ca1565b620015ae565b005b600981815481106200039a57600080fd5b906000526020600020016000915054906101000a900473ffffffffffffffffffffffffffffffffffffffff1681565b60018181548110620003da57600080fd5b906000526020600020016000915054906101000a900473ffffffffffffffffffffffffffffffffffffffff1681565b600360003373ffffffffffffffffffffffffffffffffffffffff1673ffffffffffffffffffffffffffffffffffffffff16815260200190815260200160002060009054906101000a900460ff1662000498576040517f08c379a00000000000000000000000000000000000000000000000000000000081526004016200048f90620020c7565b60405180910390fd5b60006040518060c001604052808873ffffffffffffffffffffffffffffffffffffffff16815260200186815260200187815260200185815260200184815260200183815250905080600583604051620004f2919062001efa565b908152602001604051809103902060008201518160000160006101000a81548173ffffffffffffffffffffffffffffffffffffffff021916908373ffffffffffffffffffffffffffffffffffffffff1602179055506020820151816001015560408201518160020190805190602001906200056f92919062001886565b5060608201518160030190805190602001906200058e92919062001886565b506080820151816004019080519060200190620005ad92919062001886565b5060a0820151816005019080519060200190620005cc92919062001886565b509050506008879080600181540180825580915050600190039060005260206000200160009091909190916101000a81548173ffffffffffffffffffffffffffffffffffffffff021916908373ffffffffffffffffffffffffffffffffffffffff16021790555081600660008973ffffffffffffffffffffffffffffffffffffffff1673ffffffffffffffffffffffffffffffffffffffff16815260200190815260200160002090805190602001906200068892919062001886565b5085600760008973ffffffffffffffffffffffffffffffffffffffff1673ffffffffffffffffffffffffffffffffffffffff1681526020019081526020016000209080519060200190620006de92919062001886565b5050505050505050565b600360003373ffffffffffffffffffffffffffffffffffffffff1673ffffffffffffffffffffffffffffffffffffffff16815260200190815260200160002060009054906101000a900460ff1662000777576040517f08c379a00000000000000000000000000000000000000000000000000000000081526004016200076e90620020a5565b60405180910390fd5b60006040518060c001604052808873ffffffffffffffffffffffffffffffffffffffff1681526020018773ffffffffffffffffffffffffffffffffffffffff1681526020018681526020018581526020018481526020018360ff16815250905080600484604051620007ea919062001efa565b908152602001604051809103902060008201518160000160006101000a81548173ffffffffffffffffffffffffffffffffffffffff021916908373ffffffffffffffffffffffffffffffffffffffff16021790555060208201518160010160006101000a81548173ffffffffffffffffffffffffffffffffffffffff021916908373ffffffffffffffffffffffffffffffffffffffff1602179055506040820151816002019080519060200190620008a492919062001886565b506060820151816003019080519060200190620008c392919062001886565b506080820151816004019080519060200190620008e292919062001886565b5060a08201518160050160006101000a81548160ff021916908360ff1602179055509050506009879080600181540180825580915050600190039060005260206000200160009091909190916101000a81548173ffffffffffffffffffffffffffffffffffffffff021916908373ffffffffffffffffffffffffffffffffffffffff16021790555050505050505050565b600360003373ffffffffffffffffffffffffffffffffffffffff1673ffffffffffffffffffffffffffffffffffffffff16815260200190815260200160002060009054906101000a900460ff1662000a02576040517f08c379a0000000000000000000000000000000000000000000000000000000008152600401620009f99062002083565b60405180910390fd5b6001600360008373ffffffffffffffffffffffffffffffffffffffff1673ffffffffffffffffffffffffffffffffffffffff16815260200190815260200160002060006101000a81548160ff0219169083151502179055508073ffffffffffffffffffffffffffffffffffffffff163373ffffffffffffffffffffffffffffffffffffffff167fbf3f493c772c8c283fd124432c2d0f539ab343faa04258fe88e52912d36b102b60405160405180910390a350565b60025481565b6006602052806000526040600020600091509050805462000ade90620023b7565b80601f016020809104026020016040519081016040528092919081815260200182805462000b0c90620023b7565b801562000b5d5780601f1062000b315761010080835404028352916020019162000b5d565b820191906000526020600020905b81548152906001019060200180831162000b3f57829003601f168201915b505050505081565b60008060008060008060008060008973ffffffffffffffffffffffffffffffffffffffff1673ffffffffffffffffffffffffffffffffffffffff168152602001908152602001600020600101546000808a73ffffffffffffffffffffffffffffffffffffffff1673ffffffffffffffffffffffffffffffffffffffff168152602001908152602001600020600201546000808b73ffffffffffffffffffffffffffffffffffffffff1673ffffffffffffffffffffffffffffffffffffffff16815260200190815260200160002060030160009054906101000a900473ffffffffffffffffffffffffffffffffffffffff166000808c73ffffffffffffffffffffffffffffffffffffffff1673ffffffffffffffffffffffffffffffffffffffff16815260200190815260200160002060040160009054906101000a900473ffffffffffffffffffffffffffffffffffffffff166000808d73ffffffffffffffffffffffffffffffffffffffff1673ffffffffffffffffffffffffffffffffffffffff168152602001908152602001600020600501546000808e73ffffffffffffffffffffffffffffffffffffffff1673ffffffffffffffffffffffffffffffffffffffff16815260200190815260200160002060000160009054906101000a900473ffffffffffffffffffffffffffffffffffffffff166000808f73ffffffffffffffffffffffffffffffffffffffff1673ffffffffffffffffffffffffffffffffffffffff16815260200190815260200160002060060160009054906101000a900473ffffffffffffffffffffffffffffffffffffffff169650965096509650965096509650919395979092949650565b6060600880548060200260200160405190810160405280929190818152602001828054801562000e5d57602002820191906000526020600020905b8160009054906101000a900473ffffffffffffffffffffffffffffffffffffffff1673ffffffffffffffffffffffffffffffffffffffff168152602001906001019080831162000e12575b5050505050905090565b6007602052806000526040600020600091509050805462000e8890620023b7565b80601f016020809104026020016040519081016040528092919081815260200182805462000eb690620023b7565b801562000f075780601f1062000edb5761010080835404028352916020019162000f07565b820191906000526020600020905b81548152906001019060200180831162000ee957829003601f168201915b505050505081565b60008060608060608060058760405162000f2a919062001efa565b908152602001604051809103902060000160009054906101000a900473ffffffffffffffffffffffffffffffffffffffff1660058860405162000f6e919062001efa565b90815260200160405180910390206001015460058960405162000f92919062001efa565b908152602001604051809103902060020160058a60405162000fb5919062001efa565b908152602001604051809103902060030160058b60405162000fd8919062001efa565b908152602001604051809103902060040160058c60405162000ffb919062001efa565b90815260200160405180910390206005018380546200101a90620023b7565b80601f01602080910402602001604051908101604052809291908181526020018280546200104890620023b7565b8015620010995780601f106200106d5761010080835404028352916020019162001099565b820191906000526020600020905b8154815290600101906020018083116200107b57829003601f168201915b50505050509350828054620010ae90620023b7565b80601f0160208091040260200160405190810160405280929190818152602001828054620010dc90620023b7565b80156200112d5780601f1062001101576101008083540402835291602001916200112d565b820191906000526020600020905b8154815290600101906020018083116200110f57829003601f168201915b505050505092508180546200114290620023b7565b80601f01602080910402602001604051908101604052809291908181526020018280546200117090620023b7565b8015620011c15780601f106200119557610100808354040283529160200191620011c1565b820191906000526020600020905b815481529060010190602001808311620011a357829003601f168201915b50505050509150808054620011d690620023b7565b80601f01602080910402602001604051908101604052809291908181526020018280546200120490620023b7565b8015620012555780601f10620012295761010080835404028352916020019162001255565b820191906000526020600020905b8154815290600101906020018083116200123757829003601f168201915b5050505050905095509550955095509550955091939550919395565b600881815481106200128257600080fd5b906000526020600020016000915054906101000a900473ffffffffffffffffffffffffffffffffffffffff1681565b60008060608060606000600487604051620012cd919062001efa565b908152602001604051809103902060000160009054906101000a900473ffffffffffffffffffffffffffffffffffffffff1660048860405162001311919062001efa565b908152602001604051809103902060010160009054906101000a900473ffffffffffffffffffffffffffffffffffffffff1660048960405162001355919062001efa565b908152602001604051809103902060020160048a60405162001378919062001efa565b908152602001604051809103902060030160048b6040516200139b919062001efa565b908152602001604051809103902060040160048c604051620013be919062001efa565b908152602001604051809103902060050160009054906101000a900460ff16838054620013eb90620023b7565b80601f01602080910402602001604051908101604052809291908181526020018280546200141990620023b7565b80156200146a5780601f106200143e576101008083540402835291602001916200146a565b820191906000526020600020905b8154815290600101906020018083116200144c57829003601f168201915b505050505093508280546200147f90620023b7565b80601f0160208091040260200160405190810160405280929190818152602001828054620014ad90620023b7565b8015620014fe5780601f10620014d257610100808354040283529160200191620014fe565b820191906000526020600020905b815481529060010190602001808311620014e057829003601f168201915b505050505092508180546200151390620023b7565b80601f01602080910402602001604051908101604052809291908181526020018280546200154190620023b7565b8015620015925780601f10620015665761010080835404028352916020019162001592565b820191906000526020600020905b8154815290600101906020018083116200157457829003601f168201915b5050505050915095509550955095509550955091939550919395565b6000858585858533604051620015c49062001917565b620015d59695949392919062002106565b604051809103906000f080158015620015f2573d6000803e3d6000fd5b50905060006040518060e001604052808373ffffffffffffffffffffffffffffffffffffffff1681526020018881526020018781526020018673ffffffffffffffffffffffffffffffffffffffff1681526020018573ffffffffffffffffffffffffffffffffffffffff1681526020018481526020013373ffffffffffffffffffffffffffffffffffffffff168152509050806000808473ffffffffffffffffffffffffffffffffffffffff1673ffffffffffffffffffffffffffffffffffffffff16815260200190815260200160002060008201518160000160006101000a81548173ffffffffffffffffffffffffffffffffffffffff021916908373ffffffffffffffffffffffffffffffffffffffff160217905550602082015181600101556040820151816002015560608201518160030160006101000a81548173ffffffffffffffffffffffffffffffffffffffff021916908373ffffffffffffffffffffffffffffffffffffffff16021790555060808201518160040160006101000a81548173ffffffffffffffffffffffffffffffffffffffff021916908373ffffffffffffffffffffffffffffffffffffffff16021790555060a0820151816005015560c08201518160060160006101000a81548173ffffffffffffffffffffffffffffffffffffffff021916908373ffffffffffffffffffffffffffffffffffffffff1602179055509050506001829080600181540180825580915050600190039060005260206000200160009091909190916101000a81548173ffffffffffffffffffffffffffffffffffffffff021916908373ffffffffffffffffffffffffffffffffffffffff16021790555060026000815480929190620018789062002423565b919050555050505050505050565b8280546200189490620023b7565b90600052602060002090601f016020900481019282620018b8576000855562001904565b82601f10620018d357805160ff191683800117855562001904565b8280016001018555821562001904579182015b8281111562001903578251825591602001919060010190620018e6565b5b50905062001913919062001925565b5090565b611eae806200267f83390190565b5b808211156200194057600081600090555060010162001926565b5090565b60006200195b620019558462002219565b620021f0565b9050828152602081018484840111156200197457600080fd5b6200198184828562002372565b509392505050565b6000813590506200199a81620025fc565b92915050565b600081359050620019b18162002616565b92915050565b600081359050620019c88162002630565b92915050565b600082601f830112620019e057600080fd5b8135620019f284826020860162001944565b91505092915050565b60008135905062001a0c816200264a565b92915050565b60008135905062001a238162002664565b92915050565b60006020828403121562001a3c57600080fd5b600062001a4c8482850162001989565b91505092915050565b60008060008060008060c0878903121562001a6f57600080fd5b600062001a7f89828a0162001989565b965050602062001a9289828a0162001989565b955050604087013567ffffffffffffffff81111562001ab057600080fd5b62001abe89828a01620019ce565b945050606087013567ffffffffffffffff81111562001adc57600080fd5b62001aea89828a01620019ce565b935050608087013567ffffffffffffffff81111562001b0857600080fd5b62001b1689828a01620019ce565b92505060a062001b2989828a0162001a12565b9150509295509295509295565b60008060008060008060c0878903121562001b5057600080fd5b600062001b6089828a0162001989565b965050602087013567ffffffffffffffff81111562001b7e57600080fd5b62001b8c89828a01620019ce565b955050604062001b9f89828a01620019fb565b945050606087013567ffffffffffffffff81111562001bbd57600080fd5b62001bcb89828a01620019ce565b935050608087013567ffffffffffffffff81111562001be957600080fd5b62001bf789828a01620019ce565b92505060a087013567ffffffffffffffff81111562001c1557600080fd5b62001c2389828a01620019ce565b9150509295509295509295565b60006020828403121562001c4357600080fd5b600082013567ffffffffffffffff81111562001c5e57600080fd5b62001c6c84828501620019ce565b91505092915050565b60006020828403121562001c8857600080fd5b600062001c9884828501620019fb565b91505092915050565b600080600080600060a0868803121562001cba57600080fd5b600062001cca88828901620019fb565b955050602062001cdd88828901620019fb565b945050604062001cf088828901620019b7565b935050606062001d0388828901620019a0565b925050608062001d1688828901620019fb565b9150509295509295909350565b600062001d31838362001d3d565b60208301905092915050565b62001d4881620022af565b82525050565b62001d5981620022af565b82525050565b600062001d6c826200225f565b62001d78818562002282565b935062001d85836200224f565b8060005b8381101562001dbc57815162001da0888262001d23565b975062001dad8362002275565b92505060018101905062001d89565b5085935050505092915050565b62001dd48162002322565b82525050565b62001de5816200234a565b82525050565b600062001df8826200226a565b62001e04818562002293565b935062001e1681856020860162002381565b62001e2181620024fe565b840191505092915050565b600062001e39826200226a565b62001e458185620022a4565b935062001e5781856020860162002381565b80840191505092915050565b600062001e7260258362002293565b915062001e7f826200250f565b604082019050919050565b600062001e9960248362002293565b915062001ea6826200255e565b604082019050919050565b600062001ec060258362002293565b915062001ecd82620025ad565b604082019050919050565b62001ee3816200230b565b82525050565b62001ef48162002315565b82525050565b600062001f08828462001e2c565b915081905092915050565b600060208201905062001f2a600083018462001d4e565b92915050565b600060c08201905062001f47600083018962001d4e565b62001f56602083018862001d4e565b818103604083015262001f6a818762001deb565b9050818103606083015262001f80818662001deb565b9050818103608083015262001f96818562001deb565b905062001fa760a083018462001ee9565b979650505050505050565b600060c08201905062001fc9600083018962001d4e565b62001fd8602083018862001ed8565b818103604083015262001fec818762001deb565b9050818103606083015262002002818662001deb565b9050818103608083015262002018818562001deb565b905081810360a08301526200202e818462001deb565b9050979650505050505050565b6000602082019050818103600083015262002057818462001d5f565b905092915050565b600060208201905081810360008301526200207b818462001deb565b905092915050565b600060208201905081810360008301526200209e8162001e63565b9050919050565b60006020820190508181036000830152620020c08162001e8a565b9050919050565b60006020820190508181036000830152620020e28162001eb1565b9050919050565b600060208201905062002100600083018462001ed8565b92915050565b600060c0820190506200211d600083018962001ed8565b6200212c602083018862001ed8565b6200213b604083018762001dda565b6200214a606083018662001dc9565b62002159608083018562001ed8565b6200216860a083018462001d4e565b979650505050505050565b600060e0820190506200218a600083018a62001ed8565b62002199602083018962001ed8565b620021a8604083018862001dda565b620021b7606083018762001dc9565b620021c6608083018662001ed8565b620021d560a083018562001d4e565b620021e460c083018462001d4e565b98975050505050505050565b6000620021fc6200220f565b90506200220a8282620023ed565b919050565b6000604051905090565b600067ffffffffffffffff821115620022375762002236620024cf565b5b6200224282620024fe565b9050602081019050919050565b6000819050602082019050919050565b600081519050919050565b600081519050919050565b6000602082019050919050565b600082825260208201905092915050565b600082825260208201905092915050565b600081905092915050565b6000620022bc82620022eb565b9050919050565b6000620022d082620022af565b9050919050565b6000620022e482620022af565b9050919050565b600073ffffffffffffffffffffffffffffffffffffffff82169050919050565b6000819050919050565b600060ff82169050919050565b60006200232f8262002336565b9050919050565b60006200234382620022eb565b9050919050565b600062002357826200235e565b9050919050565b60006200236b82620022eb565b9050919050565b82818337600083830152505050565b60005b83811015620023a157808201518184015260208101905062002384565b83811115620023b1576000848401525b50505050565b60006002820490506001821680620023d057607f821691505b60208210811415620023e757620023e6620024a0565b5b50919050565b620023f882620024fe565b810181811067ffffffffffffffff821117156200241a5762002419620024cf565b5b80604052505050565b600062002430826200230b565b91507fffffffffffffffffffffffffffffffffffffffffffffffffffffffffffffffff82141562002466576200246562002471565b5b600182019050919050565b7f4e487b7100000000000000000000000000000000000000000000000000000000600052601160045260246000fd5b7f4e487b7100000000000000000000000000000000000000000000000000000000600052602260045260246000fd5b7f4e487b7100000000000000000000000000000000000000000000000000000000600052604160045260246000fd5b6000601f19601f8301169050919050565b7f4d7573742062652061646d696e20746f2063726561746520616e6f746865722060008201527f61646d696e000000000000000000000000000000000000000000000000000000602082015250565b7f4d7573742062652061646d696e20746f2061646420657263323020636f6e747260008201527f6163747300000000000000000000000000000000000000000000000000000000602082015250565b7f4d7573742062652061646d696e20746f206164642065726337323120636f6e7460008201527f7261637473000000000000000000000000000000000000000000000000000000602082015250565b6200260781620022af565b81146200261357600080fd5b50565b6200262181620022c3565b81146200262d57600080fd5b50565b6200263b81620022d7565b81146200264757600080fd5b50565b62002655816200230b565b81146200266157600080fd5b50565b6200266f8162002315565b81146200267b57600080fd5b5056fe60806040526000600a553480156200001657600080fd5b5060405162001eae38038062001eae83398181016040528101906200003c919062000233565b806000806101000a81548173ffffffffffffffffffffffffffffffffffffffff021916908373ffffffffffffffffffffffffffffffffffffffff16021790555084600181905550856005819055508160088190555084426200009f9190620002c9565b6002819055506000600d60006101000a81548160ff02191690836002811115620000f2577f4e487b7100000000000000000000000000000000000000000000000000000000600052602160045260246000fd5b02179055506000600d60016101000a81548160ff0219169083600181111562000144577f4e487b7100000000000000000000000000000000000000000000000000000000600052602160045260246000fd5b021790555083600760006101000a81548173ffffffffffffffffffffffffffffffffffffffff021916908373ffffffffffffffffffffffffffffffffffffffff16021790555082600660006101000a81548173ffffffffffffffffffffffffffffffffffffffff021916908373ffffffffffffffffffffffffffffffffffffffff16021790555050505050505062000423565b600081519050620001e881620003bb565b92915050565b600081519050620001ff81620003d5565b92915050565b6000815190506200021681620003ef565b92915050565b6000815190506200022d8162000409565b92915050565b60008060008060008060c087890312156200024d57600080fd5b60006200025d89828a016200021c565b96505060206200027089828a016200021c565b95505060406200028389828a0162000205565b94505060606200029689828a01620001ee565b9350506080620002a989828a016200021c565b92505060a0620002bc89828a01620001d7565b9150509295509295509295565b6000620002d68262000382565b9150620002e38362000382565b9250827fffffffffffffffffffffffffffffffffffffffffffffffffffffffffffffffff038211156200031b576200031a6200038c565b5b828201905092915050565b6000620003338262000362565b9050919050565b6000620003478262000326565b9050919050565b60006200035b8262000326565b9050919050565b600073ffffffffffffffffffffffffffffffffffffffff82169050919050565b6000819050919050565b7f4e487b7100000000000000000000000000000000000000000000000000000000600052601160045260246000fd5b620003c68162000326565b8114620003d257600080fd5b50565b620003e0816200033a565b8114620003ec57600080fd5b50565b620003fa816200034e565b81146200040657600080fd5b50565b620004148162000382565b81146200042057600080fd5b50565b611a7b80620004336000396000f3fe60806040526004361061014b5760003560e01c80637fb45099116100b6578063d6d36b921161006f578063d6d36b9214610461578063d7c97fb41461046b578063e020bf1e14610496578063eb15cc79146104c1578063fc0c546a146104fe578063fe67a54b146105295761014b565b80637fb450991461034d57806391f9015714610378578063b9fdd569146103a3578063c458b65a146103ce578063cff29dfd146103f9578063d57bde79146104365761014b565b80633ccfd60b116101085780633ccfd60b146102645780633d18b9121461026e578063454a2ab31461028c57806351918103146102a857806362ea82db146102e55780636ea947b7146103225761014b565b806317d70f7c146101505780631f8cdb041461017b5780632356032d146101a657806326b387bb146101d15780632ae273041461020e578063378252f214610239575b600080fd5b34801561015c57600080fd5b50610165610554565b60405161017291906116c3565b60405180910390f35b34801561018757600080fd5b5061019061055a565b60405161019d91906115bc565b60405180910390f35b3480156101b257600080fd5b506101bb6105de565b6040516101c891906116c3565b60405180910390f35b3480156101dd57600080fd5b506101f860048036038101906101f39190611338565b6105e4565b60405161020591906116c3565b60405180910390f35b34801561021a57600080fd5b506102236105fc565b6040516102309190611628565b60405180910390f35b34801561024557600080fd5b5061024e61060f565b60405161025b91906115bc565b60405180910390f35b61026c610669565b005b6102766107e8565b60405161028391906115bc565b60405180910390f35b6102a660048036038101906102a1919061138a565b6109c5565b005b3480156102b457600080fd5b506102cf60048036038101906102ca9190611338565b610e8c565b6040516102dc91906115bc565b60405180910390f35b3480156102f157600080fd5b5061030c60048036038101906103079190611338565b610f5e565b60405161031991906116c3565b60405180910390f35b34801561032e57600080fd5b50610337610f76565b60405161034491906116c3565b60405180910390f35b34801561035957600080fd5b50610362610f7c565b60405161036f919061160d565b60405180910390f35b34801561038457600080fd5b5061038d610f8f565b60405161039a91906114ef565b60405180910390f35b3480156103af57600080fd5b506103b8610fb5565b6040516103c591906116c3565b60405180910390f35b3480156103da57600080fd5b506103e3610fbb565b6040516103f091906116c3565b60405180910390f35b34801561040557600080fd5b50610420600480360381019061041b919061138a565b610fc1565b60405161042d91906114ef565b60405180910390f35b34801561044257600080fd5b5061044b611000565b60405161045891906116c3565b60405180910390f35b610469611006565b005b34801561047757600080fd5b50610480611208565b60405161048d91906115d7565b60405180910390f35b3480156104a257600080fd5b506104ab61122e565b6040516104b8919061150a565b60405180910390f35b3480156104cd57600080fd5b506104e860048036038101906104e3919061138a565b611252565b6040516104f591906115bc565b60405180910390f35b34801561050a57600080fd5b50610513611264565b60405161052091906115f2565b60405180910390f35b34801561053557600080fd5b5061053e61128a565b60405161054b91906115bc565b60405180910390f35b60085481565b60006009339080600181540180825580915050600190039060005260206000200160009091909190916101000a81548173ffffffffffffffffffffffffffffffffffffffff021916908373ffffffffffffffffffffffffffffffffffffffff160217905550600a60008154809291906105d290611867565b91905055506001905090565b600a5481565b600b6020528060005260406000206000915090505481565b600d60019054906101000a900460ff1681565b60006002600d60006101000a81548160ff0219169083600281111561065d577f4e487b7100000000000000000000000000000000000000000000000000000000600052602160045260246000fd5b02179055506001905090565b6000600b60003373ffffffffffffffffffffffffffffffffffffffff1673ffffffffffffffffffffffffffffffffffffffff16815260200190815260200160002054905060008111156107ac576000600b60003373ffffffffffffffffffffffffffffffffffffffff1673ffffffffffffffffffffffffffffffffffffffff16815260200190815260200160002081905550600660009054906101000a900473ffffffffffffffffffffffffffffffffffffffff1673ffffffffffffffffffffffffffffffffffffffff1663a9059cbb33836040518363ffffffff1660e01b8152600401610758929190611593565b602060405180830381600087803b15801561077257600080fd5b505af1158015610786573d6000803e3d6000fd5b505050506040513d601f19601f820116820180604052508101906107aa9190611361565b505b7f2f174ca282119315c59efaf21147aef438581dabdeb498198ae28964373dd8bc33826040516107dd929190611593565b60405180910390a150565b60006001600d60006101000a81548160ff02191690836002811115610836577f4e487b7100000000000000000000000000000000000000000000000000000000600052602160045260246000fd5b0217905550600760009054906101000a900473ffffffffffffffffffffffffffffffffffffffff1673ffffffffffffffffffffffffffffffffffffffff166323b872dd60008054906101000a900473ffffffffffffffffffffffffffffffffffffffff16600460009054906101000a900473ffffffffffffffffffffffffffffffffffffffff166008546040518463ffffffff1660e01b81526004016108de93929190611525565b600060405180830381600087803b1580156108f857600080fd5b505af115801561090c573d6000803e3d6000fd5b505050506001600d60016101000a81548160ff0219169083600181111561095c577f4e487b7100000000000000000000000000000000000000000000000000000000600052602160045260246000fd5b02179055507f211b87f8e9320b85590c770a676bf3d5109a5562baf8cfaee8dbf46e34965d85600460009054906101000a900473ffffffffffffffffffffffffffffffffffffffff166008546040516109b6929190611593565b60405180910390a16001905090565b6003548111610a09576040517f08c379a0000000000000000000000000000000000000000000000000000000008152600401610a0090611663565b60405180910390fd5b60008054906101000a900473ffffffffffffffffffffffffffffffffffffffff1673ffffffffffffffffffffffffffffffffffffffff163373ffffffffffffffffffffffffffffffffffffffff161415610a98576040517f08c379a0000000000000000000000000000000000000000000000000000000008152600401610a8f90611643565b60405180910390fd5b6000600660009054906101000a900473ffffffffffffffffffffffffffffffffffffffff1673ffffffffffffffffffffffffffffffffffffffff166370a08231336040518263ffffffff1660e01b8152600401610af591906114ef565b60206040518083038186803b158015610b0d57600080fd5b505afa158015610b21573d6000803e3d6000fd5b505050506040513d601f19601f82011682018060405250810190610b4591906113b3565b905080821115610b8a576040517f08c379a0000000000000000000000000000000000000000000000000000000008152600401610b81906116a3565b60405180910390fd5b600060035414610c74576000600c6000600460009054906101000a900473ffffffffffffffffffffffffffffffffffffffff1673ffffffffffffffffffffffffffffffffffffffff1673ffffffffffffffffffffffffffffffffffffffff16815260200190815260200160002054905080600b6000600460009054906101000a900473ffffffffffffffffffffffffffffffffffffffff1673ffffffffffffffffffffffffffffffffffffffff1673ffffffffffffffffffffffffffffffffffffffff1681526020019081526020016000206000828254610c6b91906116ef565b92505081905550505b6000600c60003373ffffffffffffffffffffffffffffffffffffffff1673ffffffffffffffffffffffffffffffffffffffff168152602001908152602001600020541415610cc657610cc461055a565b505b33600460006101000a81548173ffffffffffffffffffffffffffffffffffffffff021916908373ffffffffffffffffffffffffffffffffffffffff1602179055508160038190555081600c60003373ffffffffffffffffffffffffffffffffffffffff1673ffffffffffffffffffffffffffffffffffffffff1681526020019081526020016000206000828254610d5d91906116ef565b92505081905550600660009054906101000a900473ffffffffffffffffffffffffffffffffffffffff1673ffffffffffffffffffffffffffffffffffffffff166323b872dd3330856040518463ffffffff1660e01b8152600401610dc39392919061155c565b602060405180830381600087803b158015610ddd57600080fd5b505af1158015610df1573d6000803e3d6000fd5b505050506040513d601f19601f82011682018060405250810190610e159190611361565b50600460009054906101000a900473ffffffffffffffffffffffffffffffffffffffff1673ffffffffffffffffffffffffffffffffffffffff167f0d993d4f8a84158f5329713d6d13ef54e77b325040c887c8b3e565cfd0cd3e21600354604051610e8091906116c3565b60405180910390a25050565b600080600090505b600a54811015610f53578273ffffffffffffffffffffffffffffffffffffffff1660098281548110610eef577f4e487b7100000000000000000000000000000000000000000000000000000000600052603260045260246000fd5b9060005260206000200160009054906101000a900473ffffffffffffffffffffffffffffffffffffffff1673ffffffffffffffffffffffffffffffffffffffff161415610f40576001915050610f59565b8080610f4b90611867565b915050610e94565b50600090505b919050565b600c6020528060005260406000206000915090505481565b60015481565b600d60009054906101000a900460ff1681565b600460009054906101000a900473ffffffffffffffffffffffffffffffffffffffff1681565b60055481565b60025481565b60098181548110610fd157600080fd5b906000526020600020016000915054906101000a900473ffffffffffffffffffffffffffffffffffffffff1681565b60035481565b60016002811115611040577f4e487b7100000000000000000000000000000000000000000000000000000000600052602160045260246000fd5b600d60009054906101000a900460ff166002811115611088577f4e487b7100000000000000000000000000000000000000000000000000000000600052602160045260246000fd5b146110c8576040517f08c379a00000000000000000000000000000000000000000000000000000000081526004016110bf90611683565b60405180910390fd5b6002600d60006101000a81548160ff02191690836002811115611114577f4e487b7100000000000000000000000000000000000000000000000000000000600052602160045260246000fd5b0217905550600660009054906101000a900473ffffffffffffffffffffffffffffffffffffffff1673ffffffffffffffffffffffffffffffffffffffff1663a9059cbb336003546040518363ffffffff1660e01b8152600401611178929190611593565b602060405180830381600087803b15801561119257600080fd5b505af11580156111a6573d6000803e3d6000fd5b505050506040513d601f19601f820116820180604052508101906111ca9190611361565b507f8a6db17277818c22641ce476413923c6f0c25171f0baa68f7b97942f9ae94d8c336003546040516111fe929190611593565b60405180910390a1565b600760009054906101000a900473ffffffffffffffffffffffffffffffffffffffff1681565b60008054906101000a900473ffffffffffffffffffffffffffffffffffffffff1681565b60008160088190555060019050919050565b600660009054906101000a900473ffffffffffffffffffffffffffffffffffffffff1681565b60006001600d60006101000a81548160ff021916908360028111156112d8577f4e487b7100000000000000000000000000000000000000000000000000000000600052602160045260246000fd5b02179055506001905090565b6000813590506112f381611a00565b92915050565b60008151905061130881611a17565b92915050565b60008135905061131d81611a2e565b92915050565b60008151905061133281611a2e565b92915050565b60006020828403121561134a57600080fd5b6000611358848285016112e4565b91505092915050565b60006020828403121561137357600080fd5b6000611381848285016112f9565b91505092915050565b60006020828403121561139c57600080fd5b60006113aa8482850161130e565b91505092915050565b6000602082840312156113c557600080fd5b60006113d384828501611323565b91505092915050565b6113e5816117c5565b82525050565b6113f481611757565b82525050565b61140381611745565b82525050565b61141281611769565b82525050565b611421816117d7565b82525050565b611430816117fb565b82525050565b61143f8161181f565b82525050565b61144e81611831565b82525050565b6000611461600f836116de565b915061146c8261190e565b602082019050919050565b60006114846020836116de565b915061148f82611937565b602082019050919050565b60006114a76021836116de565b91506114b282611960565b604082019050919050565b60006114ca601f836116de565b91506114d5826119af565b602082019050919050565b6114e9816117bb565b82525050565b600060208201905061150460008301846113fa565b92915050565b600060208201905061151f60008301846113eb565b92915050565b600060608201905061153a60008301866113dc565b61154760208301856113fa565b61155460408301846114e0565b949350505050565b600060608201905061157160008301866113fa565b61157e60208301856113fa565b61158b60408301846114e0565b949350505050565b60006040820190506115a860008301856113fa565b6115b560208301846114e0565b9392505050565b60006020820190506115d16000830184611409565b92915050565b60006020820190506115ec6000830184611418565b92915050565b60006020820190506116076000830184611427565b92915050565b60006020820190506116226000830184611436565b92915050565b600060208201905061163d6000830184611445565b92915050565b6000602082019050818103600083015261165c81611454565b9050919050565b6000602082019050818103600083015261167c81611477565b9050919050565b6000602082019050818103600083015261169c8161149a565b9050919050565b600060208201905081810360008301526116bc816114bd565b9050919050565b60006020820190506116d860008301846114e0565b92915050565b600082825260208201905092915050565b60006116fa826117bb565b9150611705836117bb565b9250827fffffffffffffffffffffffffffffffffffffffffffffffffffffffffffffffff0382111561173a576117396118b0565b5b828201905092915050565b60006117508261179b565b9050919050565b60006117628261179b565b9050919050565b60008115159050919050565b6000819050611783826119d8565b919050565b6000819050611796826119ec565b919050565b600073ffffffffffffffffffffffffffffffffffffffff82169050919050565b6000819050919050565b60006117d082611843565b9050919050565b60006117e2826117e9565b9050919050565b60006117f48261179b565b9050919050565b60006118068261180d565b9050919050565b60006118188261179b565b9050919050565b600061182a82611775565b9050919050565b600061183c82611788565b9050919050565b600061184e82611855565b9050919050565b60006118608261179b565b9050919050565b6000611872826117bb565b91507fffffffffffffffffffffffffffffffffffffffffffffffffffffffffffffffff8214156118a5576118a46118b0565b5b600182019050919050565b7f4e487b7100000000000000000000000000000000000000000000000000000000600052601160045260246000fd5b7f4e487b7100000000000000000000000000000000000000000000000000000000600052602160045260246000fd5b7f4f776e65722063616e2774206269640000000000000000000000000000000000600082015250565b7f596f752063616e2774206269642c204d616b6520612068696768657220426964600082015250565b7f596f75206e65656420746f20656e64207468652061756374696f6e206669727360008201527f7400000000000000000000000000000000000000000000000000000000000000602082015250565b7f4e6f7420656e6f75676820746f6b656e7320696e207468652077616c6c657400600082015250565b600381106119e9576119e86118df565b5b50565b600281106119fd576119fc6118df565b5b50565b611a0981611745565b8114611a1457600080fd5b50565b611a2081611769565b8114611a2b57600080fd5b50565b611a37816117bb565b8114611a4257600080fd5b5056fea2646970667358221220e79d09ab0b9a29cbf56a046031f089d9c0b0d6298ed1c6e95a8d5760b9b014a964736f6c63430008010033a2646970667358221220cb55cd12088499e7e361acf367a9365691e8955078004db7a090b6a43661540064736f6c63430008010033",
  "immutableReferences": {},
  "source": "// SPDX-License-Identifier: MIT\npragma solidity ^0.8.0;\nimport \"./NftMarket.sol\";\nimport './AuctionToken.sol';\nimport './DeadpoolErc721.sol';\n\ncontract Registry {\n\n    struct NftAuction {\n        address contractAddress;\n        uint256 amount;\n        uint256 time;\n        ERC721 erc721;\n        ERC20 erc20;\n        uint256 tokenId;\n        address owner;\n    }\n\n    struct NftData {\n        address contractAddress;\n        uint256 tokenId;\n        string jsonAbi;\n        string uri;\n        string name;\n        string symbol;\n    }\n\n    struct TokenData {\n        address contractAddress;\n        address owner;\n        string jsonAbi;\n        string name;\n        string symbol;\n        uint8 decimals;\n    }\n\n    struct TokenUser {\n        address user;\n        string[]tokenSymbols;\n        uint size;   \n    }\n\n    struct NftUser {\n        address user;\n        string[]nftSymbols;\n        uint size;\n    }\n\n    // mapping aste\n    mapping(address => NftAuction) internal auctions;\n    address[] public allAuctions;\n    uint public contractCreated = 0;\n    // mapping admin\n    mapping(address => bool) internal isAdmin;\n\n    //mapping erc20\n    mapping(string => TokenData) internal allToken;\n    //mapping erc721\n    mapping(string => NftData) internal allNft;\n\n    //mapping erc721 address - symbol\n    mapping(address => string) public nftSymbol;\n    //mapping erc721 address - abi\n    mapping(address => string) public nftAbi;\n\n    address[]public nft;\n    address[]public token;\n\n    event AdminAdded(address indexed _from, address indexed _who);\n\n    constructor() {\n        isAdmin[msg.sender] = true;\n        emit AdminAdded(address(0), msg.sender);\n    }\n\n    function makeAdmin(address _address) public {\n        require(isAdmin[msg.sender],\"Must be admin to create another admin\");\n        isAdmin[_address] = true;\n        emit AdminAdded(msg.sender, _address);\n    }\n\n    function addErc721(\n        address _erc721,\n        string memory _abi_json,\n        uint256 _tokenId,\n        string memory _uri,\n        string memory _name,\n        string memory _symbol\n    ) public {\n        require(isAdmin[msg.sender], \"Must be admin to add erc721 contracts\");\n\n        NftData memory tempNftData = NftData({\n            contractAddress: _erc721,\n            jsonAbi: _abi_json,\n            tokenId: _tokenId,\n            uri: _uri,\n            name: _name,\n            symbol: _symbol\n        });\n        allNft[_symbol] = tempNftData; \n        nft.push(_erc721);\n        nftSymbol[_erc721] = _symbol;\n        nftAbi[_erc721] = _abi_json;\n    }\n\n    function getNftToken(string memory _symbol) public view returns(address,uint256,string memory, string memory,string memory,string memory){\n        return(\n            allNft[_symbol].contractAddress,\n            allNft[_symbol].tokenId,\n            allNft[_symbol].jsonAbi,\n            allNft[_symbol].uri,\n            allNft[_symbol].name,\n            allNft[_symbol].symbol\n        );\n    }\n\n    function getNftArray() public view returns(address[]memory){\n        return nft;\n    }\n\n    function addErc20(\n        address _erc20,\n        address _owner,\n        string memory _abi_json,\n        string memory _name,\n        string memory _symbol,\n        uint8 _decimals \n    ) public {\n        require(isAdmin[msg.sender], \"Must be admin to add erc20 contracts\");\n\n        TokenData memory tempTokenData = TokenData({\n            contractAddress: _erc20,\n            owner: _owner,\n            jsonAbi: _abi_json,\n            name: _name,\n            symbol: _symbol,\n            decimals: _decimals\n        });\n        allToken[_symbol] = tempTokenData;\n        token.push(_erc20);\n    }\n\n    function getToken(string memory _symbol) public view returns(address,address,string memory,string memory,string memory,uint8){\n        return(\n            allToken[_symbol].contractAddress,\n            allToken[_symbol].owner,\n            allToken[_symbol].jsonAbi,\n            allToken[_symbol].name,\n            allToken[_symbol].symbol,\n            allToken[_symbol].decimals\n        );\n    }\n\n    function createAuction(\n        uint256 _amount,\n        uint256 _time,\n        ERC721 _erc721,\n        ERC20 _erc20,\n        uint256 _tokenId\n    ) public {\n        NftMarket auctionContract = new NftMarket(\n            _amount,\n            _time,\n            _erc721,\n            _erc20,\n            _tokenId,\n            msg.sender\n        );\n        NftAuction memory tempAuctionData = NftAuction({\n            contractAddress: address(auctionContract),\n            amount: _amount,\n            time: _time,\n            erc721: _erc721,\n            erc20: _erc20,\n            tokenId: _tokenId,\n            owner: msg.sender\n        });\n        auctions[address(auctionContract)] = tempAuctionData;\n        allAuctions.push(address(auctionContract));\n        contractCreated++;\n    }\n\n    function getAuction(address _addr) public view returns(uint256,uint256,ERC721,ERC20,uint256,address,address){\n        return(\n            auctions[_addr].amount,\n            auctions[_addr].time,\n            auctions[_addr].erc721,\n            auctions[_addr].erc20,\n            auctions[_addr].tokenId,\n            auctions[_addr].contractAddress,\n            auctions[_addr].owner\n        );\n    }\n}\n",
  "sourcePath": "/Users/mauriziocapone/Desktop/nftmarketplaceapp/contracts/Registry.sol",
  "compiler": {
    "name": "solc",
    "version": "0.8.1+commit.df193b15.Emscripten.clang"
  },
  "schemaVersion": "3.4.1",
  "updatedAt": "2021-09-14T10:20:26.436Z",
  "networkType": "ethereum",
  "devdoc": {
    "kind": "dev",
    "methods": {},
    "version": 1
  },
  "userdoc": {
    "kind": "user",
    "methods": {},
    "version": 1
  }
}