{
  "contractName": "Registry",
  "abi": [
    {
      "inputs": [],
      "stateMutability": "nonpayable",
      "type": "constructor"
    },
    {
      "anonymous": false,
      "inputs": [
        {
          "indexed": true,
          "internalType": "address",
          "name": "_from",
          "type": "address"
        },
        {
          "indexed": true,
          "internalType": "address",
          "name": "_who",
          "type": "address"
        }
      ],
      "name": "AdminAdded",
      "type": "event"
    },
    {
      "anonymous": false,
      "inputs": [
        {
          "indexed": false,
          "internalType": "address",
          "name": "_owner",
          "type": "address"
        },
        {
          "indexed": false,
          "internalType": "address",
          "name": "_auction",
          "type": "address"
        }
      ],
      "name": "AuctionCreated",
      "type": "event"
    },
    {
      "inputs": [
        {
          "internalType": "uint256",
          "name": "",
          "type": "uint256"
        }
      ],
      "name": "allAuctions",
      "outputs": [
        {
          "internalType": "address",
          "name": "",
          "type": "address"
        }
      ],
      "stateMutability": "view",
      "type": "function",
      "constant": true
    },
    {
      "inputs": [],
      "name": "contractCreated",
      "outputs": [
        {
          "internalType": "uint256",
          "name": "",
          "type": "uint256"
        }
      ],
      "stateMutability": "view",
      "type": "function",
      "constant": true
    },
    {
      "inputs": [
        {
          "internalType": "uint256",
          "name": "",
          "type": "uint256"
        }
      ],
      "name": "nft",
      "outputs": [
        {
          "internalType": "address",
          "name": "",
          "type": "address"
        }
      ],
      "stateMutability": "view",
      "type": "function",
      "constant": true
    },
    {
      "inputs": [
        {
          "internalType": "address",
          "name": "",
          "type": "address"
        }
      ],
      "name": "nftAbi",
      "outputs": [
        {
          "internalType": "string",
          "name": "",
          "type": "string"
        }
      ],
      "stateMutability": "view",
      "type": "function",
      "constant": true
    },
    {
      "inputs": [
        {
          "internalType": "contract ERC721",
          "name": "",
          "type": "address"
        }
      ],
      "name": "nftAuction",
      "outputs": [
        {
          "internalType": "address",
          "name": "",
          "type": "address"
        }
      ],
      "stateMutability": "view",
      "type": "function",
      "constant": true
    },
    {
      "inputs": [
        {
          "internalType": "address",
          "name": "",
          "type": "address"
        }
      ],
      "name": "nftSymbol",
      "outputs": [
        {
          "internalType": "string",
          "name": "",
          "type": "string"
        }
      ],
      "stateMutability": "view",
      "type": "function",
      "constant": true
    },
    {
      "inputs": [
        {
          "internalType": "uint256",
          "name": "",
          "type": "uint256"
        }
      ],
      "name": "token",
      "outputs": [
        {
          "internalType": "address",
          "name": "",
          "type": "address"
        }
      ],
      "stateMutability": "view",
      "type": "function",
      "constant": true
    },
    {
      "inputs": [
        {
          "internalType": "address",
          "name": "",
          "type": "address"
        }
      ],
      "name": "userName",
      "outputs": [
        {
          "internalType": "string",
          "name": "",
          "type": "string"
        }
      ],
      "stateMutability": "view",
      "type": "function",
      "constant": true
    },
    {
      "inputs": [
        {
          "internalType": "string",
          "name": "",
          "type": "string"
        }
      ],
      "name": "users",
      "outputs": [
        {
          "internalType": "address",
          "name": "userWallet",
          "type": "address"
        },
        {
          "internalType": "string",
          "name": "username",
          "type": "string"
        },
        {
          "internalType": "string",
          "name": "password",
          "type": "string"
        }
      ],
      "stateMutability": "view",
      "type": "function",
      "constant": true
    },
    {
      "inputs": [
        {
          "internalType": "address",
          "name": "_address",
          "type": "address"
        }
      ],
      "name": "makeAdmin",
      "outputs": [],
      "stateMutability": "nonpayable",
      "type": "function"
    },
    {
      "inputs": [
        {
          "internalType": "address",
          "name": "_userWallet",
          "type": "address"
        },
        {
          "internalType": "string",
          "name": "_username",
          "type": "string"
        },
        {
          "internalType": "string",
          "name": "_password",
          "type": "string"
        }
      ],
      "name": "addUser",
      "outputs": [],
      "stateMutability": "nonpayable",
      "type": "function"
    },
    {
      "inputs": [
        {
          "internalType": "string",
          "name": "_username",
          "type": "string"
        }
      ],
      "name": "getUser",
      "outputs": [
        {
          "internalType": "address",
          "name": "",
          "type": "address"
        },
        {
          "internalType": "string",
          "name": "",
          "type": "string"
        },
        {
          "internalType": "string",
          "name": "",
          "type": "string"
        }
      ],
      "stateMutability": "view",
      "type": "function",
      "constant": true
    },
    {
      "inputs": [
        {
          "internalType": "address",
          "name": "_erc721",
          "type": "address"
        },
        {
          "internalType": "string",
          "name": "_abi_json",
          "type": "string"
        },
        {
          "internalType": "uint256",
          "name": "_tokenId",
          "type": "uint256"
        },
        {
          "internalType": "string",
          "name": "_uri",
          "type": "string"
        },
        {
          "internalType": "string",
          "name": "_name",
          "type": "string"
        },
        {
          "internalType": "string",
          "name": "_symbol",
          "type": "string"
        }
      ],
      "name": "addErc721",
      "outputs": [],
      "stateMutability": "nonpayable",
      "type": "function"
    },
    {
      "inputs": [
        {
          "internalType": "string",
          "name": "_symbol",
          "type": "string"
        }
      ],
      "name": "getNftToken",
      "outputs": [
        {
          "internalType": "address",
          "name": "",
          "type": "address"
        },
        {
          "internalType": "uint256",
          "name": "",
          "type": "uint256"
        },
        {
          "internalType": "string",
          "name": "",
          "type": "string"
        },
        {
          "internalType": "string",
          "name": "",
          "type": "string"
        },
        {
          "internalType": "string",
          "name": "",
          "type": "string"
        },
        {
          "internalType": "string",
          "name": "",
          "type": "string"
        }
      ],
      "stateMutability": "view",
      "type": "function",
      "constant": true
    },
    {
      "inputs": [],
      "name": "getNftArray",
      "outputs": [
        {
          "internalType": "address[]",
          "name": "",
          "type": "address[]"
        }
      ],
      "stateMutability": "view",
      "type": "function",
      "constant": true
    },
    {
      "inputs": [
        {
          "internalType": "address",
          "name": "_erc20",
          "type": "address"
        },
        {
          "internalType": "address",
          "name": "_owner",
          "type": "address"
        },
        {
          "internalType": "string",
          "name": "_abi_json",
          "type": "string"
        },
        {
          "internalType": "string",
          "name": "_name",
          "type": "string"
        },
        {
          "internalType": "string",
          "name": "_symbol",
          "type": "string"
        },
        {
          "internalType": "uint8",
          "name": "_decimals",
          "type": "uint8"
        }
      ],
      "name": "addErc20",
      "outputs": [],
      "stateMutability": "nonpayable",
      "type": "function"
    },
    {
      "inputs": [
        {
          "internalType": "string",
          "name": "_symbol",
          "type": "string"
        }
      ],
      "name": "getToken",
      "outputs": [
        {
          "internalType": "address",
          "name": "",
          "type": "address"
        },
        {
          "internalType": "address",
          "name": "",
          "type": "address"
        },
        {
          "internalType": "string",
          "name": "",
          "type": "string"
        },
        {
          "internalType": "string",
          "name": "",
          "type": "string"
        },
        {
          "internalType": "string",
          "name": "",
          "type": "string"
        },
        {
          "internalType": "uint8",
          "name": "",
          "type": "uint8"
        }
      ],
      "stateMutability": "view",
      "type": "function",
      "constant": true
    },
    {
      "inputs": [
        {
          "internalType": "uint256",
          "name": "_amount",
          "type": "uint256"
        },
        {
          "internalType": "uint256",
          "name": "_date",
          "type": "uint256"
        },
        {
          "internalType": "uint256",
          "name": "_time",
          "type": "uint256"
        },
        {
          "internalType": "contract ERC721",
          "name": "_erc721",
          "type": "address"
        },
        {
          "internalType": "contract ERC20",
          "name": "_erc20",
          "type": "address"
        },
        {
          "internalType": "uint256",
          "name": "_tokenId",
          "type": "uint256"
        }
      ],
      "name": "createAuction",
      "outputs": [],
      "stateMutability": "nonpayable",
      "type": "function"
    },
    {
      "inputs": [
        {
          "internalType": "address",
          "name": "_addr",
          "type": "address"
        }
      ],
      "name": "getAuction",
      "outputs": [
        {
          "internalType": "uint256",
          "name": "",
          "type": "uint256"
        },
        {
          "internalType": "uint256",
          "name": "",
          "type": "uint256"
        },
        {
          "internalType": "uint256",
          "name": "",
          "type": "uint256"
        },
        {
          "internalType": "contract ERC721",
          "name": "",
          "type": "address"
        },
        {
          "internalType": "uint256",
          "name": "",
          "type": "uint256"
        },
        {
          "internalType": "address",
          "name": "",
          "type": "address"
        },
        {
          "internalType": "address",
          "name": "",
          "type": "address"
        }
      ],
      "stateMutability": "view",
      "type": "function",
      "constant": true
    }
  ],
  "bytecode": "0x6080604052600060045534801561001557600080fd5b506001600560003373ffffffffffffffffffffffffffffffffffffffff1673ffffffffffffffffffffffffffffffffffffffff16815260200190815260200160002060006101000a81548160ff0219169083151502179055503373ffffffffffffffffffffffffffffffffffffffff16600073ffffffffffffffffffffffffffffffffffffffff167fbf3f493c772c8c283fd124432c2d0f539ab343faa04258fe88e52912d36b102b60405160405180910390a3614b67806100d86000396000f3fe60806040523480156200001157600080fd5b50600436106200013c5760003560e01c806375402c6611620000bd5780639d0214cb116200007b5780639d0214cb14620003da578063c1733f681462000410578063d7554a68146200044b578063e6b972f5146200046b578063eaa3edfb14620004a1576200013c565b806375402c6614620002d557806379deae7b146200030b5780637daa414f1462000347578063823abf341462000369578063930af8ba146200039f576200013c565b80632a62cdec116200010b5780632a62cdec146200020357806331feb6711462000223578063472905ca146200025b5780634fce9c84146200027b578063689e1c03146200029d576200013c565b8063042f3b4a1462000141578063044215c61462000177578063165c588114620001ad5780631c69d7f114620001e3575b600080fd5b6200015f6004803603810190620001599190620023fe565b620004c1565b6040516200016e919062002721565b60405180910390f35b6200019560048036038101906200018f91906200246f565b620004f4565b604051620001a4919062002721565b60405180910390f35b620001cb6004803603810190620001c591906200246f565b62000534565b604051620001da919062002721565b60405180910390f35b620002016004803603810190620001fb919062002304565b62000574565b005b6200022160048036038101906200021b91906200219b565b62000853565b005b6200024160048036038101906200023b91906200242a565b62000ade565b6040516200025293929190620027ed565b60405180910390f35b6200027960048036038101906200027391906200216f565b62000ca2565b005b6200028562000de6565b6040516200029491906200296f565b60405180910390f35b620002bb6004803603810190620002b591906200242a565b62000dec565b604051620002cc93929190620027ed565b60405180910390f35b620002f36004803603810190620002ed91906200216f565b62000f6c565b604051620003029190620028e5565b60405180910390f35b6200032960048036038101906200032391906200216f565b62001014565b6040516200033e979695949392919062002a09565b60405180910390f35b620003516200126d565b604051620003609190620028c1565b60405180910390f35b6200038760048036038101906200038191906200216f565b620012fd565b604051620003969190620028e5565b60405180910390f35b620003bd6004803603810190620003b791906200242a565b620013a5565b604051620003d19695949392919062002838565b60405180910390f35b620003f86004803603810190620003f291906200246f565b62001707565b60405162000407919062002721565b60405180910390f35b6200042e60048036038101906200042891906200242a565b62001747565b60405162000442969594939291906200276b565b60405180910390f35b6200046960048036038101906200046391906200227c565b62001a44565b005b6200048960048036038101906200048391906200216f565b62001b7e565b604051620004989190620028e5565b60405180910390f35b620004bf6004803603810190620004b991906200249b565b62001c26565b005b600a6020528060005260406000206000915054906101000a900473ffffffffffffffffffffffffffffffffffffffff1681565b600c81815481106200050557600080fd5b906000526020600020016000915054906101000a900473ffffffffffffffffffffffffffffffffffffffff1681565b600381815481106200054557600080fd5b906000526020600020016000915054906101000a900473ffffffffffffffffffffffffffffffffffffffff1681565b600560003373ffffffffffffffffffffffffffffffffffffffff1673ffffffffffffffffffffffffffffffffffffffff16815260200190815260200160002060009054906101000a900460ff1662000603576040517f08c379a0000000000000000000000000000000000000000000000000000000008152600401620005fa906200294d565b60405180910390fd5b60006040518060c001604052808873ffffffffffffffffffffffffffffffffffffffff168152602001868152602001878152602001858152602001848152602001838152509050806007836040516200065d919062002708565b908152602001604051809103902060008201518160000160006101000a81548173ffffffffffffffffffffffffffffffffffffffff021916908373ffffffffffffffffffffffffffffffffffffffff160217905550602082015181600101556040820151816002019080519060200190620006da92919062001fcc565b506060820151816003019080519060200190620006f992919062001fcc565b5060808201518160040190805190602001906200071892919062001fcc565b5060a08201518160050190805190602001906200073792919062001fcc565b50905050600b879080600181540180825580915050600190039060005260206000200160009091909190916101000a81548173ffffffffffffffffffffffffffffffffffffffff021916908373ffffffffffffffffffffffffffffffffffffffff16021790555081600860008973ffffffffffffffffffffffffffffffffffffffff1673ffffffffffffffffffffffffffffffffffffffff1681526020019081526020016000209080519060200190620007f392919062001fcc565b5085600960008973ffffffffffffffffffffffffffffffffffffffff1673ffffffffffffffffffffffffffffffffffffffff16815260200190815260200160002090805190602001906200084992919062001fcc565b5050505050505050565b600560003373ffffffffffffffffffffffffffffffffffffffff1673ffffffffffffffffffffffffffffffffffffffff16815260200190815260200160002060009054906101000a900460ff16620008e2576040517f08c379a0000000000000000000000000000000000000000000000000000000008152600401620008d9906200292b565b60405180910390fd5b60006040518060c001604052808873ffffffffffffffffffffffffffffffffffffffff1681526020018773ffffffffffffffffffffffffffffffffffffffff1681526020018681526020018581526020018481526020018360ff1681525090508060068460405162000955919062002708565b908152602001604051809103902060008201518160000160006101000a81548173ffffffffffffffffffffffffffffffffffffffff021916908373ffffffffffffffffffffffffffffffffffffffff16021790555060208201518160010160006101000a81548173ffffffffffffffffffffffffffffffffffffffff021916908373ffffffffffffffffffffffffffffffffffffffff160217905550604082015181600201908051906020019062000a0f92919062001fcc565b50606082015181600301908051906020019062000a2e92919062001fcc565b50608082015181600401908051906020019062000a4d92919062001fcc565b5060a08201518160050160006101000a81548160ff021916908360ff160217905550905050600c879080600181540180825580915050600190039060005260206000200160009091909190916101000a81548173ffffffffffffffffffffffffffffffffffffffff021916908373ffffffffffffffffffffffffffffffffffffffff16021790555050505050505050565b600060608060008460405162000af5919062002708565b908152602001604051809103902060000160009054906101000a900473ffffffffffffffffffffffffffffffffffffffff1660008560405162000b39919062002708565b908152602001604051809103902060010160008660405162000b5c919062002708565b908152602001604051809103902060020181805462000b7b9062002c4d565b80601f016020809104026020016040519081016040528092919081815260200182805462000ba99062002c4d565b801562000bfa5780601f1062000bce5761010080835404028352916020019162000bfa565b820191906000526020600020905b81548152906001019060200180831162000bdc57829003601f168201915b5050505050915080805462000c0f9062002c4d565b80601f016020809104026020016040519081016040528092919081815260200182805462000c3d9062002c4d565b801562000c8e5780601f1062000c625761010080835404028352916020019162000c8e565b820191906000526020600020905b81548152906001019060200180831162000c7057829003601f168201915b505050505090509250925092509193909250565b600560003373ffffffffffffffffffffffffffffffffffffffff1673ffffffffffffffffffffffffffffffffffffffff16815260200190815260200160002060009054906101000a900460ff1662000d31576040517f08c379a000000000000000000000000000000000000000000000000000000000815260040162000d289062002909565b60405180910390fd5b6001600560008373ffffffffffffffffffffffffffffffffffffffff1673ffffffffffffffffffffffffffffffffffffffff16815260200190815260200160002060006101000a81548160ff0219169083151502179055508073ffffffffffffffffffffffffffffffffffffffff163373ffffffffffffffffffffffffffffffffffffffff167fbf3f493c772c8c283fd124432c2d0f539ab343faa04258fe88e52912d36b102b60405160405180910390a350565b60045481565b6000818051602081018201805184825260208301602085012081835280955050505050506000915090508060000160009054906101000a900473ffffffffffffffffffffffffffffffffffffffff169080600101805462000e4d9062002c4d565b80601f016020809104026020016040519081016040528092919081815260200182805462000e7b9062002c4d565b801562000ecc5780601f1062000ea05761010080835404028352916020019162000ecc565b820191906000526020600020905b81548152906001019060200180831162000eae57829003601f168201915b50505050509080600201805462000ee39062002c4d565b80601f016020809104026020016040519081016040528092919081815260200182805462000f119062002c4d565b801562000f625780601f1062000f365761010080835404028352916020019162000f62565b820191906000526020600020905b81548152906001019060200180831162000f4457829003601f168201915b5050505050905083565b6008602052806000526040600020600091509050805462000f8d9062002c4d565b80601f016020809104026020016040519081016040528092919081815260200182805462000fbb9062002c4d565b80156200100c5780601f1062000fe0576101008083540402835291602001916200100c565b820191906000526020600020905b81548152906001019060200180831162000fee57829003601f168201915b505050505081565b6000806000806000806000600260008973ffffffffffffffffffffffffffffffffffffffff1673ffffffffffffffffffffffffffffffffffffffff16815260200190815260200160002060010154600260008a73ffffffffffffffffffffffffffffffffffffffff1673ffffffffffffffffffffffffffffffffffffffff16815260200190815260200160002060020154600260008b73ffffffffffffffffffffffffffffffffffffffff1673ffffffffffffffffffffffffffffffffffffffff16815260200190815260200160002060030154600260008c73ffffffffffffffffffffffffffffffffffffffff1673ffffffffffffffffffffffffffffffffffffffff16815260200190815260200160002060040160009054906101000a900473ffffffffffffffffffffffffffffffffffffffff16600260008d73ffffffffffffffffffffffffffffffffffffffff1673ffffffffffffffffffffffffffffffffffffffff16815260200190815260200160002060060154600260008e73ffffffffffffffffffffffffffffffffffffffff1673ffffffffffffffffffffffffffffffffffffffff16815260200190815260200160002060000160009054906101000a900473ffffffffffffffffffffffffffffffffffffffff16600260008f73ffffffffffffffffffffffffffffffffffffffff1673ffffffffffffffffffffffffffffffffffffffff16815260200190815260200160002060070160009054906101000a900473ffffffffffffffffffffffffffffffffffffffff169650965096509650965096509650919395979092949650565b6060600b805480602002602001604051908101604052809291908181526020018280548015620012f357602002820191906000526020600020905b8160009054906101000a900473ffffffffffffffffffffffffffffffffffffffff1673ffffffffffffffffffffffffffffffffffffffff1681526020019060010190808311620012a8575b5050505050905090565b600960205280600052604060002060009150905080546200131e9062002c4d565b80601f01602080910402602001604051908101604052809291908181526020018280546200134c9062002c4d565b80156200139d5780601f1062001371576101008083540402835291602001916200139d565b820191906000526020600020905b8154815290600101906020018083116200137f57829003601f168201915b505050505081565b600080606080606080600787604051620013c0919062002708565b908152602001604051809103902060000160009054906101000a900473ffffffffffffffffffffffffffffffffffffffff1660078860405162001404919062002708565b90815260200160405180910390206001015460078960405162001428919062002708565b908152602001604051809103902060020160078a6040516200144b919062002708565b908152602001604051809103902060030160078b6040516200146e919062002708565b908152602001604051809103902060040160078c60405162001491919062002708565b9081526020016040518091039020600501838054620014b09062002c4d565b80601f0160208091040260200160405190810160405280929190818152602001828054620014de9062002c4d565b80156200152f5780601f1062001503576101008083540402835291602001916200152f565b820191906000526020600020905b8154815290600101906020018083116200151157829003601f168201915b50505050509350828054620015449062002c4d565b80601f0160208091040260200160405190810160405280929190818152602001828054620015729062002c4d565b8015620015c35780601f106200159757610100808354040283529160200191620015c3565b820191906000526020600020905b815481529060010190602001808311620015a557829003601f168201915b50505050509250818054620015d89062002c4d565b80601f0160208091040260200160405190810160405280929190818152602001828054620016069062002c4d565b8015620016575780601f106200162b5761010080835404028352916020019162001657565b820191906000526020600020905b8154815290600101906020018083116200163957829003601f168201915b505050505091508080546200166c9062002c4d565b80601f01602080910402602001604051908101604052809291908181526020018280546200169a9062002c4d565b8015620016eb5780601f10620016bf57610100808354040283529160200191620016eb565b820191906000526020600020905b815481529060010190602001808311620016cd57829003601f168201915b5050505050905095509550955095509550955091939550919395565b600b81815481106200171857600080fd5b906000526020600020016000915054906101000a900473ffffffffffffffffffffffffffffffffffffffff1681565b6000806060806060600060068760405162001763919062002708565b908152602001604051809103902060000160009054906101000a900473ffffffffffffffffffffffffffffffffffffffff16600688604051620017a7919062002708565b908152602001604051809103902060010160009054906101000a900473ffffffffffffffffffffffffffffffffffffffff16600689604051620017eb919062002708565b908152602001604051809103902060020160068a6040516200180e919062002708565b908152602001604051809103902060030160068b60405162001831919062002708565b908152602001604051809103902060040160068c60405162001854919062002708565b908152602001604051809103902060050160009054906101000a900460ff16838054620018819062002c4d565b80601f0160208091040260200160405190810160405280929190818152602001828054620018af9062002c4d565b8015620019005780601f10620018d45761010080835404028352916020019162001900565b820191906000526020600020905b815481529060010190602001808311620018e257829003601f168201915b50505050509350828054620019159062002c4d565b80601f0160208091040260200160405190810160405280929190818152602001828054620019439062002c4d565b8015620019945780601f10620019685761010080835404028352916020019162001994565b820191906000526020600020905b8154815290600101906020018083116200197657829003601f168201915b50505050509250818054620019a99062002c4d565b80601f0160208091040260200160405190810160405280929190818152602001828054620019d79062002c4d565b801562001a285780601f10620019fc5761010080835404028352916020019162001a28565b820191906000526020600020905b81548152906001019060200180831162001a0a57829003601f168201915b5050505050915095509550955095509550955091939550919395565b600060405180606001604052808573ffffffffffffffffffffffffffffffffffffffff1681526020018481526020018381525090508060008460405162001a8c919062002708565b908152602001604051809103902060008201518160000160006101000a81548173ffffffffffffffffffffffffffffffffffffffff021916908373ffffffffffffffffffffffffffffffffffffffff160217905550602082015181600101908051906020019062001aff92919062001fcc565b50604082015181600201908051906020019062001b1e92919062001fcc565b5090505082600160008673ffffffffffffffffffffffffffffffffffffffff1673ffffffffffffffffffffffffffffffffffffffff168152602001908152602001600020908051906020019062001b7792919062001fcc565b5050505050565b6001602052806000526040600020600091509050805462001b9f9062002c4d565b80601f016020809104026020016040519081016040528092919081815260200182805462001bcd9062002c4d565b801562001c1e5780601f1062001bf25761010080835404028352916020019162001c1e565b820191906000526020600020905b81548152906001019060200180831162001c0057829003601f168201915b505050505081565b60008686868686863360405162001c3d906200205d565b62001c4f97969594939291906200298c565b604051809103906000f08015801562001c6c573d6000803e3d6000fd5b50905060006040518061010001604052808373ffffffffffffffffffffffffffffffffffffffff1681526020018981526020018881526020018781526020018673ffffffffffffffffffffffffffffffffffffffff1681526020018573ffffffffffffffffffffffffffffffffffffffff1681526020018481526020013373ffffffffffffffffffffffffffffffffffffffff16815250905080600260008473ffffffffffffffffffffffffffffffffffffffff1673ffffffffffffffffffffffffffffffffffffffff16815260200190815260200160002060008201518160000160006101000a81548173ffffffffffffffffffffffffffffffffffffffff021916908373ffffffffffffffffffffffffffffffffffffffff16021790555060208201518160010155604082015181600201556060820151816003015560808201518160040160006101000a81548173ffffffffffffffffffffffffffffffffffffffff021916908373ffffffffffffffffffffffffffffffffffffffff16021790555060a08201518160050160006101000a81548173ffffffffffffffffffffffffffffffffffffffff021916908373ffffffffffffffffffffffffffffffffffffffff16021790555060c0820151816006015560e08201518160070160006101000a81548173ffffffffffffffffffffffffffffffffffffffff021916908373ffffffffffffffffffffffffffffffffffffffff16021790555090505081600a60008773ffffffffffffffffffffffffffffffffffffffff1673ffffffffffffffffffffffffffffffffffffffff16815260200190815260200160002060006101000a81548173ffffffffffffffffffffffffffffffffffffffff021916908373ffffffffffffffffffffffffffffffffffffffff1602179055506003829080600181540180825580915050600190039060005260206000200160009091909190916101000a81548173ffffffffffffffffffffffffffffffffffffffff021916908373ffffffffffffffffffffffffffffffffffffffff1602179055506004600081548092919062001f829062002cb9565b91905055507f0bdb7849ed0b0249d0f995067a2ca77769f68ab4c654931e262676effeb395f2338360405162001fba9291906200273e565b60405180910390a15050505050505050565b82805462001fda9062002c4d565b90600052602060002090601f01602090048101928262001ffe57600085556200204a565b82601f106200201957805160ff19168380011785556200204a565b828001600101855582156200204a579182015b82811115620020495782518255916020019190600101906200202c565b5b5090506200205991906200206b565b5090565b611c1d8062002f1583390190565b5b80821115620020865760008160009055506001016200206c565b5090565b6000620020a16200209b8462002aaf565b62002a86565b905082815260208101848484011115620020ba57600080fd5b620020c784828562002c08565b509392505050565b600081359050620020e08162002e92565b92915050565b600081359050620020f78162002eac565b92915050565b6000813590506200210e8162002ec6565b92915050565b600082601f8301126200212657600080fd5b8135620021388482602086016200208a565b91505092915050565b600081359050620021528162002ee0565b92915050565b600081359050620021698162002efa565b92915050565b6000602082840312156200218257600080fd5b60006200219284828501620020cf565b91505092915050565b60008060008060008060c08789031215620021b557600080fd5b6000620021c589828a01620020cf565b9650506020620021d889828a01620020cf565b955050604087013567ffffffffffffffff811115620021f657600080fd5b6200220489828a0162002114565b945050606087013567ffffffffffffffff8111156200222257600080fd5b6200223089828a0162002114565b935050608087013567ffffffffffffffff8111156200224e57600080fd5b6200225c89828a0162002114565b92505060a06200226f89828a0162002158565b9150509295509295509295565b6000806000606084860312156200229257600080fd5b6000620022a286828701620020cf565b935050602084013567ffffffffffffffff811115620022c057600080fd5b620022ce8682870162002114565b925050604084013567ffffffffffffffff811115620022ec57600080fd5b620022fa8682870162002114565b9150509250925092565b60008060008060008060c087890312156200231e57600080fd5b60006200232e89828a01620020cf565b965050602087013567ffffffffffffffff8111156200234c57600080fd5b6200235a89828a0162002114565b95505060406200236d89828a0162002141565b945050606087013567ffffffffffffffff8111156200238b57600080fd5b6200239989828a0162002114565b935050608087013567ffffffffffffffff811115620023b757600080fd5b620023c589828a0162002114565b92505060a087013567ffffffffffffffff811115620023e357600080fd5b620023f189828a0162002114565b9150509295509295509295565b6000602082840312156200241157600080fd5b60006200242184828501620020fd565b91505092915050565b6000602082840312156200243d57600080fd5b600082013567ffffffffffffffff8111156200245857600080fd5b620024668482850162002114565b91505092915050565b6000602082840312156200248257600080fd5b6000620024928482850162002141565b91505092915050565b60008060008060008060c08789031215620024b557600080fd5b6000620024c589828a0162002141565b9650506020620024d889828a0162002141565b9550506040620024eb89828a0162002141565b9450506060620024fe89828a01620020fd565b93505060806200251189828a01620020e6565b92505060a06200252489828a0162002141565b9150509295509295509295565b60006200253f83836200254b565b60208301905092915050565b620025568162002b45565b82525050565b620025678162002b45565b82525050565b60006200257a8262002af5565b62002586818562002b18565b9350620025938362002ae5565b8060005b83811015620025ca578151620025ae888262002531565b9750620025bb8362002b0b565b92505060018101905062002597565b5085935050505092915050565b620025e28162002bb8565b82525050565b620025f38162002be0565b82525050565b6000620026068262002b00565b62002612818562002b29565b93506200262481856020860162002c17565b6200262f8162002d94565b840191505092915050565b6000620026478262002b00565b62002653818562002b3a565b93506200266581856020860162002c17565b80840191505092915050565b60006200268060258362002b29565b91506200268d8262002da5565b604082019050919050565b6000620026a760248362002b29565b9150620026b48262002df4565b604082019050919050565b6000620026ce60258362002b29565b9150620026db8262002e43565b604082019050919050565b620026f18162002ba1565b82525050565b620027028162002bab565b82525050565b60006200271682846200263a565b915081905092915050565b60006020820190506200273860008301846200255c565b92915050565b60006040820190506200275560008301856200255c565b6200276460208301846200255c565b9392505050565b600060c0820190506200278260008301896200255c565b6200279160208301886200255c565b8181036040830152620027a58187620025f9565b90508181036060830152620027bb8186620025f9565b90508181036080830152620027d18185620025f9565b9050620027e260a0830184620026f7565b979650505050505050565b60006060820190506200280460008301866200255c565b8181036020830152620028188185620025f9565b905081810360408301526200282e8184620025f9565b9050949350505050565b600060c0820190506200284f60008301896200255c565b6200285e6020830188620026e6565b8181036040830152620028728187620025f9565b90508181036060830152620028888186620025f9565b905081810360808301526200289e8185620025f9565b905081810360a0830152620028b48184620025f9565b9050979650505050505050565b60006020820190508181036000830152620028dd81846200256d565b905092915050565b60006020820190508181036000830152620029018184620025f9565b905092915050565b60006020820190508181036000830152620029248162002671565b9050919050565b60006020820190508181036000830152620029468162002698565b9050919050565b600060208201905081810360008301526200296881620026bf565b9050919050565b6000602082019050620029866000830184620026e6565b92915050565b600060e082019050620029a3600083018a620026e6565b620029b26020830189620026e6565b620029c16040830188620026e6565b620029d06060830187620025e8565b620029df6080830186620025d7565b620029ee60a0830185620026e6565b620029fd60c08301846200255c565b98975050505050505050565b600060e08201905062002a20600083018a620026e6565b62002a2f6020830189620026e6565b62002a3e6040830188620026e6565b62002a4d6060830187620025e8565b62002a5c6080830186620026e6565b62002a6b60a08301856200255c565b62002a7a60c08301846200255c565b98975050505050505050565b600062002a9262002aa5565b905062002aa0828262002c83565b919050565b6000604051905090565b600067ffffffffffffffff82111562002acd5762002acc62002d65565b5b62002ad88262002d94565b9050602081019050919050565b6000819050602082019050919050565b600081519050919050565b600081519050919050565b6000602082019050919050565b600082825260208201905092915050565b600082825260208201905092915050565b600081905092915050565b600062002b528262002b81565b9050919050565b600062002b668262002b45565b9050919050565b600062002b7a8262002b45565b9050919050565b600073ffffffffffffffffffffffffffffffffffffffff82169050919050565b6000819050919050565b600060ff82169050919050565b600062002bc58262002bcc565b9050919050565b600062002bd98262002b81565b9050919050565b600062002bed8262002bf4565b9050919050565b600062002c018262002b81565b9050919050565b82818337600083830152505050565b60005b8381101562002c3757808201518184015260208101905062002c1a565b8381111562002c47576000848401525b50505050565b6000600282049050600182168062002c6657607f821691505b6020821081141562002c7d5762002c7c62002d36565b5b50919050565b62002c8e8262002d94565b810181811067ffffffffffffffff8211171562002cb05762002caf62002d65565b5b80604052505050565b600062002cc68262002ba1565b91507fffffffffffffffffffffffffffffffffffffffffffffffffffffffffffffffff82141562002cfc5762002cfb62002d07565b5b600182019050919050565b7f4e487b7100000000000000000000000000000000000000000000000000000000600052601160045260246000fd5b7f4e487b7100000000000000000000000000000000000000000000000000000000600052602260045260246000fd5b7f4e487b7100000000000000000000000000000000000000000000000000000000600052604160045260246000fd5b6000601f19601f8301169050919050565b7f4d7573742062652061646d696e20746f2063726561746520616e6f746865722060008201527f61646d696e000000000000000000000000000000000000000000000000000000602082015250565b7f4d7573742062652061646d696e20746f2061646420657263323020636f6e747260008201527f6163747300000000000000000000000000000000000000000000000000000000602082015250565b7f4d7573742062652061646d696e20746f206164642065726337323120636f6e7460008201527f7261637473000000000000000000000000000000000000000000000000000000602082015250565b62002e9d8162002b45565b811462002ea957600080fd5b50565b62002eb78162002b59565b811462002ec357600080fd5b50565b62002ed18162002b6d565b811462002edd57600080fd5b50565b62002eeb8162002ba1565b811462002ef757600080fd5b50565b62002f058162002bab565b811462002f1157600080fd5b5056fe60806040526000600b553480156200001657600080fd5b5060405162001c1d38038062001c1d83398181016040528101906200003c91906200023b565b806000806101000a81548173ffffffffffffffffffffffffffffffffffffffff021916908373ffffffffffffffffffffffffffffffffffffffff160217905550846001819055508660068190555085600381905550816009819055508442620000a69190620002e8565b6002819055506000600e60006101000a81548160ff02191690836002811115620000f9577f4e487b7100000000000000000000000000000000000000000000000000000000600052602160045260246000fd5b02179055506001600e60016101000a81548160ff021916908360028111156200014b577f4e487b7100000000000000000000000000000000000000000000000000000000600052602160045260246000fd5b021790555083600860006101000a81548173ffffffffffffffffffffffffffffffffffffffff021916908373ffffffffffffffffffffffffffffffffffffffff16021790555082600760006101000a81548173ffffffffffffffffffffffffffffffffffffffff021916908373ffffffffffffffffffffffffffffffffffffffff1602179055505050505050505062000442565b600081519050620001f081620003da565b92915050565b6000815190506200020781620003f4565b92915050565b6000815190506200021e816200040e565b92915050565b600081519050620002358162000428565b92915050565b600080600080600080600060e0888a0312156200025757600080fd5b6000620002678a828b0162000224565b97505060206200027a8a828b0162000224565b96505060406200028d8a828b0162000224565b9550506060620002a08a828b016200020d565b9450506080620002b38a828b01620001f6565b93505060a0620002c68a828b0162000224565b92505060c0620002d98a828b01620001df565b91505092959891949750929550565b6000620002f582620003a1565b91506200030283620003a1565b9250827fffffffffffffffffffffffffffffffffffffffffffffffffffffffffffffffff038211156200033a5762000339620003ab565b5b828201905092915050565b6000620003528262000381565b9050919050565b6000620003668262000345565b9050919050565b60006200037a8262000345565b9050919050565b600073ffffffffffffffffffffffffffffffffffffffff82169050919050565b6000819050919050565b7f4e487b7100000000000000000000000000000000000000000000000000000000600052601160045260246000fd5b620003e58162000345565b8114620003f157600080fd5b50565b620003ff8162000359565b81146200040b57600080fd5b50565b62000419816200036d565b81146200042557600080fd5b50565b6200043381620003a1565b81146200043f57600080fd5b50565b6117cb80620004526000396000f3fe6080604052600436106101355760003560e01c806391f90157116100ab578063d57bde791161006f578063d57bde7914610423578063d7c97fb41461044e578063e020bf1e14610479578063eb15cc79146104a4578063fc0c546a146104e1578063fe67a54b1461050c57610135565b806391f901571461033a5780639c91cdb314610365578063b9fdd56914610390578063c458b65a146103bb578063cff29dfd146103e657610135565b8063378252f2116100fd578063378252f214610223578063454a2ab31461024e578063519181031461026a57806362ea82db146102a75780636ea947b7146102e45780637fb450991461030f57610135565b806317d70f7c1461013a5780631f8cdb04146101655780632356032d1461019057806326b387bb146101bb5780632ae27304146101f8575b600080fd5b34801561014657600080fd5b5061014f610537565b60405161015c91906114b8565b60405180910390f35b34801561017157600080fd5b5061017a61053d565b60405161018791906113d1565b60405180910390f35b34801561019c57600080fd5b506101a56105c1565b6040516101b291906114b8565b60405180910390f35b3480156101c757600080fd5b506101e260048036038101906101dd9190611147565b6105c7565b6040516101ef91906114b8565b60405180910390f35b34801561020457600080fd5b5061020d6105df565b60405161021a919061143d565b60405180910390f35b34801561022f57600080fd5b506102386105f2565b60405161024591906113d1565b60405180910390f35b61026860048036038101906102639190611199565b61069d565b005b34801561027657600080fd5b50610291600480360381019061028c9190611147565b610c07565b60405161029e91906113d1565b60405180910390f35b3480156102b357600080fd5b506102ce60048036038101906102c99190611147565b610cd9565b6040516102db91906114b8565b60405180910390f35b3480156102f057600080fd5b506102f9610cf1565b60405161030691906114b8565b60405180910390f35b34801561031b57600080fd5b50610324610cf7565b6040516103319190611422565b60405180910390f35b34801561034657600080fd5b5061034f610d0a565b60405161035c91906112db565b60405180910390f35b34801561037157600080fd5b5061037a610d30565b60405161038791906114b8565b60405180910390f35b34801561039c57600080fd5b506103a5610d36565b6040516103b291906114b8565b60405180910390f35b3480156103c757600080fd5b506103d0610d3c565b6040516103dd91906114b8565b60405180910390f35b3480156103f257600080fd5b5061040d60048036038101906104089190611199565b610d42565b60405161041a91906112db565b60405180910390f35b34801561042f57600080fd5b50610438610d81565b60405161044591906114b8565b60405180910390f35b34801561045a57600080fd5b50610463610d87565b60405161047091906113ec565b60405180910390f35b34801561048557600080fd5b5061048e610dad565b60405161049b91906112f6565b60405180910390f35b3480156104b057600080fd5b506104cb60048036038101906104c69190611199565b610dd1565b6040516104d891906113d1565b60405180910390f35b3480156104ed57600080fd5b506104f6610de3565b6040516105039190611407565b60405180910390f35b34801561051857600080fd5b50610521610e09565b60405161052e91906113d1565b60405180910390f35b60095481565b6000600a339080600181540180825580915050600190039060005260206000200160009091909190916101000a81548173ffffffffffffffffffffffffffffffffffffffff021916908373ffffffffffffffffffffffffffffffffffffffff160217905550600b60008154809291906105b590611606565b91905055506001905090565b600b5481565b600c6020528060005260406000206000915090505481565b600e60019054906101000a900460ff1681565b60006002600e60006101000a81548160ff02191690836002811115610640577f4e487b7100000000000000000000000000000000000000000000000000000000600052602160045260246000fd5b02179055506002600e60016101000a81548160ff02191690836002811115610691577f4e487b7100000000000000000000000000000000000000000000000000000000600052602160045260246000fd5b02179055506001905090565b60045481116106e1576040517f08c379a00000000000000000000000000000000000000000000000000000000081526004016106d890611478565b60405180910390fd5b60008054906101000a900473ffffffffffffffffffffffffffffffffffffffff1673ffffffffffffffffffffffffffffffffffffffff163373ffffffffffffffffffffffffffffffffffffffff161415610770576040517f08c379a000000000000000000000000000000000000000000000000000000000815260040161076790611458565b60405180910390fd5b6000600760009054906101000a900473ffffffffffffffffffffffffffffffffffffffff1673ffffffffffffffffffffffffffffffffffffffff166370a08231336040518263ffffffff1660e01b81526004016107cd91906112db565b60206040518083038186803b1580156107e557600080fd5b505afa1580156107f9573d6000803e3d6000fd5b505050506040513d601f19601f8201168201806040525081019061081d91906111c2565b905080821115610862576040517f08c379a000000000000000000000000000000000000000000000000000000000815260040161085990611498565b60405180910390fd5b600060045414610a01576000600d6000600560009054906101000a900473ffffffffffffffffffffffffffffffffffffffff1673ffffffffffffffffffffffffffffffffffffffff1673ffffffffffffffffffffffffffffffffffffffff168152602001908152602001600020549050600760009054906101000a900473ffffffffffffffffffffffffffffffffffffffff1673ffffffffffffffffffffffffffffffffffffffff1663a9059cbb600560009054906101000a900473ffffffffffffffffffffffffffffffffffffffff16836040518363ffffffff1660e01b81526004016109519291906113a8565b602060405180830381600087803b15801561096b57600080fd5b505af115801561097f573d6000803e3d6000fd5b505050506040513d601f19601f820116820180604052508101906109a39190611170565b507fbb28353e4598c3b9199101a66e0989549b659a59a54d2c27fbb183f1932c8e6d600560009054906101000a900473ffffffffffffffffffffffffffffffffffffffff16826040516109f79291906113a8565b60405180910390a1505b6000600d60003373ffffffffffffffffffffffffffffffffffffffff1673ffffffffffffffffffffffffffffffffffffffff168152602001908152602001600020541415610a5357610a5161053d565b505b33600560006101000a81548173ffffffffffffffffffffffffffffffffffffffff021916908373ffffffffffffffffffffffffffffffffffffffff1602179055508160048190555081600d60003373ffffffffffffffffffffffffffffffffffffffff1673ffffffffffffffffffffffffffffffffffffffff16815260200190815260200160002081905550600760009054906101000a900473ffffffffffffffffffffffffffffffffffffffff1673ffffffffffffffffffffffffffffffffffffffff166323b872dd3330856040518463ffffffff1660e01b8152600401610b3e93929190611371565b602060405180830381600087803b158015610b5857600080fd5b505af1158015610b6c573d6000803e3d6000fd5b505050506040513d601f19601f82011682018060405250810190610b909190611170565b50600560009054906101000a900473ffffffffffffffffffffffffffffffffffffffff1673ffffffffffffffffffffffffffffffffffffffff167f0d993d4f8a84158f5329713d6d13ef54e77b325040c887c8b3e565cfd0cd3e21600454604051610bfb91906114b8565b60405180910390a25050565b600080600090505b600b54811015610cce578273ffffffffffffffffffffffffffffffffffffffff16600a8281548110610c6a577f4e487b7100000000000000000000000000000000000000000000000000000000600052603260045260246000fd5b9060005260206000200160009054906101000a900473ffffffffffffffffffffffffffffffffffffffff1673ffffffffffffffffffffffffffffffffffffffff161415610cbb576001915050610cd4565b8080610cc690611606565b915050610c0f565b50600090505b919050565b600d6020528060005260406000206000915090505481565b60015481565b600e60009054906101000a900460ff1681565b600560009054906101000a900473ffffffffffffffffffffffffffffffffffffffff1681565b60035481565b60065481565b60025481565b600a8181548110610d5257600080fd5b906000526020600020016000915054906101000a900473ffffffffffffffffffffffffffffffffffffffff1681565b60045481565b600860009054906101000a900473ffffffffffffffffffffffffffffffffffffffff1681565b60008054906101000a900473ffffffffffffffffffffffffffffffffffffffff1681565b60008160098190555060019050919050565b600760009054906101000a900473ffffffffffffffffffffffffffffffffffffffff1681565b60006002600e60006101000a81548160ff02191690836002811115610e57577f4e487b7100000000000000000000000000000000000000000000000000000000600052602160045260246000fd5b0217905550600760009054906101000a900473ffffffffffffffffffffffffffffffffffffffff1673ffffffffffffffffffffffffffffffffffffffff1663a9059cbb60008054906101000a900473ffffffffffffffffffffffffffffffffffffffff166004546040518363ffffffff1660e01b8152600401610edb929190611348565b602060405180830381600087803b158015610ef557600080fd5b505af1158015610f09573d6000803e3d6000fd5b505050506040513d601f19601f82011682018060405250810190610f2d9190611170565b50600860009054906101000a900473ffffffffffffffffffffffffffffffffffffffff1673ffffffffffffffffffffffffffffffffffffffff166323b872dd60008054906101000a900473ffffffffffffffffffffffffffffffffffffffff16600560009054906101000a900473ffffffffffffffffffffffffffffffffffffffff166009546040518463ffffffff1660e01b8152600401610fd193929190611311565b600060405180830381600087803b158015610feb57600080fd5b505af1158015610fff573d6000803e3d6000fd5b505050506002600e60016101000a81548160ff0219169083600281111561104f577f4e487b7100000000000000000000000000000000000000000000000000000000600052602160045260246000fd5b02179055507f8a6db17277818c22641ce476413923c6f0c25171f0baa68f7b97942f9ae94d8c336004546040516110879291906113a8565b60405180910390a17f211b87f8e9320b85590c770a676bf3d5109a5562baf8cfaee8dbf46e34965d85600560009054906101000a900473ffffffffffffffffffffffffffffffffffffffff166009546040516110e49291906113a8565b60405180910390a16001905090565b60008135905061110281611750565b92915050565b60008151905061111781611767565b92915050565b60008135905061112c8161177e565b92915050565b6000815190506111418161177e565b92915050565b60006020828403121561115957600080fd5b6000611167848285016110f3565b91505092915050565b60006020828403121561118257600080fd5b600061119084828501611108565b91505092915050565b6000602082840312156111ab57600080fd5b60006111b98482850161111d565b91505092915050565b6000602082840312156111d457600080fd5b60006111e284828501611132565b91505092915050565b6111f481611564565b82525050565b611203816114f6565b82525050565b611212816114e4565b82525050565b61122181611508565b82525050565b61123081611576565b82525050565b61123f8161159a565b82525050565b61124e816115be565b82525050565b61125d816115d0565b82525050565b6000611270600f836114d3565b915061127b826116ad565b602082019050919050565b60006112936020836114d3565b915061129e826116d6565b602082019050919050565b60006112b6601f836114d3565b91506112c1826116ff565b602082019050919050565b6112d58161155a565b82525050565b60006020820190506112f06000830184611209565b92915050565b600060208201905061130b60008301846111fa565b92915050565b600060608201905061132660008301866111eb565b6113336020830185611209565b61134060408301846112cc565b949350505050565b600060408201905061135d60008301856111eb565b61136a60208301846112cc565b9392505050565b60006060820190506113866000830186611209565b6113936020830185611209565b6113a060408301846112cc565b949350505050565b60006040820190506113bd6000830185611209565b6113ca60208301846112cc565b9392505050565b60006020820190506113e66000830184611218565b92915050565b60006020820190506114016000830184611227565b92915050565b600060208201905061141c6000830184611236565b92915050565b60006020820190506114376000830184611245565b92915050565b60006020820190506114526000830184611254565b92915050565b6000602082019050818103600083015261147181611263565b9050919050565b6000602082019050818103600083015261149181611286565b9050919050565b600060208201905081810360008301526114b1816112a9565b9050919050565b60006020820190506114cd60008301846112cc565b92915050565b600082825260208201905092915050565b60006114ef8261153a565b9050919050565b60006115018261153a565b9050919050565b60008115159050919050565b600081905061152282611728565b919050565b60008190506115358261173c565b919050565b600073ffffffffffffffffffffffffffffffffffffffff82169050919050565b6000819050919050565b600061156f826115e2565b9050919050565b600061158182611588565b9050919050565b60006115938261153a565b9050919050565b60006115a5826115ac565b9050919050565b60006115b78261153a565b9050919050565b60006115c982611514565b9050919050565b60006115db82611527565b9050919050565b60006115ed826115f4565b9050919050565b60006115ff8261153a565b9050919050565b60006116118261155a565b91507fffffffffffffffffffffffffffffffffffffffffffffffffffffffffffffffff8214156116445761164361164f565b5b600182019050919050565b7f4e487b7100000000000000000000000000000000000000000000000000000000600052601160045260246000fd5b7f4e487b7100000000000000000000000000000000000000000000000000000000600052602160045260246000fd5b7f4f776e65722063616e2774206269640000000000000000000000000000000000600082015250565b7f596f752063616e2774206269642c204d616b6520612068696768657220426964600082015250565b7f4e6f7420656e6f75676820746f6b656e7320696e207468652077616c6c657400600082015250565b600381106117395761173861167e565b5b50565b6003811061174d5761174c61167e565b5b50565b611759816114e4565b811461176457600080fd5b50565b61177081611508565b811461177b57600080fd5b50565b6117878161155a565b811461179257600080fd5b5056fea2646970667358221220cda8a71fa8a8b9f3d266f48471295734b25827a0c01bf2492243e504bc061e8a64736f6c63430008010033a2646970667358221220a8d700ac957e26f3daa3f82c5558a7cc77117faa903dfbeed38b3b35cf887e9c64736f6c63430008010033",
  "immutableReferences": {},
  "source": "// SPDX-License-Identifier: MIT\npragma solidity ^0.8.0;\n\nimport \"./NftMarket.sol\";\n\nimport '@openzeppelin/contracts/token/ERC20/ERC20.sol';\nimport '@openzeppelin/contracts/token/ERC721/ERC721.sol';\n\ncontract Registry {\n\n    struct User{\n        address userWallet;\n        string username;\n        string password;\n    }\n\n    struct NftAuction {\n        address contractAddress;\n        uint256 amount;\n        uint256 date;\n        uint256 time;\n        ERC721 erc721;\n        ERC20 erc20;\n        uint256 tokenId;\n        address owner;\n    }\n\n    struct NftData {\n        address contractAddress;\n        uint256 tokenId;\n        string jsonAbi;\n        string uri;\n        string name;\n        string symbol;\n    }\n\n    struct TokenData {\n        address contractAddress;\n        address owner;\n        string jsonAbi;\n        string name;\n        string symbol;\n        uint8 decimals;\n    }\n\n    //mapping users\n    mapping(string => User) public users;\n    //mapping users name\n    mapping(address => string) public userName;\n\n    // mapping aste\n    mapping(address => NftAuction) internal auctions;\n    address[] public allAuctions;\n    uint public contractCreated = 0;\n    // mapping admin\n    mapping(address => bool) internal isAdmin;\n\n    //mapping erc20\n    mapping(string => TokenData) internal allToken;\n    //mapping erc721\n    mapping(string => NftData) internal allNft;\n\n    //mapping erc721 address - symbol\n    mapping(address => string) public nftSymbol;\n    //mapping erc721 address - abi\n    mapping(address => string) public nftAbi;\n\n    //mapping erc721 address - auction\n    mapping(ERC721 => address) public nftAuction;\n\n    address[]public nft;\n    address[]public token;\n\n    event AdminAdded(address indexed _from, address indexed _who);\n    event AuctionCreated(address _owner, address _auction);\n\n    constructor() {\n        isAdmin[msg.sender] = true;\n        emit AdminAdded(address(0), msg.sender);\n    }\n\n    function makeAdmin(address _address) public {\n        require(isAdmin[msg.sender],\"Must be admin to create another admin\");\n        isAdmin[_address] = true;\n        emit AdminAdded(msg.sender, _address);\n    }\n\n    function addUser(address _userWallet ,string memory _username, string memory _password) public {\n        User memory tempUserData = User({\n            userWallet: _userWallet,\n            username: _username,\n            password: _password\n        });\n        users[_username] = tempUserData;\n        userName[_userWallet] = _username;\n    }\n\n    function getUser(string memory _username) public view returns(address,string memory,string memory){\n        return(\n            users[_username].userWallet,\n            users[_username].username,\n            users[_username].password\n        );\n    }\n\n    function addErc721(\n        address _erc721,\n        string memory _abi_json,\n        uint256 _tokenId,\n        string memory _uri,\n        string memory _name,\n        string memory _symbol\n    ) public {\n        require(isAdmin[msg.sender], \"Must be admin to add erc721 contracts\");\n\n        NftData memory tempNftData = NftData({\n            contractAddress: _erc721,\n            jsonAbi: _abi_json,\n            tokenId: _tokenId,\n            uri: _uri,\n            name: _name,\n            symbol: _symbol\n        });\n        allNft[_symbol] = tempNftData; \n        nft.push(_erc721);\n        nftSymbol[_erc721] = _symbol;\n        nftAbi[_erc721] = _abi_json;\n    }\n\n    function getNftToken(string memory _symbol) public view returns(address,uint256,string memory, string memory,string memory,string memory){\n        return(\n            allNft[_symbol].contractAddress,\n            allNft[_symbol].tokenId,\n            allNft[_symbol].jsonAbi,\n            allNft[_symbol].uri,\n            allNft[_symbol].name,\n            allNft[_symbol].symbol\n        );\n    }\n\n    function getNftArray() public view returns(address[]memory){\n        return nft;\n    }\n\n    function addErc20(\n        address _erc20,\n        address _owner,\n        string memory _abi_json,\n        string memory _name,\n        string memory _symbol,\n        uint8 _decimals \n    ) public {\n        require(isAdmin[msg.sender], \"Must be admin to add erc20 contracts\");\n\n        TokenData memory tempTokenData = TokenData({\n            contractAddress: _erc20,\n            owner: _owner,\n            jsonAbi: _abi_json,\n            name: _name,\n            symbol: _symbol,\n            decimals: _decimals\n        });\n        allToken[_symbol] = tempTokenData;\n        token.push(_erc20);\n    }\n\n    function getToken(string memory _symbol) public view returns(address,address,string memory,string memory,string memory,uint8){\n        return(\n            allToken[_symbol].contractAddress,\n            allToken[_symbol].owner,\n            allToken[_symbol].jsonAbi,\n            allToken[_symbol].name,\n            allToken[_symbol].symbol,\n            allToken[_symbol].decimals\n        );\n    }\n\n    function createAuction(\n        uint256 _amount,\n        uint256 _date,\n        uint256 _time,\n        ERC721 _erc721,\n        ERC20 _erc20,\n        uint256 _tokenId\n    ) public{\n        NftMarket auctionContract = new NftMarket(\n            _amount,\n            _date,\n            _time,\n            _erc721,\n            _erc20,\n            _tokenId,\n            msg.sender\n        );\n        NftAuction memory tempAuctionData = NftAuction({\n            contractAddress: address(auctionContract),\n            amount: _amount,\n            date: _date,\n            time: _time,\n            erc721: _erc721,\n            erc20: _erc20,\n            tokenId: _tokenId,\n            owner: msg.sender\n        });\n        auctions[address(auctionContract)] = tempAuctionData;\n        nftAuction[_erc721] = address(auctionContract);\n        allAuctions.push(address(auctionContract));\n        contractCreated++;\n        emit AuctionCreated(msg.sender,address(auctionContract));\n    }\n\n    function getAuction(address _addr) public view returns(uint256,uint256,uint256,ERC721,uint256,address,address){\n        return(\n            auctions[_addr].amount,\n            auctions[_addr].date,\n            auctions[_addr].time,\n            auctions[_addr].erc721,\n            auctions[_addr].tokenId,\n            auctions[_addr].contractAddress,\n            auctions[_addr].owner\n        );\n    }\n}\n",
  "sourcePath": "/Users/mauriziocapone/Desktop/nftmarketplaceapp/contracts/Registry.sol",
  "compiler": {
    "name": "solc",
    "version": "0.8.1+commit.df193b15.Emscripten.clang"
  },
  "schemaVersion": "3.4.1",
  "updatedAt": "2021-11-03T08:54:20.597Z",
  "networkType": "ethereum",
  "devdoc": {
    "kind": "dev",
    "methods": {},
    "version": 1
  },
  "userdoc": {
    "kind": "user",
    "methods": {},
    "version": 1
  }
}